{
  "_format": "hh-sol-artifact-1",
  "contractName": "DurianChain",
  "sourceName": "contracts/DurianChain.sol",
  "abi": [
    {
      "inputs": [],
      "stateMutability": "nonpayable",
      "type": "constructor"
    },
    {
      "anonymous": false,
      "inputs": [
        {
          "indexed": true,
          "internalType": "address",
          "name": "user",
          "type": "address"
        }
      ],
      "name": "AdminRemoved",
      "type": "event"
    },
    {
      "anonymous": false,
      "inputs": [
        {
          "indexed": true,
          "internalType": "address",
          "name": "user",
          "type": "address"
        },
        {
          "indexed": false,
          "internalType": "enum DurianChain.Role",
          "name": "role",
          "type": "uint8"
        }
      ],
      "name": "RoleAssigned",
      "type": "event"
    },
    {
      "anonymous": false,
      "inputs": [
        {
          "indexed": false,
          "internalType": "string",
          "name": "batchId",
          "type": "string"
        },
        {
          "indexed": false,
          "internalType": "address",
          "name": "actor",
          "type": "address"
        },
        {
          "indexed": false,
          "internalType": "enum DurianChain.Role",
          "name": "role",
          "type": "uint8"
        },
        {
          "indexed": false,
          "internalType": "string",
          "name": "action",
          "type": "string"
        },
        {
          "indexed": false,
          "internalType": "string",
          "name": "description",
          "type": "string"
        },
        {
          "indexed": false,
          "internalType": "uint256",
          "name": "timestamp",
          "type": "uint256"
        }
      ],
      "name": "TransitionLogged",
      "type": "event"
    },
    {
      "inputs": [
        {
          "internalType": "address",
          "name": "user",
          "type": "address"
        },
        {
          "internalType": "enum DurianChain.Role",
          "name": "role",
          "type": "uint8"
        }
      ],
      "name": "assignRole",
      "outputs": [],
      "stateMutability": "nonpayable",
      "type": "function"
    },
    {
      "inputs": [
        {
          "internalType": "string",
          "name": "batchId",
          "type": "string"
        }
      ],
      "name": "cancelOrder",
      "outputs": [],
      "stateMutability": "nonpayable",
      "type": "function"
    },
    {
      "inputs": [
        {
          "internalType": "string",
          "name": "batchId",
          "type": "string"
        },
        {
          "internalType": "string",
          "name": "logisticsCompanyId",
          "type": "string"
        }
      ],
      "name": "collectBatch",
      "outputs": [],
      "stateMutability": "nonpayable",
      "type": "function"
    },
    {
      "inputs": [
        {
          "internalType": "string",
          "name": "batchId",
          "type": "string"
        }
      ],
      "name": "confirmDelivery",
      "outputs": [],
      "stateMutability": "nonpayable",
      "type": "function"
    },
    {
      "inputs": [
        {
          "internalType": "string",
          "name": "batchId",
          "type": "string"
        },
        {
          "internalType": "string",
          "name": "variety",
          "type": "string"
        },
        {
          "internalType": "uint256",
          "name": "quantity",
          "type": "uint256"
        },
        {
          "internalType": "string",
          "name": "farmId",
          "type": "string"
        },
        {
          "internalType": "string",
          "name": "batchImageCID",
          "type": "string"
        },
        {
          "internalType": "string[]",
          "name": "durianIds",
          "type": "string[]"
        },
        {
          "internalType": "string[]",
          "name": "imageHashes",
          "type": "string[]"
        }
      ],
      "name": "createBatch",
      "outputs": [],
      "stateMutability": "nonpayable",
      "type": "function"
    },
    {
      "inputs": [
        {
          "internalType": "string",
          "name": "agencyId",
          "type": "string"
        },
        {
          "internalType": "string",
          "name": "agencyName",
          "type": "string"
        },
        {
          "internalType": "string",
          "name": "exportLicenseCID",
          "type": "string"
        },
        {
          "internalType": "uint256",
          "name": "exportLicenseExpiry",
          "type": "uint256"
        }
      ],
      "name": "createTraderAgency",
      "outputs": [],
      "stateMutability": "nonpayable",
      "type": "function"
    },
    {
      "inputs": [
        {
          "internalType": "string",
          "name": "batchId",
          "type": "string"
        }
      ],
      "name": "getBatchById",
      "outputs": [
        {
          "internalType": "string",
          "name": "",
          "type": "string"
        },
        {
          "internalType": "string",
          "name": "",
          "type": "string"
        },
        {
          "internalType": "string",
          "name": "",
          "type": "string"
        },
        {
          "internalType": "uint256",
          "name": "",
          "type": "uint256"
        },
        {
          "internalType": "string",
          "name": "",
          "type": "string"
        },
        {
          "internalType": "enum DurianChain.Status",
          "name": "",
          "type": "uint8"
        },
        {
          "internalType": "address",
          "name": "",
          "type": "address"
        },
        {
          "internalType": "address",
          "name": "",
          "type": "address"
        },
        {
          "internalType": "address",
          "name": "",
          "type": "address"
        },
        {
          "internalType": "string",
          "name": "",
          "type": "string"
        },
        {
          "internalType": "string",
          "name": "",
          "type": "string"
        }
      ],
      "stateMutability": "view",
      "type": "function"
    },
    {
      "inputs": [
        {
          "internalType": "string",
          "name": "batchId",
          "type": "string"
        }
      ],
      "name": "getBatchMilestone",
      "outputs": [
        {
          "internalType": "string[]",
          "name": "actions",
          "type": "string[]"
        },
        {
          "internalType": "string[]",
          "name": "descriptions",
          "type": "string[]"
        },
        {
          "internalType": "address[]",
          "name": "actors",
          "type": "address[]"
        },
        {
          "internalType": "string[]",
          "name": "roleNames",
          "type": "string[]"
        },
        {
          "internalType": "uint256[]",
          "name": "timestamps",
          "type": "uint256[]"
        }
      ],
      "stateMutability": "view",
      "type": "function"
    },
    {
      "inputs": [
        {
          "internalType": "string",
          "name": "batchId",
          "type": "string"
        }
      ],
      "name": "getDuriansByBatchId",
      "outputs": [
        {
          "components": [
            {
              "internalType": "string",
              "name": "id",
              "type": "string"
            },
            {
              "internalType": "string",
              "name": "imageHash",
              "type": "string"
            }
          ],
          "internalType": "struct DurianChain.Durian[]",
          "name": "",
          "type": "tuple[]"
        }
      ],
      "stateMutability": "view",
      "type": "function"
    },
    {
      "inputs": [
        {
          "internalType": "string",
          "name": "farmId",
          "type": "string"
        }
      ],
      "name": "getFarmById",
      "outputs": [
        {
          "internalType": "string",
          "name": "",
          "type": "string"
        },
        {
          "internalType": "string",
          "name": "",
          "type": "string"
        },
        {
          "internalType": "address",
          "name": "",
          "type": "address"
        },
        {
          "internalType": "string",
          "name": "",
          "type": "string"
        },
        {
          "internalType": "uint256",
          "name": "",
          "type": "uint256"
        }
      ],
      "stateMutability": "view",
      "type": "function"
    },
    {
      "inputs": [
        {
          "internalType": "string",
          "name": "farmId",
          "type": "string"
        }
      ],
      "name": "getFarmMilestone",
      "outputs": [
        {
          "internalType": "string[]",
          "name": "actions",
          "type": "string[]"
        },
        {
          "internalType": "string[]",
          "name": "descriptions",
          "type": "string[]"
        },
        {
          "internalType": "address[]",
          "name": "actors",
          "type": "address[]"
        },
        {
          "internalType": "string[]",
          "name": "roleNames",
          "type": "string[]"
        },
        {
          "internalType": "uint256[]",
          "name": "timestamps",
          "type": "uint256[]"
        }
      ],
      "stateMutability": "view",
      "type": "function"
    },
    {
      "inputs": [
        {
          "internalType": "string",
          "name": "companyId",
          "type": "string"
        }
      ],
      "name": "getLogisticsById",
      "outputs": [
        {
          "internalType": "string",
          "name": "",
          "type": "string"
        },
        {
          "internalType": "address",
          "name": "",
          "type": "address"
        },
        {
          "internalType": "string",
          "name": "",
          "type": "string"
        }
      ],
      "stateMutability": "view",
      "type": "function"
    },
    {
      "inputs": [
        {
          "internalType": "string",
          "name": "companyId",
          "type": "string"
        }
      ],
      "name": "getLogisticsMilestone",
      "outputs": [
        {
          "internalType": "string[]",
          "name": "actions",
          "type": "string[]"
        },
        {
          "internalType": "string[]",
          "name": "descriptions",
          "type": "string[]"
        },
        {
          "internalType": "address[]",
          "name": "actors",
          "type": "address[]"
        },
        {
          "internalType": "string[]",
          "name": "roleNames",
          "type": "string[]"
        },
        {
          "internalType": "uint256[]",
          "name": "timestamps",
          "type": "uint256[]"
        }
      ],
      "stateMutability": "view",
      "type": "function"
    },
    {
      "inputs": [],
      "name": "getMyBatchIds",
      "outputs": [
        {
          "internalType": "string[]",
          "name": "",
          "type": "string[]"
        }
      ],
      "stateMutability": "view",
      "type": "function"
    },
    {
      "inputs": [],
      "name": "getMyFarmIds",
      "outputs": [
        {
          "internalType": "string[]",
          "name": "",
          "type": "string[]"
        }
      ],
      "stateMutability": "view",
      "type": "function"
    },
    {
      "inputs": [],
      "name": "getMyLogisticsCompanyIds",
      "outputs": [
        {
          "internalType": "string[]",
          "name": "",
          "type": "string[]"
        }
      ],
      "stateMutability": "view",
      "type": "function"
    },
    {
      "inputs": [],
      "name": "getMyRoleAsString",
      "outputs": [
        {
          "internalType": "string",
          "name": "",
          "type": "string"
        }
      ],
      "stateMutability": "view",
      "type": "function"
    },
    {
      "inputs": [],
      "name": "getMyTraderAgencyIds",
      "outputs": [
        {
          "internalType": "string[]",
          "name": "",
          "type": "string[]"
        }
      ],
      "stateMutability": "view",
      "type": "function"
    },
    {
      "inputs": [
        {
          "internalType": "string",
          "name": "agencyId",
          "type": "string"
        }
      ],
      "name": "getTraderAgencyById",
      "outputs": [
        {
          "internalType": "string",
          "name": "",
          "type": "string"
        },
        {
          "internalType": "string",
          "name": "",
          "type": "string"
        },
        {
          "internalType": "address",
          "name": "",
          "type": "address"
        },
        {
          "internalType": "string",
          "name": "",
          "type": "string"
        },
        {
          "internalType": "uint256",
          "name": "",
          "type": "uint256"
        }
      ],
      "stateMutability": "view",
      "type": "function"
    },
    {
      "inputs": [
        {
          "internalType": "string",
          "name": "agencyId",
          "type": "string"
        }
      ],
      "name": "getTraderAgencyMilestone",
      "outputs": [
        {
          "internalType": "string[]",
          "name": "actions",
          "type": "string[]"
        },
        {
          "internalType": "string[]",
          "name": "descriptions",
          "type": "string[]"
        },
        {
          "internalType": "address[]",
          "name": "actors",
          "type": "address[]"
        },
        {
          "internalType": "string[]",
          "name": "roleNames",
          "type": "string[]"
        },
        {
          "internalType": "uint256[]",
          "name": "timestamps",
          "type": "uint256[]"
        }
      ],
      "stateMutability": "view",
      "type": "function"
    },
    {
      "inputs": [
        {
          "internalType": "address",
          "name": "user",
          "type": "address"
        }
      ],
      "name": "getUserRole",
      "outputs": [
        {
          "internalType": "enum DurianChain.Role",
          "name": "",
          "type": "uint8"
        }
      ],
      "stateMutability": "view",
      "type": "function"
    },
    {
      "inputs": [
        {
          "internalType": "address",
          "name": "",
          "type": "address"
        }
      ],
      "name": "isAdmin",
      "outputs": [
        {
          "internalType": "bool",
          "name": "",
          "type": "bool"
        }
      ],
      "stateMutability": "view",
      "type": "function"
    },
    {
      "inputs": [
        {
          "internalType": "string",
          "name": "batchId",
          "type": "string"
        },
        {
          "internalType": "string",
          "name": "agencyId",
          "type": "string"
        },
        {
          "internalType": "string",
          "name": "deliveryDestination",
          "type": "string"
        },
        {
          "internalType": "bool",
          "name": "isExport",
          "type": "bool"
        }
      ],
      "name": "orderBatch",
      "outputs": [],
      "stateMutability": "nonpayable",
      "type": "function"
    },
    {
      "inputs": [
        {
          "internalType": "string",
          "name": "farmId",
          "type": "string"
        },
        {
          "internalType": "string",
          "name": "location",
          "type": "string"
        },
        {
          "internalType": "string",
          "name": "certificateCID",
          "type": "string"
        },
        {
          "internalType": "uint256",
          "name": "certificateExpiry",
          "type": "uint256"
        }
      ],
      "name": "registerFarm",
      "outputs": [],
      "stateMutability": "nonpayable",
      "type": "function"
    },
    {
      "inputs": [
        {
          "internalType": "string",
          "name": "companyId",
          "type": "string"
        },
        {
          "internalType": "string",
          "name": "companyName",
          "type": "string"
        }
      ],
      "name": "registerLogisticsCompany",
      "outputs": [],
      "stateMutability": "nonpayable",
      "type": "function"
    },
    {
      "inputs": [
        {
          "internalType": "string",
          "name": "batchId",
          "type": "string"
        }
      ],
      "name": "removeBatch",
      "outputs": [],
      "stateMutability": "nonpayable",
      "type": "function"
    },
    {
      "inputs": [
        {
          "internalType": "address",
          "name": "",
          "type": "address"
        }
      ],
      "name": "roles",
      "outputs": [
        {
          "internalType": "enum DurianChain.Role",
          "name": "",
          "type": "uint8"
        }
      ],
      "stateMutability": "view",
      "type": "function"
    },
    {
      "inputs": [],
      "name": "superAdmin",
      "outputs": [
        {
          "internalType": "address",
          "name": "",
          "type": "address"
        }
      ],
      "stateMutability": "view",
      "type": "function"
    },
    {
      "inputs": [
        {
          "internalType": "string",
          "name": "batchId",
          "type": "string"
        },
        {
          "internalType": "uint256",
          "name": "newQuantity",
          "type": "uint256"
        },
        {
          "internalType": "string",
          "name": "newBatchImageCID",
          "type": "string"
        },
        {
          "internalType": "string[]",
          "name": "newDurianIds",
          "type": "string[]"
        },
        {
          "internalType": "string[]",
          "name": "newImageHashes",
          "type": "string[]"
        }
      ],
      "name": "updateBatchInfo",
      "outputs": [],
      "stateMutability": "nonpayable",
      "type": "function"
    },
    {
      "inputs": [
        {
          "internalType": "string",
          "name": "farmId",
          "type": "string"
        },
        {
          "internalType": "string",
          "name": "newCertificateCID",
          "type": "string"
        },
        {
          "internalType": "uint256",
          "name": "newExpiry",
          "type": "uint256"
        }
      ],
      "name": "updateFarmCertificate",
      "outputs": [],
      "stateMutability": "nonpayable",
      "type": "function"
    },
    {
      "inputs": [
        {
          "internalType": "string",
          "name": "agencyId",
          "type": "string"
        },
        {
          "internalType": "string",
          "name": "newExportCID",
          "type": "string"
        },
        {
          "internalType": "uint256",
          "name": "newExportExpiry",
          "type": "uint256"
        }
      ],
      "name": "updateTraderAgencyCertificate",
      "outputs": [],
      "stateMutability": "nonpayable",
      "type": "function"
    }
  ],
  "bytecode": "0x608060405234801561001057600080fd5b5060008054336001600160a01b0319909116811782558152600160208181526040808420805460ff19908116851790915560029092529092208054909216179055615e1180620000616000396000f3fe608060405234801561001057600080fd5b50600436106101e55760003560e01c80639fb50d551161010f578063c2558ffd116100a2578063f11d77ea11610071578063f11d77ea14610495578063f342df7d146104a8578063f68e1141146104bb578063fc856e38146104c357600080fd5b8063c2558ffd14610454578063d15783df14610467578063d2bbdec21461047a578063ef1b26fa1461048d57600080fd5b8063b97995a0116100de578063b97995a014610406578063bc54180a14610419578063c153251e1461042c578063c17d44231461043f57600080fd5b80639fb50d55146103b8578063a4506460146103cb578063a7f97692146103de578063b0f41eb1146103f157600080fd5b80634d5fbbe21161018757806375b021481161015657806375b0214814610329578063797f27ff146103535780638f270d5f14610375578063993746421461039557600080fd5b80634d5fbbe2146102dd578063630a195b146102f05780636b74306c1461030357806372e855ff1461031657600080fd5b80632d12d969116101c35780632d12d9691461026d5780633270bd0514610291578063373f8b70146102b55780633fcabe35146102ca57600080fd5b806324d7806c146101ea578063278208511461022257806329575f6a14610242575b600080fd5b61020d6101f8366004614c26565b60016020526000908152604090205460ff1681565b60405190151581526020015b60405180910390f35b610235610230366004614c26565b6104cb565b6040516102199190614c7c565b600054610255906001600160a01b031681565b6040516001600160a01b039091168152602001610219565b61028061027b366004614d44565b6104ed565b604051610219959493929190614e20565b6102a461029f366004614d44565b61098f565b604051610219959493929190614ede565b6102c86102c3366004614f39565b610be6565b005b6102c86102d8366004614fa5565b610e06565b6102a46102eb366004614d44565b61101f565b6102c86102fe366004615008565b61109c565b6102c8610311366004615043565b6111f6565b610280610324366004614d44565b61143f565b61033c610337366004614d44565b6118bd565b6040516102199b9a999897969594939291906150d2565b610366610361366004614d44565b611cdd565b6040516102199392919061519b565b610388610383366004614d44565b611ea2565b60405161021991906151d9565b6102356103a3366004614c26565b60026020526000908152604090205460ff1681565b6102806103c6366004614d44565b6120b8565b6102c86103d9366004614d44565b61252b565b6102806103ec366004614d44565b6126b4565b6103f9612b26565b604051610219919061525e565b6102c861041436600461530f565b612b4b565b6102c861042736600461540e565b6130ad565b6102c861043a366004615043565b613611565b610447613860565b60405161021991906154c4565b6102c8610462366004614d44565b613943565b6102c86104753660046154d7565b613b0c565b6102c8610488366004614f39565b613f3e565b610447614199565b6102c86104a3366004614d44565b614271565b6102c86104b6366004614fa5565b614402565b610447614534565b61044761460c565b6001600160a01b03811660009081526002602052604090205460ff165b919050565b606080606080606060006005876040516105079190615576565b90815260405190819003602001902080549091508061056c5760405162461bcd60e51b81526020600482015260286024820152600080516020615dbc833981519152604482015267686973206661726d60c01b60648201526084015b60405180910390fd5b806001600160401b0381111561058457610584614c8f565b6040519080825280602002602001820160405280156105b757816020015b60608152602001906001900390816105a25790505b509650806001600160401b038111156105d2576105d2614c8f565b60405190808252806020026020018201604052801561060557816020015b60608152602001906001900390816105f05790505b509550806001600160401b0381111561062057610620614c8f565b604051908082528060200260200182016040528015610649578160200160208202803683370190505b509450806001600160401b0381111561066457610664614c8f565b60405190808252806020026020018201604052801561069757816020015b60608152602001906001900390816106825790505b509350806001600160401b038111156106b2576106b2614c8f565b6040519080825280602002602001820160405280156106db578160200160208202803683370190505b50925060005b81811015610983578281815481106106fb576106fb615592565b90600052602060002090600402016001018054610717906155a8565b80601f0160208091040260200160405190810160405280929190818152602001828054610743906155a8565b80156107905780601f1061076557610100808354040283529160200191610790565b820191906000526020600020905b81548152906001019060200180831161077357829003601f168201915b50505050508882815181106107a7576107a7615592565b60200260200101819052508281815481106107c4576107c4615592565b906000526020600020906004020160020180546107e0906155a8565b80601f016020809104026020016040519081016040528092919081815260200182805461080c906155a8565b80156108595780601f1061082e57610100808354040283529160200191610859565b820191906000526020600020905b81548152906001019060200180831161083c57829003601f168201915b505050505087828151811061087057610870615592565b602002602001018190525082818154811061088d5761088d615592565b600091825260209091206004909102015486516001600160a01b03909116908790839081106108be576108be615592565b60200260200101906001600160a01b031690816001600160a01b0316815250506109138382815481106108f3576108f3615592565b6000918252602090912060049091020154600160a01b900460ff166146e4565b85828151811061092557610925615592565b602002602001018190525082818154811061094257610942615592565b90600052602060002090600402016003015484828151811061096657610966615592565b60209081029190910101528061097b816155f8565b9150506106e1565b50505091939590929450565b606080600060606000806003876040516109a99190615576565b9081526020016040518091039020905060008160000180546109ca906155a8565b905011610a0a5760405162461bcd60e51b815260206004820152600e60248201526d11985c9b481b9bdd08199bdd5b9960921b6044820152606401610563565b600181015460048201548254839260028401926001600160a01b03909116916003850191908590610a3a906155a8565b80601f0160208091040260200160405190810160405280929190818152602001828054610a66906155a8565b8015610ab35780601f10610a8857610100808354040283529160200191610ab3565b820191906000526020600020905b815481529060010190602001808311610a9657829003601f168201915b50505050509450838054610ac6906155a8565b80601f0160208091040260200160405190810160405280929190818152602001828054610af2906155a8565b8015610b3f5780601f10610b1457610100808354040283529160200191610b3f565b820191906000526020600020905b815481529060010190602001808311610b2257829003601f168201915b50505050509350818054610b52906155a8565b80601f0160208091040260200160405190810160405280929190818152602001828054610b7e906155a8565b8015610bcb5780601f10610ba057610100808354040283529160200191610bcb565b820191906000526020600020905b815481529060010190602001808311610bae57829003601f168201915b50505050509150955095509550955095505091939590929450565b60026000600385604051610bfa9190615576565b90815260405190819003602001902060018101549091506001600160a01b03163314610c585760405162461bcd60e51b815260206004820152600d60248201526c4e6f7420796f7572206661726d60981b6044820152606401610563565b6000845111610c9c5760405162461bcd60e51b815260206004820152601060248201526f13995dc810d251081c995c5d5a5c995960821b6044820152606401610563565b428311610ce35760405162461bcd60e51b8152602060048201526015602482015274457870697279206d7573742062652066757475726560581b6044820152606401610563565b6000816003018054610cf4906155a8565b80601f0160208091040260200160405190810160405280929190818152602001828054610d20906155a8565b8015610d6d5780601f10610d4257610100808354040283529160200191610d6d565b820191906000526020600020905b815481529060010190602001808311610d5057829003601f168201915b5050505060048401549192505060038301610d888782615657565b5060048301859055600082610d9c836147f7565b88610da6896147f7565b604051602001610db99493929190615716565b60408051601f19818403018152828201909152601382527210d95c9d1a599a58d85d1948155c19185d1959606a1b60208301529150610dfc9089908360026148ff565b5050505050505050565b60046000835111610e4f5760405162461bcd60e51b815260206004820152601360248201527210dbdb5c185b9e481251081c995c5d5a5c9959606a1b6044820152606401610563565b6000825111610e985760405162461bcd60e51b815260206004820152601560248201527410dbdb5c185b9e481b985b59481c995c5d5a5c9959605a1b6044820152606401610563565b600c83604051610ea89190615576565b9081526040519081900360200190208054610ec2906155a8565b159050610f115760405162461bcd60e51b815260206004820152601760248201527f436f6d70616e7920494420616c726561647920757365640000000000000000006044820152606401610563565b604080516060810182528481523360208201528082018490529051600c90610f3a908690615576565b90815260405190819003602001902081518190610f579082615657565b5060208201516001820180546001600160a01b0319166001600160a01b0390921691909117905560408201516002820190610f929082615657565b5050336000908152600d60209081526040822080546001810182559083529120019050610fbf8482615657565b5061101a836040518060400160405280601c81526020017f4c6f6769737469637320436f6d70616e79205265676973746572656400000000815250604051806060016040528060278152602001615d95602791396004614a4b565b505050565b606080600060606000806009876040516110399190615576565b90815260200160405180910390209050600081600001805461105a906155a8565b905011610a0a5760405162461bcd60e51b815260206004820152601060248201526f1059d95b98de481b9bdd08199bdd5b9960821b6044820152606401610563565b6001600160a01b0382166110e45760405162461bcd60e51b815260206004820152600f60248201526e496e76616c6964206164647265737360881b6044820152606401610563565b6000546001600160a01b03908116908316036111425760405162461bcd60e51b815260206004820181905260248201527f43616e6e6f74206368616e676520726f6c65206f6620737570657241646d696e6044820152606401610563565b6001600160a01b0382166000908152600260205260409020805482919060ff1916600183600481111561117757611177614c48565b0217905550600181600481111561119057611190614c48565b6001600160a01b03841660008181526001602052604090819020805460ff1916949093149390931790915590517f4ac36fa53f167ceb85964be512e01de2a3b8bdb9862f917da079deeeff689b38906111ea908490614c7c565b60405180910390a25050565b6003600085511161123e5760405162461bcd60e51b81526020600482015260126024820152711059d95b98de481251081c995c5d5a5c995960721b6044820152606401610563565b60008451116112865760405162461bcd60e51b81526020600482015260146024820152731059d95b98de481b985b59481c995c5d5a5c995960621b6044820152606401610563565b6009856040516112969190615576565b90815260405190819003602001902080546112b0906155a8565b1590506112ff5760405162461bcd60e51b815260206004820152601860248201527f4167656e637920494420616c72656164792065786973747300000000000000006044820152606401610563565b6040518060a00160405280868152602001336001600160a01b031681526020018581526020018481526020018381525060098660405161133f9190615576565b9081526040519081900360200190208151819061135c9082615657565b5060208201516001820180546001600160a01b0319166001600160a01b03909216919091179055604082015160028201906113979082615657565b50606082015160038201906113ac9082615657565b5060809190910151600490910155336000908152600a60209081526040822080546001810182559083529120016113e38682615657565b50600084846040516020016113f99291906157ad565b60408051601f19818403018152828201909152600e82526d1059d95b98de4810dc99585d195960921b60208301529150611437908790836003614b56565b505050505050565b60608060608060606000600e876040516114599190615576565b9081526040519081900360200190208054909150806114c65760405162461bcd60e51b81526020600482015260356024820152600080516020615dbc833981519152604482015274686973206c6f6769737469637320636f6d70616e7960581b6064820152608401610563565b806001600160401b038111156114de576114de614c8f565b60405190808252806020026020018201604052801561151157816020015b60608152602001906001900390816114fc5790505b509650806001600160401b0381111561152c5761152c614c8f565b60405190808252806020026020018201604052801561155f57816020015b606081526020019060019003908161154a5790505b509550806001600160401b0381111561157a5761157a614c8f565b6040519080825280602002602001820160405280156115a3578160200160208202803683370190505b509450806001600160401b038111156115be576115be614c8f565b6040519080825280602002602001820160405280156115f157816020015b60608152602001906001900390816115dc5790505b509350806001600160401b0381111561160c5761160c614c8f565b604051908082528060200260200182016040528015611635578160200160208202803683370190505b50925060005b818110156109835782818154811061165557611655615592565b90600052602060002090600402016001018054611671906155a8565b80601f016020809104026020016040519081016040528092919081815260200182805461169d906155a8565b80156116ea5780601f106116bf576101008083540402835291602001916116ea565b820191906000526020600020905b8154815290600101906020018083116116cd57829003601f168201915b505050505088828151811061170157611701615592565b602002602001018190525082818154811061171e5761171e615592565b9060005260206000209060040201600201805461173a906155a8565b80601f0160208091040260200160405190810160405280929190818152602001828054611766906155a8565b80156117b35780601f10611788576101008083540402835291602001916117b3565b820191906000526020600020905b81548152906001019060200180831161179657829003601f168201915b50505050508782815181106117ca576117ca615592565b60200260200101819052508281815481106117e7576117e7615592565b600091825260209091206004909102015486516001600160a01b039091169087908390811061181857611818615592565b60200260200101906001600160a01b031690816001600160a01b03168152505061184d8382815481106108f3576108f3615592565b85828151811061185f5761185f615592565b602002602001018190525082818154811061187c5761187c615592565b9060005260206000209060040201600301548482815181106118a0576118a0615592565b6020908102919091010152806118b5816155f8565b91505061163b565b606080606060006060600080600080606080600060068d6040516118e19190615576565b908152602001604051809103902090506000816000018054611902906155a8565b9050116119215760405162461bcd60e51b815260040161056390615812565b600381015460058201546006830154600784015484548594600186019460028701949193600488019360ff8316936001600160a01b03610100909404841693908116921690600a8a0190600b8b01908b9061197b906155a8565b80601f01602080910402602001604051908101604052809291908181526020018280546119a7906155a8565b80156119f45780601f106119c9576101008083540402835291602001916119f4565b820191906000526020600020905b8154815290600101906020018083116119d757829003601f168201915b50505050509a50898054611a07906155a8565b80601f0160208091040260200160405190810160405280929190818152602001828054611a33906155a8565b8015611a805780601f10611a5557610100808354040283529160200191611a80565b820191906000526020600020905b815481529060010190602001808311611a6357829003601f168201915b50505050509950888054611a93906155a8565b80601f0160208091040260200160405190810160405280929190818152602001828054611abf906155a8565b8015611b0c5780601f10611ae157610100808354040283529160200191611b0c565b820191906000526020600020905b815481529060010190602001808311611aef57829003601f168201915b50505050509850868054611b1f906155a8565b80601f0160208091040260200160405190810160405280929190818152602001828054611b4b906155a8565b8015611b985780601f10611b6d57610100808354040283529160200191611b98565b820191906000526020600020905b815481529060010190602001808311611b7b57829003601f168201915b50505050509650818054611bab906155a8565b80601f0160208091040260200160405190810160405280929190818152602001828054611bd7906155a8565b8015611c245780601f10611bf957610100808354040283529160200191611c24565b820191906000526020600020905b815481529060010190602001808311611c0757829003601f168201915b50505050509150808054611c37906155a8565b80601f0160208091040260200160405190810160405280929190818152602001828054611c63906155a8565b8015611cb05780601f10611c8557610100808354040283529160200191611cb0565b820191906000526020600020905b815481529060010190602001808311611c9357829003601f168201915b505050505090509b509b509b509b509b509b509b509b509b509b509b505091939597999b90929496989a50565b6060600060606000600c85604051611cf59190615576565b908152602001604051809103902090506000816000018054611d16906155a8565b905011611d655760405162461bcd60e51b815260206004820152601b60248201527f4c6f6769737469637320636f6d70616e79206e6f7420666f756e6400000000006044820152606401610563565b6001810154815482916001600160a01b03169060028301908390611d88906155a8565b80601f0160208091040260200160405190810160405280929190818152602001828054611db4906155a8565b8015611e015780601f10611dd657610100808354040283529160200191611e01565b820191906000526020600020905b815481529060010190602001808311611de457829003601f168201915b50505050509250808054611e14906155a8565b80601f0160208091040260200160405190810160405280929190818152602001828054611e40906155a8565b8015611e8d5780601f10611e6257610100808354040283529160200191611e8d565b820191906000526020600020905b815481529060010190602001808311611e7057829003601f168201915b50505050509050935093509350509193909250565b60606000600683604051611eb69190615576565b908152604051908190036020019020600c015411611f165760405162461bcd60e51b815260206004820152601e60248201527f4e6f2064757269616e7320666f756e6420696e207468697320626174636800006044820152606401610563565b600682604051611f269190615576565b9081526020016040518091039020600c01805480602002602001604051908101604052809291908181526020016000905b828210156120ad5783829060005260206000209060020201604051806040016040529081600082018054611f8a906155a8565b80601f0160208091040260200160405190810160405280929190818152602001828054611fb6906155a8565b80156120035780601f10611fd857610100808354040283529160200191612003565b820191906000526020600020905b815481529060010190602001808311611fe657829003601f168201915b5050505050815260200160018201805461201c906155a8565b80601f0160208091040260200160405190810160405280929190818152602001828054612048906155a8565b80156120955780601f1061206a57610100808354040283529160200191612095565b820191906000526020600020905b81548152906001019060200180831161207857829003601f168201915b50505050508152505081526020019060010190611f57565b505050509050919050565b60608060608060606000600b876040516120d29190615576565b9081526040519081900360200190208054909150806121345760405162461bcd60e51b815260206004820152602a6024820152600080516020615dbc833981519152604482015269686973206167656e637960b01b6064820152608401610563565b806001600160401b0381111561214c5761214c614c8f565b60405190808252806020026020018201604052801561217f57816020015b606081526020019060019003908161216a5790505b509650806001600160401b0381111561219a5761219a614c8f565b6040519080825280602002602001820160405280156121cd57816020015b60608152602001906001900390816121b85790505b509550806001600160401b038111156121e8576121e8614c8f565b604051908082528060200260200182016040528015612211578160200160208202803683370190505b509450806001600160401b0381111561222c5761222c614c8f565b60405190808252806020026020018201604052801561225f57816020015b606081526020019060019003908161224a5790505b509350806001600160401b0381111561227a5761227a614c8f565b6040519080825280602002602001820160405280156122a3578160200160208202803683370190505b50925060005b81811015610983578281815481106122c3576122c3615592565b906000526020600020906004020160010180546122df906155a8565b80601f016020809104026020016040519081016040528092919081815260200182805461230b906155a8565b80156123585780601f1061232d57610100808354040283529160200191612358565b820191906000526020600020905b81548152906001019060200180831161233b57829003601f168201915b505050505088828151811061236f5761236f615592565b602002602001018190525082818154811061238c5761238c615592565b906000526020600020906004020160020180546123a8906155a8565b80601f01602080910402602001604051908101604052809291908181526020018280546123d4906155a8565b80156124215780601f106123f657610100808354040283529160200191612421565b820191906000526020600020905b81548152906001019060200180831161240457829003601f168201915b505050505087828151811061243857612438615592565b602002602001018190525082818154811061245557612455615592565b600091825260209091206004909102015486516001600160a01b039091169087908390811061248657612486615592565b60200260200101906001600160a01b031690816001600160a01b0316815250506124bb8382815481106108f3576108f3615592565b8582815181106124cd576124cd615592565b60200260200101819052508281815481106124ea576124ea615592565b90600052602060002090600402016003015484828151811061250e5761250e615592565b602090810291909101015280612523816155f8565b9150506122a9565b6004600060068360405161253f9190615576565b908152602001604051809103902090506000816000018054612560906155a8565b90501161257f5760405162461bcd60e51b815260040161056390615812565b6002600582015460ff16600481111561259a5761259a614c48565b146125e75760405162461bcd60e51b815260206004820152601d60248201527f4261746368206d75737420626520636f6c6c65637465642066697273740000006044820152606401610563565b60078101546001600160a01b0316331461264e5760405162461bcd60e51b815260206004820152602260248201527f596f7520617265206e6f74207468652061737369676e6564206c6f6769737469604482015261637360f01b6064820152608401610563565b60058101805460ff19166003179055604080518082018252600f81526e10985d18da0811195b1a5d995c9959608a1b602080830191909152915161101a9286929161269e916009870191016158ae565b6040516020818303038152906040526004614b66565b606080606080606060006008876040516126ce9190615576565b90815260405190819003602001902080549091508061272f5760405162461bcd60e51b81526020600482015260296024820152600080516020615dbc8339815191526044820152680d0d2e640c4c2e8c6d60bb1b6064820152608401610563565b806001600160401b0381111561274757612747614c8f565b60405190808252806020026020018201604052801561277a57816020015b60608152602001906001900390816127655790505b509650806001600160401b0381111561279557612795614c8f565b6040519080825280602002602001820160405280156127c857816020015b60608152602001906001900390816127b35790505b509550806001600160401b038111156127e3576127e3614c8f565b60405190808252806020026020018201604052801561280c578160200160208202803683370190505b509450806001600160401b0381111561282757612827614c8f565b60405190808252806020026020018201604052801561285a57816020015b60608152602001906001900390816128455790505b509350806001600160401b0381111561287557612875614c8f565b60405190808252806020026020018201604052801561289e578160200160208202803683370190505b50925060005b81811015610983578281815481106128be576128be615592565b906000526020600020906004020160010180546128da906155a8565b80601f0160208091040260200160405190810160405280929190818152602001828054612906906155a8565b80156129535780601f1061292857610100808354040283529160200191612953565b820191906000526020600020905b81548152906001019060200180831161293657829003601f168201915b505050505088828151811061296a5761296a615592565b602002602001018190525082818154811061298757612987615592565b906000526020600020906004020160020180546129a3906155a8565b80601f01602080910402602001604051908101604052809291908181526020018280546129cf906155a8565b8015612a1c5780601f106129f157610100808354040283529160200191612a1c565b820191906000526020600020905b8154815290600101906020018083116129ff57829003601f168201915b5050505050878281518110612a3357612a33615592565b6020026020010181905250828181548110612a5057612a50615592565b600091825260209091206004909102015486516001600160a01b0390911690879083908110612a8157612a81615592565b60200260200101906001600160a01b031690816001600160a01b031681525050612ab68382815481106108f3576108f3615592565b858281518110612ac857612ac8615592565b6020026020010181905250828181548110612ae557612ae5615592565b906000526020600020906004020160030154848281518110612b0957612b09615592565b602090810291909101015280612b1e816155f8565b9150506128a4565b3360009081526002602052604090205460609060ff16612b45816146e4565b91505090565b60026000885111612b925760405162461bcd60e51b815260206004820152601160248201527010985d18da081251081c995c5d5a5c9959607a1b6044820152606401610563565b6000875111612bd85760405162461bcd60e51b8152602060048201526012602482015271119bdbd9081b985b59481c995c5d5a5c995960721b6044820152606401610563565b60008611612c1f5760405162461bcd60e51b815260206004820152601460248201527305175616e74697479206d757374206265203e20360641b6044820152606401610563565b6000845111612c705760405162461bcd60e51b815260206004820152601860248201527f426174636820696d6167652043494420726571756972656400000000000000006044820152606401610563565b6000600386604051612c829190615576565b9081526040519081900360200190208054612c9c906155a8565b905011612ce15760405162461bcd60e51b815260206004820152601360248201527211985c9b481b9bdd081c9959da5cdd195c9959606a1b6044820152606401610563565b336001600160a01b0316600386604051612cfb9190615576565b908152604051908190036020019020600101546001600160a01b031614612d645760405162461bcd60e51b815260206004820152601860248201527f596f7520646f206e6f74206f776e2074686973206661726d00000000000000006044820152606401610563565b600688604051612d749190615576565b908152602001604051809103902060030154600014612dcc5760405162461bcd60e51b8152602060048201526014602482015273426174636820616c72656164792065786973747360601b6044820152606401610563565b8151835114612e175760405162461bcd60e51b81526020600482015260176024820152764d69736d617463682064757269616e732f696d6167657360481b6044820152606401610563565b6000600689604051612e299190615576565b908152604051908190036020019020905080612e458a82615657565b5060018101612e548982615657565b5060028101612e638782615657565b506003808201889055604051612e7a908890615576565b9081526020016040518091039020600201816004019081612e9b91906158f9565b506005810180546001600160a81b0319163361010002179055600a8101612ec28682615657565b5060005b845181101561302d576000858281518110612ee357612ee3615592565b60200260200101515111612f2b5760405162461bcd60e51b815260206004820152600f60248201526e44757269616e20494420656d70747960881b6044820152606401610563565b6000848281518110612f3f57612f3f615592565b60200260200101515111612f8f5760405162461bcd60e51b815260206004820152601760248201527644757269616e20696d616765206861736820656d70747960481b6044820152606401610563565b81600c016040518060400160405280878481518110612fb057612fb0615592565b60200260200101518152602001868481518110612fcf57612fcf615592565b60209081029190910181015190915282546001810184556000938452922081519192600202019081906130029082615657565b50602082015160018201906130179082615657565b5050508080613025906155f8565b915050612ec6565b50336000908152600760209081526040822080546001810182559083529120016130578a82615657565b506130a2896040518060400160405280600d81526020016c10985d18da0810dc99585d1959609a1b815250604051806060016040528060218152602001615d74602191396002614b66565b505050505050505050565b600260006006876040516130c19190615576565b9081526020016040518091039020905060008160000180546130e2906155a8565b9050116131015760405162461bcd60e51b8152600401610563906159cb565b600581015461010090046001600160a01b031633146131535760405162461bcd60e51b815260206004820152600e60248201526d09cdee840f2deeae440c4c2e8c6d60931b6044820152606401610563565b6000600582015460ff16600481111561316e5761316e614c48565b146131e15760405162461bcd60e51b815260206004820152603960248201527f4261746368206d75737420626520696e2027437265617465642720737461746560448201527f20286e6f74206f726465726564206f722064656c6574656429000000000000006064820152608401610563565b600086116132285760405162461bcd60e51b815260206004820152601460248201527305175616e74697479206d757374206265203e20360641b6044820152606401610563565b600085511161326e5760405162461bcd60e51b8152602060048201526012602482015271125b5859d94810d251081c995c5d5a5c995960721b6044820152606401610563565b6003810154600a8201805460009190613286906155a8565b80601f01602080910402602001604051908101604052809291908181526020018280546132b2906155a8565b80156132ff5780601f106132d4576101008083540402835291602001916132ff565b820191906000526020600020905b8154815290600101906020018083116132e257829003601f168201915b50505050600c850154600386018b905591925050600a84016133218982615657565b50600087511180613333575060008651115b156134fd5785518751146133835760405162461bcd60e51b81526020600482015260176024820152764d69736d617463682064757269616e732f696d6167657360481b6044820152606401610563565b613391600c85016000614b76565b60005b87518110156134fb5760008882815181106133b1576133b1615592565b602002602001015151116133f95760405162461bcd60e51b815260206004820152600f60248201526e44757269616e20494420656d70747960881b6044820152606401610563565b600087828151811061340d5761340d615592565b6020026020010151511161345d5760405162461bcd60e51b815260206004820152601760248201527644757269616e20696d616765206861736820656d70747960481b6044820152606401610563565b84600c0160405180604001604052808a848151811061347e5761347e615592565b6020026020010151815260200189848151811061349d5761349d615592565b60209081029190910181015190915282546001810184556000938452922081519192600202019081906134d09082615657565b50602082015160018201906134e59082615657565b50505080806134f3906155f8565b915050613394565b505b604080516020810190915260008152838a1461354a578061351d856147f7565b6135268c6147f7565b604051602001613538939291906159f9565b60405160208183030381529060405290505b88805190602001208380519060200120146135865780838a60405160200161357493929190615a73565b60405160208183030381529060405290505b600c85015482146135cd578061359b836147f7565b600c8701546135a9906147f7565b6040516020016135bb93929190615aac565b60405160208183030381529060405290505b6136048b6040518060400160405280601281526020017110985d18da08125b999bc8155c19185d195960721b815250836002614b66565b5050505050505050505050565b600260008551116136575760405162461bcd60e51b815260206004820152601060248201526f11985c9b481251081c995c5d5a5c995960821b6044820152606401610563565b600084511161369c5760405162461bcd60e51b8152602060048201526011602482015270131bd8d85d1a5bdb881c995c5d5a5c9959607a1b6044820152606401610563565b6003856040516136ac9190615576565b90815260405190819003602001902080546136c6906155a8565b15905061370c5760405162461bcd60e51b815260206004820152601460248201527311985c9b48125108185b1c9958591e481d5cd95960621b6044820152606401610563565b6040518060a00160405280868152602001336001600160a01b031681526020018581526020018481526020018381525060038660405161374c9190615576565b908152604051908190036020019020815181906137699082615657565b5060208201516001820180546001600160a01b0319166001600160a01b03909216919091179055604082015160028201906137a49082615657565b50606082015160038201906137b99082615657565b50608091909101516004918201553360009081526020918252604081208054600181018255908252919020016137ef8682615657565b50613859856040518060400160405280600f81526020016e11985c9b48149959da5cdd195c9959608a1b8152506040518060400160405280601c81526020017f4661726d657220726567697374657265642061206e6577206661726d0000000081525060026148ff565b5050505050565b336000908152600d60209081526040808320805482518185028101850190935280835260609460049484015b828210156139385783829060005260206000200180546138ab906155a8565b80601f01602080910402602001604051908101604052809291908181526020018280546138d7906155a8565b80156139245780601f106138f957610100808354040283529160200191613924565b820191906000526020600020905b81548152906001019060200180831161390757829003601f168201915b50505050508152602001906001019061388c565b5050505091505b5090565b600360006006836040516139579190615576565b908152602001604051809103902090506000816000018054613978906155a8565b9050116139975760405162461bcd60e51b8152600401610563906159cb565b6001600582015460ff1660048111156139b2576139b2614c48565b14613a0b5760405162461bcd60e51b815260206004820152602360248201527f4f6e6c79206f7264657265642062617463682063616e2062652063616e63656c6044820152621b195960ea1b6064820152608401610563565b60068101546001600160a01b03163314613a675760405162461bcd60e51b815260206004820152601c60248201527f596f7520646964206e6f74206f726465722074686973206261746368000000006044820152606401610563565b6006810180546001600160a01b03191690556040805160208101909152600081526008820190613a979082615657565b5060058101805460ff19169055604080518082018252600f81526e13dc99195c8810d85b98d95b1b1959608a1b6020808301919091528251808401909352601a83527f5472616465722063616e63656c6c656420746865206f726465720000000000009083015261101a918591906003614b66565b60036000600686604051613b209190615576565b90815260405190819003602001902090506000600582015460ff166004811115613b4c57613b4c614c48565b14613ba35760405162461bcd60e51b815260206004820152602160248201527f4f6e6c7920637265617465642062617463682063616e206265206f72646572656044820152601960fa1b6064820152608401610563565b6000845111613bf45760405162461bcd60e51b815260206004820152601d60248201527f44656c69766572792064657374696e6174696f6e2072657175697265640000006044820152606401610563565b6000600986604051613c069190615576565b908152602001604051809103902090506000816000018054613c27906155a8565b905011613c765760405162461bcd60e51b815260206004820152601c60248201527f547261646572206167656e6379206e6f742072656769737465726564000000006044820152606401610563565b60018101546001600160a01b03163314613cc45760405162461bcd60e51b815260206004820152600f60248201526e4e6f7420796f7572206167656e637960881b6044820152606401610563565b8315613e49576000816003018054613cdb906155a8565b905011613d235760405162461bcd60e51b81526020600482015260166024820152754d697373696e67206578706f7274206c6963656e736560501b6044820152606401610563565b42816004015411613d6f5760405162461bcd60e51b8152602060048201526016602482015275115e1c1bdc9d081b1a58d95b9cd948195e1c1a5c995960521b6044820152606401610563565b6000600383600201604051613d849190615b16565b908152602001604051809103902090506000816003018054613da5906155a8565b905011613df45760405162461bcd60e51b815260206004820152601860248201527f4d697373696e67206661726d20636572746966696361746500000000000000006044820152606401610563565b42816004015411613e475760405162461bcd60e51b815260206004820152601860248201527f4661726d206365727469666963617465206578706972656400000000000000006044820152606401610563565b505b6006820180546001600160a01b0319163317905560088201613e6b8782615657565b50600b8201613e7a8682615657565b5060058201805460ff191660011790556000868686613ec0576040518060400160405280600f81526020016e2c205b4c6f63616c204f726465725d60881b815250613eef565b604051806040016040528060158152602001742c205b4578706f72743a2076616c6964617465645d60581b8152505b604051602001613f0193929190615b22565b60408051601f19818403018152828201909152600d82526c10985d18da0813dc99195c9959609a1b60208301529150610dfc908990836003614b66565b60036000600985604051613f529190615576565b90815260405190819003602001902060018101549091506001600160a01b03163314613fb25760405162461bcd60e51b815260206004820152600f60248201526e4e6f7420796f7572206167656e637960881b6044820152606401610563565b6000845111613ff95760405162461bcd60e51b8152602060048201526013602482015272115e1c1bdc9d0810d251081c995c5d5a5c9959606a1b6044820152606401610563565b4283116140485760405162461bcd60e51b815260206004820152601c60248201527f457870697279206d75737420626520696e2074686520667574757265000000006044820152606401610563565b6000816003018054614059906155a8565b80601f0160208091040260200160405190810160405280929190818152602001828054614085906155a8565b80156140d25780601f106140a7576101008083540402835291602001916140d2565b820191906000526020600020905b8154815290600101906020018083116140b557829003601f168201915b50505050600484015491925050600383016140ed8782615657565b5060048301859055815160009061411f57604051806040016040528060038152602001624e2f4160e81b815250614121565b825b905060008188614130856147f7565b6141398a6147f7565b60405160200161414c9493929190615bac565b60408051601f19818403018152828201909152601a82527f4578706f72742043657274696669636174652055706461746564000000000000602083015291506130a2908a90836003614b56565b336000908152600a60209081526040808320805482518185028101850190935280835260609460039484015b828210156139385783829060005260206000200180546141e4906155a8565b80601f0160208091040260200160405190810160405280929190818152602001828054614210906155a8565b801561425d5780601f106142325761010080835404028352916020019161425d565b820191906000526020600020905b81548152906001019060200180831161424057829003601f168201915b5050505050815260200190600101906141c5565b600260006006836040516142859190615576565b9081526020016040518091039020905060008160000180546142a6906155a8565b9050116142c55760405162461bcd60e51b8152600401610563906159cb565b600581015461010090046001600160a01b031633146143175760405162461bcd60e51b815260206004820152600e60248201526d09cdee840f2deeae440c4c2e8c6d60931b6044820152606401610563565b6000600582015460ff16600481111561433257614332614c48565b1461438d5760405162461bcd60e51b815260206004820152602560248201527f4f6e6c7920756e70726f6365737365642062617463682063616e2062652072656044820152641b5bdd995960da1b6064820152608401610563565b60058101805460ff19166004179055604080518082018252600d81526c10985d18da0811195b195d1959609a1b6020808301919091528251808401909352601e83527f4661726d6572206d61726b65642062617463682061732064656c6574656400009083015261101a918591906002614b66565b600460006006846040516144169190615576565b908152602001604051809103902090506000816000018054614437906155a8565b9050116144565760405162461bcd60e51b815260040161056390615812565b6001600582015460ff16600481111561447157614471614c48565b146144be5760405162461bcd60e51b815260206004820152601e60248201527f4261746368206e6f7420726561647920666f7220636f6c6c656374696f6e00006044820152606401610563565b6007810180546001600160a01b03191633179055600981016144e08482615657565b5060058101805460ff19166002179055604080518082018252600f81526e10985d18da0810dbdb1b1958dd1959608a1b602080830191909152915161452e9287929161269e91889101615c46565b50505050565b336000908152600460209081526040808320805482518185028101850190935280835260609460029484015b8282101561393857838290600052602060002001805461457f906155a8565b80601f01602080910402602001604051908101604052809291908181526020018280546145ab906155a8565b80156145f85780601f106145cd576101008083540402835291602001916145f8565b820191906000526020600020905b8154815290600101906020018083116145db57829003601f168201915b505050505081526020019060010190614560565b336000908152600760209081526040808320805482518185028101850190935280835260609460029484015b82821015613938578382906000526020600020018054614657906155a8565b80601f0160208091040260200160405190810160405280929190818152602001828054614683906155a8565b80156146d05780601f106146a5576101008083540402835291602001916146d0565b820191906000526020600020905b8154815290600101906020018083116146b357829003601f168201915b505050505081526020019060010190614638565b606060018260048111156146fa576146fa614c48565b0361472057505060408051808201909152600581526420b236b4b760d91b602082015290565b600282600481111561473457614734614c48565b0361475b5750506040805180820190915260068152652330b936b2b960d11b602082015290565b600382600481111561476f5761476f614c48565b036147965750506040805180820190915260068152652a3930b232b960d11b602082015290565b60048260048111156147aa576147aa614c48565b036147d45750506040805180820190915260098152684c6f6769737469637360b81b602082015290565b50506040805180820190915260078152662ab735b737bbb760c91b602082015290565b60608160000361481e5750506040805180820190915260018152600360fc1b602082015290565b6000825b80156148485781614832816155f8565b92506148419050600a82615cb4565b9050614822565b6000826001600160401b0381111561486257614862614c8f565b6040519080825280601f01601f19166020018201604052801561488c576020820181803683370190505b5090505b84156148f7576148a1600184615cc8565b92506148ae600a86615ce1565b6148b9906030615cf5565b60f81b8184815181106148ce576148ce615592565b60200101906001600160f81b031916908160001a9053506148f0600a86615cb4565b9450614890565b949350505050565b60058460405161490f9190615576565b90815260200160405180910390206040518060a00160405280336001600160a01b0316815260200183600481111561494957614949614c48565b81526020808201879052604082018690524260609092019190915282546001810184556000938452928190208251600494850290910180546001600160a01b039092166001600160a01b031983168117825592840151939490939284926001600160a81b0319161790600160a01b9084908111156149c9576149c9614c48565b0217905550604082015160018201906149e29082615657565b50606082015160028201906149f79082615657565b506080820151816003015550507fa58b61786ca221afb0dc63e40f6303a7630c2ec4814869abaf1fb1e8fc2f5756843383868642604051614a3d96959493929190615d08565b60405180910390a150505050565b600e84604051614a5b9190615576565b90815260200160405180910390206040518060a00160405280336001600160a01b03168152602001836004811115614a9557614a95614c48565b81526020808201879052604082018690524260609092019190915282546001810184556000938452928190208251600494850290910180546001600160a01b039092166001600160a01b031983168117825592840151939490939284926001600160a81b0319161790600160a01b908490811115614b1557614b15614c48565b021790555060408201516001820190614b2e9082615657565b5060608201516002820190614b439082615657565b5060808201518160030155505050505050565b600b8460405161490f9190615576565b60088460405161490f9190615576565b5080546000825560020290600052602060002090810190614b979190614b9a565b50565b8082111561393f576000614bae8282614bc5565b614bbc600183016000614bc5565b50600201614b9a565b508054614bd1906155a8565b6000825580601f10614be1575050565b601f016020900490600052602060002090810190614b9791905b8082111561393f5760008155600101614bfb565b80356001600160a01b03811681146104e857600080fd5b600060208284031215614c3857600080fd5b614c4182614c0f565b9392505050565b634e487b7160e01b600052602160045260246000fd5b60058110614b9757634e487b7160e01b600052602160045260246000fd5b60208101614c8983614c5e565b91905290565b634e487b7160e01b600052604160045260246000fd5b604051601f8201601f191681016001600160401b0381118282101715614ccd57614ccd614c8f565b604052919050565b600082601f830112614ce657600080fd5b81356001600160401b03811115614cff57614cff614c8f565b614d12601f8201601f1916602001614ca5565b818152846020838601011115614d2757600080fd5b816020850160208301376000918101602001919091529392505050565b600060208284031215614d5657600080fd5b81356001600160401b03811115614d6c57600080fd5b6148f784828501614cd5565b60005b83811015614d93578181015183820152602001614d7b565b50506000910152565b60008151808452614db4816020860160208601614d78565b601f01601f19169290920160200192915050565b600082825180855260208086019550808260051b84010181860160005b84811015614e1357601f19868403018952614e01838351614d9c565b98840198925090830190600101614de5565b5090979650505050505050565b60a081526000614e3360a0830188614dc8565b602083820381850152614e468289614dc8565b8481036040860152875180825282890193509082019060005b81811015614e845784516001600160a01b031683529383019391830191600101614e5f565b50508481036060860152614e988188614dc8565b858103608087015286518082528388019450908301915060005b81811015614ece57845183529383019391830191600101614eb2565b50909a9950505050505050505050565b60a081526000614ef160a0830188614d9c565b8281036020840152614f038188614d9c565b6001600160a01b038716604085015283810360608501529050614f268186614d9c565b9150508260808301529695505050505050565b600080600060608486031215614f4e57600080fd5b83356001600160401b0380821115614f6557600080fd5b614f7187838801614cd5565b94506020860135915080821115614f8757600080fd5b50614f9486828701614cd5565b925050604084013590509250925092565b60008060408385031215614fb857600080fd5b82356001600160401b0380821115614fcf57600080fd5b614fdb86838701614cd5565b93506020850135915080821115614ff157600080fd5b50614ffe85828601614cd5565b9150509250929050565b6000806040838503121561501b57600080fd5b61502483614c0f565b915060208301356005811061503857600080fd5b809150509250929050565b6000806000806080858703121561505957600080fd5b84356001600160401b038082111561507057600080fd5b61507c88838901614cd5565b9550602087013591508082111561509257600080fd5b61509e88838901614cd5565b945060408701359150808211156150b457600080fd5b506150c187828801614cd5565b949793965093946060013593505050565b60006101608083526150e68184018f614d9c565b905082810360208401526150fa818e614d9c565b9050828103604084015261510e818d614d9c565b90508a60608401528281036080840152615128818b614d9c565b905061513389614c5e565b60a083018990526001600160a01b0388811660c0850152871660e08401526001600160a01b0386166101008401528281036101208401526151748186614d9c565b90508281036101408401526151898185614d9c565b9e9d5050505050505050505050505050565b6060815260006151ae6060830186614d9c565b6001600160a01b038516602084015282810360408401526151cf8185614d9c565b9695505050505050565b60006020808301818452808551808352604092508286019150828160051b87010184880160005b8381101561525057888303603f190185528151805187855261522488860182614d9c565b91890151858303868b015291905061523c8183614d9c565b968901969450505090860190600101615200565b509098975050505050505050565b602081526000614c416020830184614d9c565b600082601f83011261528257600080fd5b813560206001600160401b038083111561529e5761529e614c8f565b8260051b6152ad838201614ca5565b93845285810183019383810190888611156152c757600080fd5b84880192505b85831015615303578235848111156152e55760008081fd5b6152f38a87838c0101614cd5565b83525091840191908401906152cd565b98975050505050505050565b600080600080600080600060e0888a03121561532a57600080fd5b87356001600160401b038082111561534157600080fd5b61534d8b838c01614cd5565b985060208a013591508082111561536357600080fd5b61536f8b838c01614cd5565b975060408a0135965060608a013591508082111561538c57600080fd5b6153988b838c01614cd5565b955060808a01359150808211156153ae57600080fd5b6153ba8b838c01614cd5565b945060a08a01359150808211156153d057600080fd5b6153dc8b838c01615271565b935060c08a01359150808211156153f257600080fd5b506153ff8a828b01615271565b91505092959891949750929550565b600080600080600060a0868803121561542657600080fd5b85356001600160401b038082111561543d57600080fd5b61544989838a01614cd5565b965060208801359550604088013591508082111561546657600080fd5b61547289838a01614cd5565b9450606088013591508082111561548857600080fd5b61549489838a01615271565b935060808801359150808211156154aa57600080fd5b506154b788828901615271565b9150509295509295909350565b602081526000614c416020830184614dc8565b600080600080608085870312156154ed57600080fd5b84356001600160401b038082111561550457600080fd5b61551088838901614cd5565b9550602087013591508082111561552657600080fd5b61553288838901614cd5565b9450604087013591508082111561554857600080fd5b5061555587828801614cd5565b9250506060850135801515811461556b57600080fd5b939692955090935050565b60008251615588818460208701614d78565b9190910192915050565b634e487b7160e01b600052603260045260246000fd5b600181811c908216806155bc57607f821691505b6020821081036155dc57634e487b7160e01b600052602260045260246000fd5b50919050565b634e487b7160e01b600052601160045260246000fd5b60006001820161560a5761560a6155e2565b5060010190565b601f82111561101a57600081815260208120601f850160051c810160208610156156385750805b601f850160051c820191505b8181101561143757828155600101615644565b81516001600160401b0381111561567057615670614c8f565b6156848161567e84546155a8565b84615611565b602080601f8311600181146156b957600084156156a15750858301515b600019600386901b1c1916600185901b178555611437565b600085815260208120601f198616915b828110156156e8578886015182559484019460019091019084016156c9565b50858210156157065787850151600019600388901b60f8161c191681555b5050505050600190811b01905550565b60008551615728818460208a01614d78565b808301905061205b60f01b8082528651615749816002850160208b01614d78565b6b02e903ab83230ba3290169f160a51b60029390910192830152855161577681600e850160208a01614d78565b600e9201918201528351615791816010840160208801614d78565b605d60f81b601092909101918201526011019695505050505050565b6f021b932b0ba32b21030b3b2b731bc9d160851b8152600083516157d8816010850160208801614d78565b6d0161022bc3837b93a1021a4a21d160951b601091840191820152835161580681601e840160208801614d78565b01601e01949350505050565b6020808252600f908201526e10985d18da081b9bdd08199bdd5b99608a1b604082015260600190565b60008154615848816155a8565b600182811680156158605760018114615875576158a4565b60ff19841687528215158302870194506158a4565b8560005260208060002060005b8581101561589b5781548a820152908401908201615882565b50505082870194505b5050505092915050565b7102637b3b4b9ba34b1b99031b7b6b830b73c960751b815260006158d5601283018461583b565b73040c8cad8d2eccae4cac840e8d0ca40c4c2e8c6d60631b81526014019392505050565b818103615904575050565b61590e82546155a8565b6001600160401b0381111561592557615925614c8f565b6159338161567e84546155a8565b6000601f821160018114615967576000831561594f5750848201545b600019600385901b1c1916600184901b178455613859565b600085815260209020601f19841690600086815260209020845b838110156159a15782860154825560019586019590910190602001615981565b50858310156157065793015460001960f8600387901b161c19169092555050600190811b01905550565b60208082526014908201527310985d18da08191bd95cc81b9bdd08195e1a5cdd60621b604082015260600190565b60008451615a0b818460208901614d78565b69028bab0b73a34ba3c9d160b51b9083019081528451615a3281600a840160208901614d78565b63010169f160e51b600a92909101918201528351615a5781600e840160208801614d78565b61016160f51b600e929091019182015260100195945050505050565b60008451615a85818460208901614d78565b69024b6b0b3b2a1a4a21d160b51b9083019081528451615a3281600a840160208901614d78565b60008451615abe818460208901614d78565b680223ab934b0b7399d160bd1b9083019081528451615ae4816009840160208901614d78565b63010169f160e51b600992909101918201528351615b0981600d840160208801614d78565b01600d0195945050505050565b6000614c41828461583b565b7f4261746368206f726465726564206279206167656e6379200000000000000000815260008451615b5a816018850160208901614d78565b6e016102232b634bb32b93c903a379d1608d1b6018918401918201528451615b89816027840160208901614d78565b8451910190615b9f816027840160208801614d78565b0160270195945050505050565b64021a4a21d160dd1b815260008551615bcc816005850160208a01614d78565b808301905063010169f160e51b8060058301528651615bf2816009850160208b01614d78565b690161022bc3834b93c9d160b51b600993909101928301528551615c1d816013850160208a01614d78565b60139201918201528351615c38816017840160208801614d78565b016017019695505050505050565b7102637b3b4b9ba34b1b99031b7b6b830b73c960751b815260008251615c73816012850160208701614d78565b73040c6ded8d8cac6e8cac840e8d0ca40c4c2e8c6d60631b6012939091019283015250602601919050565b634e487b7160e01b600052601260045260246000fd5b600082615cc357615cc3615c9e565b500490565b81810381811115615cdb57615cdb6155e2565b92915050565b600082615cf057615cf0615c9e565b500690565b80820180821115615cdb57615cdb6155e2565b60c081526000615d1b60c0830189614d9c565b6001600160a01b0388166020840152615d3387614c5e565b8660408401528281036060840152615d4b8187614d9c565b90508281036080840152615d5f8186614d9c565b9150508260a083015297965050505050505056fe4661726d657220637265617465642061206e65772064757269616e2062617463684c6f676973746963732070726f76696465722072656769737465726564206120636f6d70616e794e6f206d696c6573746f6e6520686973746f727920666f756e6420666f722074a2646970667358221220bf6bf17d8b5a5f124f8c5a9bb3c7228affb67493c763804bbddfb9111b19bbe364736f6c63430008130033",
  "linkReferences": {},
  "deployedLinkReferences": {}
}