{
  "_format": "hh-sol-artifact-1",
  "contractName": "DurianChain",
  "sourceName": "contracts/DurianChain.sol",
  "abi": [
    {
      "inputs": [],
      "stateMutability": "nonpayable",
      "type": "constructor"
    },
    {
      "anonymous": false,
      "inputs": [
        {
          "indexed": true,
          "internalType": "address",
          "name": "user",
          "type": "address"
        }
      ],
      "name": "AdminRemoved",
      "type": "event"
    },
    {
      "anonymous": false,
      "inputs": [
        {
          "indexed": true,
          "internalType": "address",
          "name": "user",
          "type": "address"
        },
        {
          "indexed": false,
          "internalType": "enum DurianChain.Role",
          "name": "role",
          "type": "uint8"
        }
      ],
      "name": "RoleAssigned",
      "type": "event"
    },
    {
      "anonymous": false,
      "inputs": [
        {
          "indexed": false,
          "internalType": "string",
          "name": "batchId",
          "type": "string"
        },
        {
          "indexed": false,
          "internalType": "address",
          "name": "actor",
          "type": "address"
        },
        {
          "indexed": false,
          "internalType": "enum DurianChain.Role",
          "name": "role",
          "type": "uint8"
        },
        {
          "indexed": false,
          "internalType": "string",
          "name": "action",
          "type": "string"
        },
        {
          "indexed": false,
          "internalType": "string",
          "name": "description",
          "type": "string"
        },
        {
          "indexed": false,
          "internalType": "uint256",
          "name": "timestamp",
          "type": "uint256"
        }
      ],
      "name": "TransitionLogged",
      "type": "event"
    },
    {
      "inputs": [
        {
          "internalType": "address",
          "name": "user",
          "type": "address"
        },
        {
          "internalType": "enum DurianChain.Role",
          "name": "role",
          "type": "uint8"
        }
      ],
      "name": "assignRole",
      "outputs": [],
      "stateMutability": "nonpayable",
      "type": "function"
    },
    {
      "inputs": [
        {
          "internalType": "string",
          "name": "batchId",
          "type": "string"
        }
      ],
      "name": "cancelOrder",
      "outputs": [],
      "stateMutability": "nonpayable",
      "type": "function"
    },
    {
      "inputs": [
        {
          "internalType": "string",
          "name": "batchId",
          "type": "string"
        }
      ],
      "name": "collectBatch",
      "outputs": [],
      "stateMutability": "nonpayable",
      "type": "function"
    },
    {
      "inputs": [
        {
          "internalType": "string",
          "name": "batchId",
          "type": "string"
        }
      ],
      "name": "confirmDelivery",
      "outputs": [],
      "stateMutability": "nonpayable",
      "type": "function"
    },
    {
      "inputs": [
        {
          "internalType": "string",
          "name": "batchId",
          "type": "string"
        },
        {
          "internalType": "string",
          "name": "variety",
          "type": "string"
        },
        {
          "internalType": "uint256",
          "name": "quantity",
          "type": "uint256"
        },
        {
          "internalType": "string",
          "name": "farmId",
          "type": "string"
        },
        {
          "internalType": "string",
          "name": "batchImageCID",
          "type": "string"
        },
        {
          "internalType": "string[]",
          "name": "durianIds",
          "type": "string[]"
        },
        {
          "internalType": "string[]",
          "name": "imageHashes",
          "type": "string[]"
        }
      ],
      "name": "createBatch",
      "outputs": [],
      "stateMutability": "nonpayable",
      "type": "function"
    },
    {
      "inputs": [
        {
          "internalType": "string",
          "name": "agencyId",
          "type": "string"
        },
        {
          "internalType": "string",
          "name": "agencyName",
          "type": "string"
        },
        {
          "internalType": "string",
          "name": "exportLicenseCID",
          "type": "string"
        },
        {
          "internalType": "uint256",
          "name": "exportLicenseExpiry",
          "type": "uint256"
        }
      ],
      "name": "createTraderAgency",
      "outputs": [],
      "stateMutability": "nonpayable",
      "type": "function"
    },
    {
      "inputs": [
        {
          "internalType": "string",
          "name": "batchId",
          "type": "string"
        }
      ],
      "name": "getBatchById",
      "outputs": [
        {
          "internalType": "string",
          "name": "",
          "type": "string"
        },
        {
          "internalType": "string",
          "name": "",
          "type": "string"
        },
        {
          "internalType": "string",
          "name": "",
          "type": "string"
        },
        {
          "internalType": "uint256",
          "name": "",
          "type": "uint256"
        },
        {
          "internalType": "string",
          "name": "",
          "type": "string"
        },
        {
          "internalType": "enum DurianChain.Status",
          "name": "",
          "type": "uint8"
        },
        {
          "internalType": "address",
          "name": "",
          "type": "address"
        },
        {
          "internalType": "address",
          "name": "",
          "type": "address"
        },
        {
          "internalType": "address",
          "name": "",
          "type": "address"
        },
        {
          "internalType": "string",
          "name": "",
          "type": "string"
        },
        {
          "internalType": "string",
          "name": "",
          "type": "string"
        }
      ],
      "stateMutability": "view",
      "type": "function"
    },
    {
      "inputs": [
        {
          "internalType": "string",
          "name": "batchId",
          "type": "string"
        }
      ],
      "name": "getBatchMilestone",
      "outputs": [
        {
          "internalType": "string[]",
          "name": "actions",
          "type": "string[]"
        },
        {
          "internalType": "string[]",
          "name": "descriptions",
          "type": "string[]"
        },
        {
          "internalType": "address[]",
          "name": "actors",
          "type": "address[]"
        },
        {
          "internalType": "string[]",
          "name": "roleNames",
          "type": "string[]"
        },
        {
          "internalType": "uint256[]",
          "name": "timestamps",
          "type": "uint256[]"
        }
      ],
      "stateMutability": "view",
      "type": "function"
    },
    {
      "inputs": [
        {
          "internalType": "string",
          "name": "batchId",
          "type": "string"
        }
      ],
      "name": "getDuriansByBatchId",
      "outputs": [
        {
          "components": [
            {
              "internalType": "string",
              "name": "id",
              "type": "string"
            },
            {
              "internalType": "string",
              "name": "imageHash",
              "type": "string"
            }
          ],
          "internalType": "struct DurianChain.Durian[]",
          "name": "",
          "type": "tuple[]"
        }
      ],
      "stateMutability": "view",
      "type": "function"
    },
    {
      "inputs": [
        {
          "internalType": "string",
          "name": "farmId",
          "type": "string"
        }
      ],
      "name": "getFarmById",
      "outputs": [
        {
          "internalType": "string",
          "name": "",
          "type": "string"
        },
        {
          "internalType": "string",
          "name": "",
          "type": "string"
        },
        {
          "internalType": "address",
          "name": "",
          "type": "address"
        },
        {
          "internalType": "string",
          "name": "",
          "type": "string"
        },
        {
          "internalType": "uint256",
          "name": "",
          "type": "uint256"
        }
      ],
      "stateMutability": "view",
      "type": "function"
    },
    {
      "inputs": [
        {
          "internalType": "string",
          "name": "farmId",
          "type": "string"
        }
      ],
      "name": "getFarmMilestone",
      "outputs": [
        {
          "internalType": "string[]",
          "name": "actions",
          "type": "string[]"
        },
        {
          "internalType": "string[]",
          "name": "descriptions",
          "type": "string[]"
        },
        {
          "internalType": "address[]",
          "name": "actors",
          "type": "address[]"
        },
        {
          "internalType": "string[]",
          "name": "roleNames",
          "type": "string[]"
        },
        {
          "internalType": "uint256[]",
          "name": "timestamps",
          "type": "uint256[]"
        }
      ],
      "stateMutability": "view",
      "type": "function"
    },
    {
      "inputs": [
        {
          "internalType": "string",
          "name": "companyId",
          "type": "string"
        }
      ],
      "name": "getLogisticsById",
      "outputs": [
        {
          "internalType": "string",
          "name": "",
          "type": "string"
        },
        {
          "internalType": "address",
          "name": "",
          "type": "address"
        },
        {
          "internalType": "string",
          "name": "",
          "type": "string"
        }
      ],
      "stateMutability": "view",
      "type": "function"
    },
    {
      "inputs": [
        {
          "internalType": "string",
          "name": "companyId",
          "type": "string"
        }
      ],
      "name": "getLogisticsMilestone",
      "outputs": [
        {
          "internalType": "string[]",
          "name": "actions",
          "type": "string[]"
        },
        {
          "internalType": "string[]",
          "name": "descriptions",
          "type": "string[]"
        },
        {
          "internalType": "address[]",
          "name": "actors",
          "type": "address[]"
        },
        {
          "internalType": "string[]",
          "name": "roleNames",
          "type": "string[]"
        },
        {
          "internalType": "uint256[]",
          "name": "timestamps",
          "type": "uint256[]"
        }
      ],
      "stateMutability": "view",
      "type": "function"
    },
    {
      "inputs": [],
      "name": "getMyBatchIds",
      "outputs": [
        {
          "internalType": "string[]",
          "name": "",
          "type": "string[]"
        }
      ],
      "stateMutability": "view",
      "type": "function"
    },
    {
      "inputs": [],
      "name": "getMyFarmIds",
      "outputs": [
        {
          "internalType": "string[]",
          "name": "",
          "type": "string[]"
        }
      ],
      "stateMutability": "view",
      "type": "function"
    },
    {
      "inputs": [],
      "name": "getMyLogisticsCompanyIds",
      "outputs": [
        {
          "internalType": "string[]",
          "name": "",
          "type": "string[]"
        }
      ],
      "stateMutability": "view",
      "type": "function"
    },
    {
      "inputs": [],
      "name": "getMyRoleAsString",
      "outputs": [
        {
          "internalType": "string",
          "name": "",
          "type": "string"
        }
      ],
      "stateMutability": "view",
      "type": "function"
    },
    {
      "inputs": [],
      "name": "getMyTraderAgencyId",
      "outputs": [
        {
          "internalType": "string",
          "name": "",
          "type": "string"
        }
      ],
      "stateMutability": "view",
      "type": "function"
    },
    {
      "inputs": [
        {
          "internalType": "string",
          "name": "agencyId",
          "type": "string"
        }
      ],
      "name": "getTraderAgencyById",
      "outputs": [
        {
          "internalType": "string",
          "name": "",
          "type": "string"
        },
        {
          "internalType": "string",
          "name": "",
          "type": "string"
        },
        {
          "internalType": "address",
          "name": "",
          "type": "address"
        },
        {
          "internalType": "string",
          "name": "",
          "type": "string"
        },
        {
          "internalType": "uint256",
          "name": "",
          "type": "uint256"
        }
      ],
      "stateMutability": "view",
      "type": "function"
    },
    {
      "inputs": [
        {
          "internalType": "string",
          "name": "agencyId",
          "type": "string"
        }
      ],
      "name": "getTraderAgencyMilestone",
      "outputs": [
        {
          "internalType": "string[]",
          "name": "actions",
          "type": "string[]"
        },
        {
          "internalType": "string[]",
          "name": "descriptions",
          "type": "string[]"
        },
        {
          "internalType": "address[]",
          "name": "actors",
          "type": "address[]"
        },
        {
          "internalType": "string[]",
          "name": "roleNames",
          "type": "string[]"
        },
        {
          "internalType": "uint256[]",
          "name": "timestamps",
          "type": "uint256[]"
        }
      ],
      "stateMutability": "view",
      "type": "function"
    },
    {
      "inputs": [
        {
          "internalType": "address",
          "name": "user",
          "type": "address"
        }
      ],
      "name": "getUserRole",
      "outputs": [
        {
          "internalType": "enum DurianChain.Role",
          "name": "",
          "type": "uint8"
        }
      ],
      "stateMutability": "view",
      "type": "function"
    },
    {
      "inputs": [
        {
          "internalType": "address",
          "name": "",
          "type": "address"
        }
      ],
      "name": "isAdmin",
      "outputs": [
        {
          "internalType": "bool",
          "name": "",
          "type": "bool"
        }
      ],
      "stateMutability": "view",
      "type": "function"
    },
    {
      "inputs": [
        {
          "internalType": "string",
          "name": "batchId",
          "type": "string"
        },
        {
          "internalType": "string",
          "name": "agencyId",
          "type": "string"
        },
        {
          "internalType": "string",
          "name": "deliveryDestination",
          "type": "string"
        },
        {
          "internalType": "bool",
          "name": "isExport",
          "type": "bool"
        }
      ],
      "name": "orderBatch",
      "outputs": [],
      "stateMutability": "nonpayable",
      "type": "function"
    },
    {
      "inputs": [
        {
          "internalType": "string",
          "name": "farmId",
          "type": "string"
        },
        {
          "internalType": "string",
          "name": "location",
          "type": "string"
        },
        {
          "internalType": "string",
          "name": "certificateCID",
          "type": "string"
        },
        {
          "internalType": "uint256",
          "name": "certificateExpiry",
          "type": "uint256"
        }
      ],
      "name": "registerFarm",
      "outputs": [],
      "stateMutability": "nonpayable",
      "type": "function"
    },
    {
      "inputs": [
        {
          "internalType": "string",
          "name": "companyId",
          "type": "string"
        },
        {
          "internalType": "string",
          "name": "location",
          "type": "string"
        }
      ],
      "name": "registerLogisticsCompany",
      "outputs": [],
      "stateMutability": "nonpayable",
      "type": "function"
    },
    {
      "inputs": [
        {
          "internalType": "address",
          "name": "user",
          "type": "address"
        }
      ],
      "name": "removeAdmin",
      "outputs": [],
      "stateMutability": "nonpayable",
      "type": "function"
    },
    {
      "inputs": [
        {
          "internalType": "string",
          "name": "batchId",
          "type": "string"
        }
      ],
      "name": "removeBatch",
      "outputs": [],
      "stateMutability": "nonpayable",
      "type": "function"
    },
    {
      "inputs": [
        {
          "internalType": "address",
          "name": "",
          "type": "address"
        }
      ],
      "name": "roles",
      "outputs": [
        {
          "internalType": "enum DurianChain.Role",
          "name": "",
          "type": "uint8"
        }
      ],
      "stateMutability": "view",
      "type": "function"
    },
    {
      "inputs": [],
      "name": "superAdmin",
      "outputs": [
        {
          "internalType": "address",
          "name": "",
          "type": "address"
        }
      ],
      "stateMutability": "view",
      "type": "function"
    },
    {
      "inputs": [
        {
          "internalType": "string",
          "name": "batchId",
          "type": "string"
        },
        {
          "internalType": "uint256",
          "name": "newQuantity",
          "type": "uint256"
        },
        {
          "internalType": "string",
          "name": "newBatchImageCID",
          "type": "string"
        },
        {
          "internalType": "string[]",
          "name": "newDurianIds",
          "type": "string[]"
        },
        {
          "internalType": "string[]",
          "name": "newImageHashes",
          "type": "string[]"
        }
      ],
      "name": "updateBatchInfo",
      "outputs": [],
      "stateMutability": "nonpayable",
      "type": "function"
    },
    {
      "inputs": [
        {
          "internalType": "string",
          "name": "farmId",
          "type": "string"
        },
        {
          "internalType": "string",
          "name": "newCertificateCID",
          "type": "string"
        },
        {
          "internalType": "uint256",
          "name": "newExpiry",
          "type": "uint256"
        }
      ],
      "name": "updateFarmCertificate",
      "outputs": [],
      "stateMutability": "nonpayable",
      "type": "function"
    },
    {
      "inputs": [
        {
          "internalType": "string",
          "name": "newExportCID",
          "type": "string"
        },
        {
          "internalType": "uint256",
          "name": "newExportExpiry",
          "type": "uint256"
        }
      ],
      "name": "updateTraderAgencyCertificate",
      "outputs": [],
      "stateMutability": "nonpayable",
      "type": "function"
    }
  ],
  "bytecode": "0x608060405234801561001057600080fd5b5060008054336001600160a01b0319909116811782558152600160208181526040808420805460ff19908116851790915560029092529092208054909216179055615f4480620000616000396000f3fe608060405234801561001057600080fd5b50600436106101b05760003560e01c80639fb50d55116100ef578063bc54180a11610092578063bc54180a14610425578063c153251e14610438578063c17d44231461044b578063c2558ffd14610460578063d15783df14610473578063f11d77ea14610486578063f68e114114610499578063fc856e38146104a157600080fd5b80639fb50d5514610396578063a4506460146103a9578063a7f97692146103bc578063a8d45109146103cf578063ae50024d146103e4578063b015b5f9146103f7578063b0f41eb11461040a578063b97995a01461041257600080fd5b80634d5fbbe2116101575780634d5fbbe2146102bb578063630a195b146102ce5780636b74306c146102e157806372e855ff146102f457806375b0214814610307578063797f27ff146103315780638f270d5f14610353578063993746421461037357600080fd5b80631785f53c146101b557806324d7806c146101ca578063278208511461020257806329575f6a146102225780632d12d9691461024d5780633270bd0514610271578063373f8b70146102955780633fcabe35146102a8575b600080fd5b6101c86101c3366004614ce3565b6104a9565b005b6101ed6101d8366004614ce3565b60016020526000908152604090205460ff1681565b60405190151581526020015b60405180910390f35b610215610210366004614ce3565b6105a4565b6040516101f99190614d39565b600054610235906001600160a01b031681565b6040516001600160a01b0390911681526020016101f9565b61026061025b366004614e01565b6105c6565b6040516101f9959493929190614edd565b61028461027f366004614e01565b610a63565b6040516101f9959493929190614f9b565b6101c86102a3366004614ff6565b610cba565b6101c86102b6366004615062565b610eda565b6102846102c9366004614e01565b6110c5565b6101c86102dc3660046150c5565b611329565b6101c86102ef366004615100565b611502565b610260610302366004614e01565b611731565b61031a610315366004614e01565b611baf565b6040516101f99b9a9998979695949392919061518f565b61034461033f366004614e01565b611ff1565b6040516101f993929190615258565b610366610361366004614e01565b6121b4565b6040516101f99190615296565b610215610381366004614ce3565b60026020526000908152604090205460ff1681565b6102606103a4366004614e01565b6123ca565b6101c86103b7366004614e01565b61283d565b6102606103ca366004614e01565b612941565b6103d7612db3565b6040516101f9919061531b565b6101c86103f236600461532e565b612eaa565b6101c8610405366004614e01565b61318b565b6103d76132ab565b6101c8610420366004615410565b6132d0565b6101c861043336600461550f565b61378b565b6101c8610446366004615100565b613baa565b610453613dd5565b6040516101f991906155c5565b6101c861046e366004614e01565b613eb9565b6101c86104813660046155d8565b614060565b6101c8610494366004614e01565b614473565b6104536145e3565b6104536146be565b6000546001600160a01b03908116908216036105075760405162461bcd60e51b815260206004820152601860248201527721b0b713ba103932b6b7bb329039bab832b91030b236b4b760411b60448201526064015b60405180910390fd5b6001600160a01b0381166000908152600160208181526040808420805460ff1916905560029091529091205460ff16600481111561054757610547614d05565b0361056d576001600160a01b0381166000908152600260205260409020805460ff191690555b6040516001600160a01b038216907fa3b62bc36326052d97ea62d63c3d60308ed4c3ea8ac079dd8499f1e9c4f80c0f90600090a250565b6001600160a01b03811660009081526002602052604090205460ff165b919050565b606080606080606060006005876040516105e09190615693565b9081526040519081900360200190208054909150806106405760405162461bcd60e51b81526020600482015260286024820152600080516020615eef833981519152604482015267686973206661726d60c01b60648201526084016104fe565b806001600160401b0381111561065857610658614d4c565b60405190808252806020026020018201604052801561068b57816020015b60608152602001906001900390816106765790505b509650806001600160401b038111156106a6576106a6614d4c565b6040519080825280602002602001820160405280156106d957816020015b60608152602001906001900390816106c45790505b509550806001600160401b038111156106f4576106f4614d4c565b60405190808252806020026020018201604052801561071d578160200160208202803683370190505b509450806001600160401b0381111561073857610738614d4c565b60405190808252806020026020018201604052801561076b57816020015b60608152602001906001900390816107565790505b509350806001600160401b0381111561078657610786614d4c565b6040519080825280602002602001820160405280156107af578160200160208202803683370190505b50925060005b81811015610a57578281815481106107cf576107cf6156af565b906000526020600020906004020160010180546107eb906156c5565b80601f0160208091040260200160405190810160405280929190818152602001828054610817906156c5565b80156108645780601f1061083957610100808354040283529160200191610864565b820191906000526020600020905b81548152906001019060200180831161084757829003601f168201915b505050505088828151811061087b5761087b6156af565b6020026020010181905250828181548110610898576108986156af565b906000526020600020906004020160020180546108b4906156c5565b80601f01602080910402602001604051908101604052809291908181526020018280546108e0906156c5565b801561092d5780601f106109025761010080835404028352916020019161092d565b820191906000526020600020905b81548152906001019060200180831161091057829003601f168201915b5050505050878281518110610944576109446156af565b6020026020010181905250828181548110610961576109616156af565b600091825260209091206004909102015486516001600160a01b0390911690879083908110610992576109926156af565b60200260200101906001600160a01b031690816001600160a01b0316815250506109e78382815481106109c7576109c76156af565b6000918252602090912060049091020154600160a01b900460ff166147a1565b8582815181106109f9576109f96156af565b6020026020010181905250828181548110610a1657610a166156af565b906000526020600020906004020160030154848281518110610a3a57610a3a6156af565b602090810291909101015280610a4f81615715565b9150506107b5565b50505091939590929450565b60608060006060600080600387604051610a7d9190615693565b908152602001604051809103902090506000816000018054610a9e906156c5565b905011610ade5760405162461bcd60e51b815260206004820152600e60248201526d11985c9b481b9bdd08199bdd5b9960921b60448201526064016104fe565b600181015460048201548254839260028401926001600160a01b03909116916003850191908590610b0e906156c5565b80601f0160208091040260200160405190810160405280929190818152602001828054610b3a906156c5565b8015610b875780601f10610b5c57610100808354040283529160200191610b87565b820191906000526020600020905b815481529060010190602001808311610b6a57829003601f168201915b50505050509450838054610b9a906156c5565b80601f0160208091040260200160405190810160405280929190818152602001828054610bc6906156c5565b8015610c135780601f10610be857610100808354040283529160200191610c13565b820191906000526020600020905b815481529060010190602001808311610bf657829003601f168201915b50505050509350818054610c26906156c5565b80601f0160208091040260200160405190810160405280929190818152602001828054610c52906156c5565b8015610c9f5780601f10610c7457610100808354040283529160200191610c9f565b820191906000526020600020905b815481529060010190602001808311610c8257829003601f168201915b50505050509150955095509550955095505091939590929450565b60026000600385604051610cce9190615693565b90815260405190819003602001902060018101549091506001600160a01b03163314610d2c5760405162461bcd60e51b815260206004820152600d60248201526c4e6f7420796f7572206661726d60981b60448201526064016104fe565b6000845111610d705760405162461bcd60e51b815260206004820152601060248201526f13995dc810d251081c995c5d5a5c995960821b60448201526064016104fe565b428311610db75760405162461bcd60e51b8152602060048201526015602482015274457870697279206d7573742062652066757475726560581b60448201526064016104fe565b6000816003018054610dc8906156c5565b80601f0160208091040260200160405190810160405280929190818152602001828054610df4906156c5565b8015610e415780601f10610e1657610100808354040283529160200191610e41565b820191906000526020600020905b815481529060010190602001808311610e2457829003601f168201915b5050505060048401549192505060038301610e5c8782615789565b5060048301859055600082610e70836148b4565b88610e7a896148b4565b604051602001610e8d9493929190615842565b60408051601f19818403018152828201909152601382527210d95c9d1a599a58d85d1948155c19185d1959606a1b60208301529150610ed09089908360026149bc565b5050505050505050565b60046000835111610f235760405162461bcd60e51b815260206004820152601360248201527210dbdb5c185b9e481251081c995c5d5a5c9959606a1b60448201526064016104fe565b6000825111610f445760405162461bcd60e51b81526004016104fe906158d9565b600c83604051610f549190615693565b9081526040519081900360200190208054610f6e906156c5565b159050610fb75760405162461bcd60e51b815260206004820152601760248201527610dbdb5c185b9e48125108185b1c9958591e481d5cd959604a1b60448201526064016104fe565b604080516060810182528481523360208201528082018490529051600c90610fe0908690615693565b90815260405190819003602001902081518190610ffd9082615789565b5060208201516001820180546001600160a01b0319166001600160a01b03909216919091179055604082015160028201906110389082615789565b5050336000908152600d602090815260408220805460018101825590835291200190506110658482615789565b506110c0836040518060400160405280601c81526020017f4c6f6769737469637320436f6d70616e79205265676973746572656400000000815250604051806060016040528060278152602001615ec8602791396004614b08565b505050565b60608060006060600080600b876040516110df9190615693565b908152604051908190036020019020546001600160a01b031690508061113a5760405162461bcd60e51b815260206004820152601060248201526f1059d95b98de481b9bdd08199bdd5b9960821b60448201526064016104fe565b6001600160a01b038082166000908152600960205260409020600181015460048201548254929384936002850193909116916003850191859061117c906156c5565b80601f01602080910402602001604051908101604052809291908181526020018280546111a8906156c5565b80156111f55780601f106111ca576101008083540402835291602001916111f5565b820191906000526020600020905b8154815290600101906020018083116111d857829003601f168201915b50505050509450838054611208906156c5565b80601f0160208091040260200160405190810160405280929190818152602001828054611234906156c5565b80156112815780601f1061125657610100808354040283529160200191611281565b820191906000526020600020905b81548152906001019060200180831161126457829003601f168201915b50505050509350818054611294906156c5565b80601f01602080910402602001604051908101604052809291908181526020018280546112c0906156c5565b801561130d5780601f106112e25761010080835404028352916020019161130d565b820191906000526020600020905b8154815290600101906020018083116112f057829003601f168201915b5050505050915096509650965096509650505091939590929450565b6001600160a01b0382166113715760405162461bcd60e51b815260206004820152600f60248201526e496e76616c6964206164647265737360881b60448201526064016104fe565b600081600481111561138557611385614d05565b036113cf5760405162461bcd60e51b815260206004820152601a60248201527943616e6e6f742061737369676e20556e6b6e6f776e20726f6c6560301b60448201526064016104fe565b6001600160a01b03821660009081526002602052604081205460ff1660048111156113fc576113fc614d05565b146114435760405162461bcd60e51b81526020600482015260176024820152765573657220616c726561647920686173206120726f6c6560481b60448201526064016104fe565b6001600160a01b0382166000908152600260205260409020805482919060ff1916600183600481111561147857611478614d05565b0217905550600181600481111561149157611491614d05565b036114bd576001600160a01b0382166000908152600160208190526040909120805460ff191690911790555b816001600160a01b03167f4ac36fa53f167ceb85964be512e01de2a3b8bdb9862f917da079deeeff689b38826040516114f69190614d39565b60405180910390a25050565b6003600085511161154a5760405162461bcd60e51b81526020600482015260126024820152711059d95b98de481251081c995c5d5a5c995960721b60448201526064016104fe565b60008451116115925760405162461bcd60e51b81526020600482015260146024820152731059d95b98de481b985b59481c995c5d5a5c995960621b60448201526064016104fe565b33600090815260096020526040902080546115ac906156c5565b1590506115f05760405162461bcd60e51b8152602060048201526012602482015271105b1c9958591e481c9959da5cdd195c995960721b60448201526064016104fe565b6040805160a081018252868152336020808301829052828401889052606083018790526080830186905260009182526009905291909120815181906116359082615789565b5060208201516001820180546001600160a01b0319166001600160a01b03909216919091179055604082015160028201906116709082615789565b50606082015160038201906116859082615789565b506080820151816004015590505033600b866040516116a49190615693565b908152602001604051809103902060006101000a8154816001600160a01b0302191690836001600160a01b03160217905550600084846040516020016116eb929190615904565b60408051601f19818403018152828201909152600e82526d1059d95b98de4810dc99585d195960921b60208301529150611729908790836003614c13565b505050505050565b60608060608060606000600e8760405161174b9190615693565b9081526040519081900360200190208054909150806117b85760405162461bcd60e51b81526020600482015260356024820152600080516020615eef833981519152604482015274686973206c6f6769737469637320636f6d70616e7960581b60648201526084016104fe565b806001600160401b038111156117d0576117d0614d4c565b60405190808252806020026020018201604052801561180357816020015b60608152602001906001900390816117ee5790505b509650806001600160401b0381111561181e5761181e614d4c565b60405190808252806020026020018201604052801561185157816020015b606081526020019060019003908161183c5790505b509550806001600160401b0381111561186c5761186c614d4c565b604051908082528060200260200182016040528015611895578160200160208202803683370190505b509450806001600160401b038111156118b0576118b0614d4c565b6040519080825280602002602001820160405280156118e357816020015b60608152602001906001900390816118ce5790505b509350806001600160401b038111156118fe576118fe614d4c565b604051908082528060200260200182016040528015611927578160200160208202803683370190505b50925060005b81811015610a5757828181548110611947576119476156af565b90600052602060002090600402016001018054611963906156c5565b80601f016020809104026020016040519081016040528092919081815260200182805461198f906156c5565b80156119dc5780601f106119b1576101008083540402835291602001916119dc565b820191906000526020600020905b8154815290600101906020018083116119bf57829003601f168201915b50505050508882815181106119f3576119f36156af565b6020026020010181905250828181548110611a1057611a106156af565b90600052602060002090600402016002018054611a2c906156c5565b80601f0160208091040260200160405190810160405280929190818152602001828054611a58906156c5565b8015611aa55780601f10611a7a57610100808354040283529160200191611aa5565b820191906000526020600020905b815481529060010190602001808311611a8857829003601f168201915b5050505050878281518110611abc57611abc6156af565b6020026020010181905250828181548110611ad957611ad96156af565b600091825260209091206004909102015486516001600160a01b0390911690879083908110611b0a57611b0a6156af565b60200260200101906001600160a01b031690816001600160a01b031681525050611b3f8382815481106109c7576109c76156af565b858281518110611b5157611b516156af565b6020026020010181905250828181548110611b6e57611b6e6156af565b906000526020600020906004020160030154848281518110611b9257611b926156af565b602090810291909101015280611ba781615715565b91505061192d565b606080606060006060600080600080606080600060068d604051611bd39190615693565b908152602001604051809103902090506000816000018054611bf4906156c5565b905011611c355760405162461bcd60e51b815260206004820152600f60248201526e10985d18da081b9bdd08199bdd5b99608a1b60448201526064016104fe565b600381015460058201546006830154600784015484548594600186019460028701949193600488019360ff8316936001600160a01b0361010090940484169390811692169060088a019060098b01908b90611c8f906156c5565b80601f0160208091040260200160405190810160405280929190818152602001828054611cbb906156c5565b8015611d085780601f10611cdd57610100808354040283529160200191611d08565b820191906000526020600020905b815481529060010190602001808311611ceb57829003601f168201915b50505050509a50898054611d1b906156c5565b80601f0160208091040260200160405190810160405280929190818152602001828054611d47906156c5565b8015611d945780601f10611d6957610100808354040283529160200191611d94565b820191906000526020600020905b815481529060010190602001808311611d7757829003601f168201915b50505050509950888054611da7906156c5565b80601f0160208091040260200160405190810160405280929190818152602001828054611dd3906156c5565b8015611e205780601f10611df557610100808354040283529160200191611e20565b820191906000526020600020905b815481529060010190602001808311611e0357829003601f168201915b50505050509850868054611e33906156c5565b80601f0160208091040260200160405190810160405280929190818152602001828054611e5f906156c5565b8015611eac5780601f10611e8157610100808354040283529160200191611eac565b820191906000526020600020905b815481529060010190602001808311611e8f57829003601f168201915b50505050509650818054611ebf906156c5565b80601f0160208091040260200160405190810160405280929190818152602001828054611eeb906156c5565b8015611f385780601f10611f0d57610100808354040283529160200191611f38565b820191906000526020600020905b815481529060010190602001808311611f1b57829003601f168201915b50505050509150808054611f4b906156c5565b80601f0160208091040260200160405190810160405280929190818152602001828054611f77906156c5565b8015611fc45780601f10611f9957610100808354040283529160200191611fc4565b820191906000526020600020905b815481529060010190602001808311611fa757829003601f168201915b505050505090509b509b509b509b509b509b509b509b509b509b509b505091939597999b90929496989a50565b6060600060606000600c856040516120099190615693565b90815260200160405180910390209050600081600001805461202a906156c5565b9050116120775760405162461bcd60e51b815260206004820152601b60248201527a131bd9da5cdd1a58dcc818dbdb5c185b9e481b9bdd08199bdd5b99602a1b60448201526064016104fe565b6001810154815482916001600160a01b0316906002830190839061209a906156c5565b80601f01602080910402602001604051908101604052809291908181526020018280546120c6906156c5565b80156121135780601f106120e857610100808354040283529160200191612113565b820191906000526020600020905b8154815290600101906020018083116120f657829003601f168201915b50505050509250808054612126906156c5565b80601f0160208091040260200160405190810160405280929190818152602001828054612152906156c5565b801561219f5780601f106121745761010080835404028352916020019161219f565b820191906000526020600020905b81548152906001019060200180831161218257829003601f168201915b50505050509050935093509350509193909250565b606060006006836040516121c89190615693565b908152604051908190036020019020600a0154116122285760405162461bcd60e51b815260206004820152601e60248201527f4e6f2064757269616e7320666f756e6420696e2074686973206261746368000060448201526064016104fe565b6006826040516122389190615693565b9081526020016040518091039020600a01805480602002602001604051908101604052809291908181526020016000905b828210156123bf578382906000526020600020906002020160405180604001604052908160008201805461229c906156c5565b80601f01602080910402602001604051908101604052809291908181526020018280546122c8906156c5565b80156123155780601f106122ea57610100808354040283529160200191612315565b820191906000526020600020905b8154815290600101906020018083116122f857829003601f168201915b5050505050815260200160018201805461232e906156c5565b80601f016020809104026020016040519081016040528092919081815260200182805461235a906156c5565b80156123a75780601f1061237c576101008083540402835291602001916123a7565b820191906000526020600020905b81548152906001019060200180831161238a57829003601f168201915b50505050508152505081526020019060010190612269565b505050509050919050565b60608060608060606000600a876040516123e49190615693565b9081526040519081900360200190208054909150806124465760405162461bcd60e51b815260206004820152602a6024820152600080516020615eef833981519152604482015269686973206167656e637960b01b60648201526084016104fe565b806001600160401b0381111561245e5761245e614d4c565b60405190808252806020026020018201604052801561249157816020015b606081526020019060019003908161247c5790505b509650806001600160401b038111156124ac576124ac614d4c565b6040519080825280602002602001820160405280156124df57816020015b60608152602001906001900390816124ca5790505b509550806001600160401b038111156124fa576124fa614d4c565b604051908082528060200260200182016040528015612523578160200160208202803683370190505b509450806001600160401b0381111561253e5761253e614d4c565b60405190808252806020026020018201604052801561257157816020015b606081526020019060019003908161255c5790505b509350806001600160401b0381111561258c5761258c614d4c565b6040519080825280602002602001820160405280156125b5578160200160208202803683370190505b50925060005b81811015610a57578281815481106125d5576125d56156af565b906000526020600020906004020160010180546125f1906156c5565b80601f016020809104026020016040519081016040528092919081815260200182805461261d906156c5565b801561266a5780601f1061263f5761010080835404028352916020019161266a565b820191906000526020600020905b81548152906001019060200180831161264d57829003601f168201915b5050505050888281518110612681576126816156af565b602002602001018190525082818154811061269e5761269e6156af565b906000526020600020906004020160020180546126ba906156c5565b80601f01602080910402602001604051908101604052809291908181526020018280546126e6906156c5565b80156127335780601f1061270857610100808354040283529160200191612733565b820191906000526020600020905b81548152906001019060200180831161271657829003601f168201915b505050505087828151811061274a5761274a6156af565b6020026020010181905250828181548110612767576127676156af565b600091825260209091206004909102015486516001600160a01b0390911690879083908110612798576127986156af565b60200260200101906001600160a01b031690816001600160a01b0316815250506127cd8382815481106109c7576109c76156af565b8582815181106127df576127df6156af565b60200260200101819052508281815481106127fc576127fc6156af565b906000526020600020906004020160030154848281518110612820576128206156af565b60209081029190910101528061283581615715565b9150506125bb565b600460006006836040516128519190615693565b90815260405190819003602001902090506002600582015460ff16600481111561287d5761287d614d05565b146128ca5760405162461bcd60e51b815260206004820152601d60248201527f4261746368206d75737420626520636f6c6c656374656420666972737400000060448201526064016104fe565b60058101805460ff19166003179055604080518082018252600f81526e10985d18da0811195b1a5d995c9959608a1b6020808301919091528251808401909352601d83527f4c6f676973746963732064656c69766572656420746865206261746368000000908301526110c0918591906004614c23565b6060806060806060600060088760405161295b9190615693565b9081526040519081900360200190208054909150806129bc5760405162461bcd60e51b81526020600482015260296024820152600080516020615eef8339815191526044820152680d0d2e640c4c2e8c6d60bb1b60648201526084016104fe565b806001600160401b038111156129d4576129d4614d4c565b604051908082528060200260200182016040528015612a0757816020015b60608152602001906001900390816129f25790505b509650806001600160401b03811115612a2257612a22614d4c565b604051908082528060200260200182016040528015612a5557816020015b6060815260200190600190039081612a405790505b509550806001600160401b03811115612a7057612a70614d4c565b604051908082528060200260200182016040528015612a99578160200160208202803683370190505b509450806001600160401b03811115612ab457612ab4614d4c565b604051908082528060200260200182016040528015612ae757816020015b6060815260200190600190039081612ad25790505b509350806001600160401b03811115612b0257612b02614d4c565b604051908082528060200260200182016040528015612b2b578160200160208202803683370190505b50925060005b81811015610a5757828181548110612b4b57612b4b6156af565b90600052602060002090600402016001018054612b67906156c5565b80601f0160208091040260200160405190810160405280929190818152602001828054612b93906156c5565b8015612be05780601f10612bb557610100808354040283529160200191612be0565b820191906000526020600020905b815481529060010190602001808311612bc357829003601f168201915b5050505050888281518110612bf757612bf76156af565b6020026020010181905250828181548110612c1457612c146156af565b90600052602060002090600402016002018054612c30906156c5565b80601f0160208091040260200160405190810160405280929190818152602001828054612c5c906156c5565b8015612ca95780601f10612c7e57610100808354040283529160200191612ca9565b820191906000526020600020905b815481529060010190602001808311612c8c57829003601f168201915b5050505050878281518110612cc057612cc06156af565b6020026020010181905250828181548110612cdd57612cdd6156af565b600091825260209091206004909102015486516001600160a01b0390911690879083908110612d0e57612d0e6156af565b60200260200101906001600160a01b031690816001600160a01b031681525050612d438382815481106109c7576109c76156af565b858281518110612d5557612d556156af565b6020026020010181905250828181548110612d7257612d726156af565b906000526020600020906004020160030154848281518110612d9657612d966156af565b602090810291909101015280612dab81615715565b915050612b31565b3360009081526009602052604081208054606092908290612dd3906156c5565b905011612e195760405162461bcd60e51b8152602060048201526014602482015273139bc81859d95b98de481c9959da5cdd195c995960621b60448201526064016104fe565b80548190612e26906156c5565b80601f0160208091040260200160405190810160405280929190818152602001828054612e52906156c5565b8015612e9f5780601f10612e7457610100808354040283529160200191612e9f565b820191906000526020600020905b815481529060010190602001808311612e8257829003601f168201915b505050505091505090565b3360009081526009602052604081208054600392908290612eca906156c5565b905011612f115760405162461bcd60e51b81526020600482015260156024820152741059d95b98de481b9bdd081c9959da5cdd195c9959605a1b60448201526064016104fe565b6000845111612f585760405162461bcd60e51b8152602060048201526013602482015272115e1c1bdc9d0810d251081c995c5d5a5c9959606a1b60448201526064016104fe565b428311612fa75760405162461bcd60e51b815260206004820152601c60248201527f457870697279206d75737420626520696e20746865206675747572650000000060448201526064016104fe565b6000816003018054612fb8906156c5565b80601f0160208091040260200160405190810160405280929190818152602001828054612fe4906156c5565b80156130315780601f1061300657610100808354040283529160200191613031565b820191906000526020600020905b81548152906001019060200180831161301457829003601f168201915b505050506004840154919250506003830161304c8782615789565b5060048301859055815160009061307e57604051806040016040528060038152602001624e2f4160e81b815250613080565b825b8761308a846148b4565b613093896148b4565b6040516020016130a69493929190615969565b60405160208183030381529060405290506131828460000180546130c9906156c5565b80601f01602080910402602001604051908101604052809291908181526020018280546130f5906156c5565b80156131425780601f1061311757610100808354040283529160200191613142565b820191906000526020600020905b81548152906001019060200180831161312557829003601f168201915b50505050506040518060400160405280601a815260200179115e1c1bdc9d0810d95c9d1a599a58d85d1948155c19185d195960321b815250836003614c13565b50505050505050565b6004600060068360405161319f9190615693565b90815260405190819003602001902090506001600582015460ff1660048111156131cb576131cb614d05565b146132185760405162461bcd60e51b815260206004820152601e60248201527f4261746368206e6f7420726561647920666f7220636f6c6c656374696f6e000060448201526064016104fe565b6007810180546001600160a01b031916331790556005810180546002919060ff191660018302179055506110c0836040518060400160405280600f81526020016e10985d18da0810dbdb1b1958dd1959608a1b8152506040518060400160405280601d81526020017f4c6f6769737469637320636f6c6c6563746564207468652062617463680000008152506004614c23565b3360009081526002602052604090205460609060ff166132ca816147a1565b91505090565b600260008851116133175760405162461bcd60e51b815260206004820152601160248201527010985d18da081251081c995c5d5a5c9959607a1b60448201526064016104fe565b600087511161335d5760405162461bcd60e51b8152602060048201526012602482015271119bdbd9081b985b59481c995c5d5a5c995960721b60448201526064016104fe565b6000861161337d5760405162461bcd60e51b81526004016104fe90615a03565b60008451116133c95760405162461bcd60e51b815260206004820152601860248201527710985d18da081a5b5859d94810d251081c995c5d5a5c995960421b60448201526064016104fe565b60006003866040516133db9190615693565b90815260405190819003602001902080546133f5906156c5565b90501161343a5760405162461bcd60e51b815260206004820152601360248201527211985c9b481b9bdd081c9959da5cdd195c9959606a1b60448201526064016104fe565b336001600160a01b03166003866040516134549190615693565b908152604051908190036020019020600101546001600160a01b0316146134b85760405162461bcd60e51b8152602060048201526018602482015277596f7520646f206e6f74206f776e2074686973206661726d60401b60448201526064016104fe565b6006886040516134c89190615693565b9081526020016040518091039020600301546000146135205760405162461bcd60e51b8152602060048201526014602482015273426174636820616c72656164792065786973747360601b60448201526064016104fe565b81518351146135415760405162461bcd60e51b81526004016104fe90615a31565b60006006896040516135539190615693565b90815260405190819003602001902090508061356f8a82615789565b506001810161357e8982615789565b506002810161358d8782615789565b5060038082018890556040516135a4908890615693565b90815260200160405180910390206002018160040190816135c59190615a62565b506005810180546001600160a81b0319163361010002179055600881016135ec8682615789565b5060005b845181101561370b57600085828151811061360d5761360d6156af565b602002602001015151116136335760405162461bcd60e51b81526004016104fe90615b2e565b6000848281518110613647576136476156af565b6020026020010151511161366d5760405162461bcd60e51b81526004016104fe90615b57565b81600a01604051806040016040528087848151811061368e5761368e6156af565b602002602001015181526020018684815181106136ad576136ad6156af565b60209081029190910181015190915282546001810184556000938452922081519192600202019081906136e09082615789565b50602082015160018201906136f59082615789565b505050808061370390615715565b9150506135f0565b50336000908152600760209081526040822080546001810182559083529120016137358a82615789565b50613780896040518060400160405280600d81526020016c10985d18da0810dc99585d1959609a1b815250604051806060016040528060218152602001615ea7602191396002614c23565b505050505050505050565b6002600060068760405161379f9190615693565b9081526020016040518091039020905060008160000180546137c0906156c5565b9050116137df5760405162461bcd60e51b81526004016104fe90615b88565b600581015461010090046001600160a01b031633146138105760405162461bcd60e51b81526004016104fe90615bb6565b6000600582015460ff16600481111561382b5761382b614d05565b1461389a5760405162461bcd60e51b815260206004820152603960248201527f4261746368206d75737420626520696e2027437265617465642720737461746560448201527820286e6f74206f726465726564206f722064656c657465642960381b60648201526084016104fe565b600086116138ba5760405162461bcd60e51b81526004016104fe90615a03565b60008551116139005760405162461bcd60e51b8152602060048201526012602482015271125b5859d94810d251081c995c5d5a5c995960721b60448201526064016104fe565b600381015460088201805460009190613918906156c5565b80601f0160208091040260200160405190810160405280929190818152602001828054613944906156c5565b80156139915780601f1061396657610100808354040283529160200191613991565b820191906000526020600020905b81548152906001019060200180831161397457829003601f168201915b50505050600a850154600386018b905591925050600884016139b38982615789565b506000875111806139c5575060008651115b15613b195785518751146139eb5760405162461bcd60e51b81526004016104fe90615a31565b6139f9600a85016000614c33565b60005b8751811015613b17576000888281518110613a1957613a196156af565b60200260200101515111613a3f5760405162461bcd60e51b81526004016104fe90615b2e565b6000878281518110613a5357613a536156af565b60200260200101515111613a795760405162461bcd60e51b81526004016104fe90615b57565b84600a0160405180604001604052808a8481518110613a9a57613a9a6156af565b60200260200101518152602001898481518110613ab957613ab96156af565b6020908102919091018101519091528254600181018455600093845292208151919260020201908190613aec9082615789565b5060208201516001820190613b019082615789565b5050508080613b0f90615715565b9150506139fc565b505b6000613b24846148b4565b613b2d8b6148b4565b848b613b38866148b4565b600a8a0154613b46906148b4565b604051602001613b5b96959493929190615bde565b60408051601f19818403018152828201909152601282527110985d18da08125b999bc8155c19185d195960721b60208301529150613b9d908c90836002614c23565b5050505050505050505050565b60026000855111613bf05760405162461bcd60e51b815260206004820152601060248201526f11985c9b481251081c995c5d5a5c995960821b60448201526064016104fe565b6000845111613c115760405162461bcd60e51b81526004016104fe906158d9565b600385604051613c219190615693565b9081526040519081900360200190208054613c3b906156c5565b159050613c815760405162461bcd60e51b815260206004820152601460248201527311985c9b48125108185b1c9958591e481d5cd95960621b60448201526064016104fe565b6040518060a00160405280868152602001336001600160a01b0316815260200185815260200184815260200183815250600386604051613cc19190615693565b90815260405190819003602001902081518190613cde9082615789565b5060208201516001820180546001600160a01b0319166001600160a01b0390921691909117905560408201516002820190613d199082615789565b5060608201516003820190613d2e9082615789565b5060809190910151600491820155336000908152602091825260408120805460018101825590825291902001613d648682615789565b50613dce856040518060400160405280600f81526020016e11985c9b48149959da5cdd195c9959608a1b8152506040518060400160405280601c81526020017f4661726d657220726567697374657265642061206e6577206661726d0000000081525060026149bc565b5050505050565b336000908152600d60209081526040808320805482518185028101850190935280835260609492939192909184015b82821015613eb0578382906000526020600020018054613e23906156c5565b80601f0160208091040260200160405190810160405280929190818152602001828054613e4f906156c5565b8015613e9c5780601f10613e7157610100808354040283529160200191613e9c565b820191906000526020600020905b815481529060010190602001808311613e7f57829003601f168201915b505050505081526020019060010190613e04565b50505050905090565b60036000600683604051613ecd9190615693565b908152602001604051809103902090506000816000018054613eee906156c5565b905011613f0d5760405162461bcd60e51b81526004016104fe90615b88565b6001600582015460ff166004811115613f2857613f28614d05565b14613f815760405162461bcd60e51b815260206004820152602360248201527f4f6e6c79206f7264657265642062617463682063616e2062652063616e63656c6044820152621b195960ea1b60648201526084016104fe565b60068101546001600160a01b03163314613fdd5760405162461bcd60e51b815260206004820152601c60248201527f596f7520646964206e6f74206f7264657220746869732062617463680000000060448201526064016104fe565b6006810180546001600160a01b031916905560058101805460ff19169055604080518082018252600f81526e13dc99195c8810d85b98d95b1b1959608a1b6020808301919091528251808401909352601a8352792a3930b232b91031b0b731b2b63632b2103a34329037b93232b960311b908301526110c0918591906003614c23565b600360006006866040516140749190615693565b90815260405190819003602001902090506000600582015460ff1660048111156140a0576140a0614d05565b146140f75760405162461bcd60e51b815260206004820152602160248201527f4f6e6c7920637265617465642062617463682063616e206265206f72646572656044820152601960fa1b60648201526084016104fe565b60008451116141485760405162461bcd60e51b815260206004820152601d60248201527f44656c69766572792064657374696e6174696f6e20726571756972656400000060448201526064016104fe565b33600090815260096020526040812080549091908290614167906156c5565b9050116141b65760405162461bcd60e51b815260206004820152601c60248201527f547261646572206167656e6379206e6f7420726567697374657265640000000060448201526064016104fe565b855160208701206040516141cb908390615d40565b6040518091039020146142125760405162461bcd60e51b815260206004820152600f60248201526e4e6f7420796f7572206167656e637960881b60448201526064016104fe565b831561438d576000816003018054614229906156c5565b9050116142715760405162461bcd60e51b81526020600482015260166024820152754d697373696e67206578706f7274206c6963656e736560501b60448201526064016104fe565b428160040154116142bd5760405162461bcd60e51b8152602060048201526016602482015275115e1c1bdc9d081b1a58d95b9cd948195e1c1a5c995960521b60448201526064016104fe565b60006003836002016040516142d29190615d40565b9081526020016040518091039020905060008160030180546142f3906156c5565b90501161433d5760405162461bcd60e51b81526020600482015260186024820152774d697373696e67206661726d20636572746966696361746560401b60448201526064016104fe565b4281600401541161438b5760405162461bcd60e51b815260206004820152601860248201527711985c9b4818d95c9d1a599a58d85d1948195e1c1a5c995960421b60448201526064016104fe565b505b6006820180546001600160a01b03191633179055600982016143af8682615789565b5060058201805460ff1916600117905560008686866143f5576040518060400160405280600f81526020016e2c205b4c6f63616c204f726465725d60881b815250614424565b604051806040016040528060158152602001742c205b4578706f72743a2076616c6964617465645d60581b8152505b60405160200161443693929190615d4c565b60408051601f19818403018152828201909152600d82526c10985d18da0813dc99195c9959609a1b60208301529150610ed0908990836003614c23565b600260006006836040516144879190615693565b9081526020016040518091039020905060008160000180546144a8906156c5565b9050116144c75760405162461bcd60e51b81526004016104fe90615b88565b600581015461010090046001600160a01b031633146144f85760405162461bcd60e51b81526004016104fe90615bb6565b6000600582015460ff16600481111561451357614513614d05565b1461456e5760405162461bcd60e51b815260206004820152602560248201527f4f6e6c7920756e70726f6365737365642062617463682063616e2062652072656044820152641b5bdd995960da1b60648201526084016104fe565b60058101805460ff19166004179055604080518082018252600d81526c10985d18da0811195b195d1959609a1b6020808301919091528251808401909352601e83527f4661726d6572206d61726b65642062617463682061732064656c657465640000908301526110c0918591906002614c23565b336000908152600460209081526040808320805482518185028101850190935280835260609492939192909184015b82821015613eb0578382906000526020600020018054614631906156c5565b80601f016020809104026020016040519081016040528092919081815260200182805461465d906156c5565b80156146aa5780601f1061467f576101008083540402835291602001916146aa565b820191906000526020600020905b81548152906001019060200180831161468d57829003601f168201915b505050505081526020019060010190614612565b336000908152600760209081526040808320805482518185028101850190935280835260609460029484015b82821015614796578382906000526020600020018054614709906156c5565b80601f0160208091040260200160405190810160405280929190818152602001828054614735906156c5565b80156147825780601f1061475757610100808354040283529160200191614782565b820191906000526020600020905b81548152906001019060200180831161476557829003601f168201915b5050505050815260200190600101906146ea565b5050505091505b5090565b606060018260048111156147b7576147b7614d05565b036147dd57505060408051808201909152600581526420b236b4b760d91b602082015290565b60028260048111156147f1576147f1614d05565b036148185750506040805180820190915260068152652330b936b2b960d11b602082015290565b600382600481111561482c5761482c614d05565b036148535750506040805180820190915260068152652a3930b232b960d11b602082015290565b600482600481111561486757614867614d05565b036148915750506040805180820190915260098152684c6f6769737469637360b81b602082015290565b50506040805180820190915260078152662ab735b737bbb760c91b602082015290565b6060816000036148db5750506040805180820190915260018152600360fc1b602082015290565b6000825b801561490557816148ef81615715565b92506148fe9050600a82615de7565b90506148df565b6000826001600160401b0381111561491f5761491f614d4c565b6040519080825280601f01601f191660200182016040528015614949576020820181803683370190505b5090505b84156149b45761495e600184615dfb565b925061496b600a86615e14565b614976906030615e28565b60f81b81848151811061498b5761498b6156af565b60200101906001600160f81b031916908160001a9053506149ad600a86615de7565b945061494d565b949350505050565b6005846040516149cc9190615693565b90815260200160405180910390206040518060a00160405280336001600160a01b03168152602001836004811115614a0657614a06614d05565b81526020808201879052604082018690524260609092019190915282546001810184556000938452928190208251600494850290910180546001600160a01b039092166001600160a01b031983168117825592840151939490939284926001600160a81b0319161790600160a01b908490811115614a8657614a86614d05565b021790555060408201516001820190614a9f9082615789565b5060608201516002820190614ab49082615789565b506080820151816003015550507fa58b61786ca221afb0dc63e40f6303a7630c2ec4814869abaf1fb1e8fc2f5756843383868642604051614afa96959493929190615e3b565b60405180910390a150505050565b600e84604051614b189190615693565b90815260200160405180910390206040518060a00160405280336001600160a01b03168152602001836004811115614b5257614b52614d05565b81526020808201879052604082018690524260609092019190915282546001810184556000938452928190208251600494850290910180546001600160a01b039092166001600160a01b031983168117825592840151939490939284926001600160a81b0319161790600160a01b908490811115614bd257614bd2614d05565b021790555060408201516001820190614beb9082615789565b5060608201516002820190614c009082615789565b5060808201518160030155505050505050565b600a846040516149cc9190615693565b6008846040516149cc9190615693565b5080546000825560020290600052602060002090810190614c549190614c57565b50565b8082111561479d576000614c6b8282614c82565b614c79600183016000614c82565b50600201614c57565b508054614c8e906156c5565b6000825580601f10614c9e575050565b601f016020900490600052602060002090810190614c5491905b8082111561479d5760008155600101614cb8565b80356001600160a01b03811681146105c157600080fd5b600060208284031215614cf557600080fd5b614cfe82614ccc565b9392505050565b634e487b7160e01b600052602160045260246000fd5b60058110614c5457634e487b7160e01b600052602160045260246000fd5b60208101614d4683614d1b565b91905290565b634e487b7160e01b600052604160045260246000fd5b604051601f8201601f191681016001600160401b0381118282101715614d8a57614d8a614d4c565b604052919050565b600082601f830112614da357600080fd5b81356001600160401b03811115614dbc57614dbc614d4c565b614dcf601f8201601f1916602001614d62565b818152846020838601011115614de457600080fd5b816020850160208301376000918101602001919091529392505050565b600060208284031215614e1357600080fd5b81356001600160401b03811115614e2957600080fd5b6149b484828501614d92565b60005b83811015614e50578181015183820152602001614e38565b50506000910152565b60008151808452614e71816020860160208601614e35565b601f01601f19169290920160200192915050565b600082825180855260208086019550808260051b84010181860160005b84811015614ed057601f19868403018952614ebe838351614e59565b98840198925090830190600101614ea2565b5090979650505050505050565b60a081526000614ef060a0830188614e85565b602083820381850152614f038289614e85565b8481036040860152875180825282890193509082019060005b81811015614f415784516001600160a01b031683529383019391830191600101614f1c565b50508481036060860152614f558188614e85565b858103608087015286518082528388019450908301915060005b81811015614f8b57845183529383019391830191600101614f6f565b50909a9950505050505050505050565b60a081526000614fae60a0830188614e59565b8281036020840152614fc08188614e59565b6001600160a01b038716604085015283810360608501529050614fe38186614e59565b9150508260808301529695505050505050565b60008060006060848603121561500b57600080fd5b83356001600160401b038082111561502257600080fd5b61502e87838801614d92565b9450602086013591508082111561504457600080fd5b5061505186828701614d92565b925050604084013590509250925092565b6000806040838503121561507557600080fd5b82356001600160401b038082111561508c57600080fd5b61509886838701614d92565b935060208501359150808211156150ae57600080fd5b506150bb85828601614d92565b9150509250929050565b600080604083850312156150d857600080fd5b6150e183614ccc565b91506020830135600581106150f557600080fd5b809150509250929050565b6000806000806080858703121561511657600080fd5b84356001600160401b038082111561512d57600080fd5b61513988838901614d92565b9550602087013591508082111561514f57600080fd5b61515b88838901614d92565b9450604087013591508082111561517157600080fd5b5061517e87828801614d92565b949793965093946060013593505050565b60006101608083526151a38184018f614e59565b905082810360208401526151b7818e614e59565b905082810360408401526151cb818d614e59565b90508a606084015282810360808401526151e5818b614e59565b90506151f089614d1b565b60a083018990526001600160a01b0388811660c0850152871660e08401526001600160a01b0386166101008401528281036101208401526152318186614e59565b90508281036101408401526152468185614e59565b9e9d5050505050505050505050505050565b60608152600061526b6060830186614e59565b6001600160a01b0385166020840152828103604084015261528c8185614e59565b9695505050505050565b60006020808301818452808551808352604092508286019150828160051b87010184880160005b8381101561530d57888303603f19018552815180518785526152e188860182614e59565b91890151858303868b01529190506152f98183614e59565b9689019694505050908601906001016152bd565b509098975050505050505050565b602081526000614cfe6020830184614e59565b6000806040838503121561534157600080fd5b82356001600160401b0381111561535757600080fd5b61536385828601614d92565b95602094909401359450505050565b600082601f83011261538357600080fd5b813560206001600160401b038083111561539f5761539f614d4c565b8260051b6153ae838201614d62565b93845285810183019383810190888611156153c857600080fd5b84880192505b85831015615404578235848111156153e65760008081fd5b6153f48a87838c0101614d92565b83525091840191908401906153ce565b98975050505050505050565b600080600080600080600060e0888a03121561542b57600080fd5b87356001600160401b038082111561544257600080fd5b61544e8b838c01614d92565b985060208a013591508082111561546457600080fd5b6154708b838c01614d92565b975060408a0135965060608a013591508082111561548d57600080fd5b6154998b838c01614d92565b955060808a01359150808211156154af57600080fd5b6154bb8b838c01614d92565b945060a08a01359150808211156154d157600080fd5b6154dd8b838c01615372565b935060c08a01359150808211156154f357600080fd5b506155008a828b01615372565b91505092959891949750929550565b600080600080600060a0868803121561552757600080fd5b85356001600160401b038082111561553e57600080fd5b61554a89838a01614d92565b965060208801359550604088013591508082111561556757600080fd5b61557389838a01614d92565b9450606088013591508082111561558957600080fd5b61559589838a01615372565b935060808801359150808211156155ab57600080fd5b506155b888828901615372565b9150509295509295909350565b602081526000614cfe6020830184614e85565b600080600080608085870312156155ee57600080fd5b84356001600160401b038082111561560557600080fd5b61561188838901614d92565b9550602087013591508082111561562757600080fd5b61563388838901614d92565b9450604087013591508082111561564957600080fd5b5061565687828801614d92565b9250506060850135801515811461566c57600080fd5b939692955090935050565b60008151615689818560208601614e35565b9290920192915050565b600082516156a5818460208701614e35565b9190910192915050565b634e487b7160e01b600052603260045260246000fd5b600181811c908216806156d957607f821691505b6020821081036156f957634e487b7160e01b600052602260045260246000fd5b50919050565b634e487b7160e01b600052601160045260246000fd5b600060018201615727576157276156ff565b5060010190565b601f8211156110c057600081815260208120601f850160051c810160208610156157555750805b601f850160051c820191505b8181101561172957828155600101615761565b600019600383901b1c191660019190911b1790565b81516001600160401b038111156157a2576157a2614d4c565b6157b6816157b084546156c5565b8461572e565b602080601f8311600181146157e557600084156157d35750858301515b6157dd8582615774565b865550611729565b600085815260208120601f198616915b82811015615814578886015182559484019460019091019084016157f5565b50858210156158325787850151600019600388901b60f8161c191681555b5050505050600190811b01905550565b60008551615854818460208a01614e35565b808301905061205b60f01b8082528651615875816002850160208b01614e35565b6b02e903ab83230ba3290169f160a51b6002939091019283015285516158a281600e850160208a01614e35565b600e92019182015283516158bd816010840160208801614e35565b605d60f81b601092909101918201526011019695505050505050565b602080825260119082015270131bd8d85d1a5bdb881c995c5d5a5c9959607a1b604082015260600190565b6f021b932b0ba32b21030b3b2b731bc9d160851b81526000835161592f816010850160208801614e35565b6d0161022bc3837b93a1021a4a21d160951b601091840191820152835161595d81601e840160208801614e35565b01601e01949350505050565b64021a4a21d160dd1b815260008551615989816005850160208a01614e35565b808301905063010169f160e51b80600583015286516159af816009850160208b01614e35565b690161022bc3834b93c9d160b51b6009939091019283015285516159da816013850160208a01614e35565b601392019182015283516159f5816017840160208801614e35565b016017019695505050505050565b60208082526014908201527305175616e74697479206d757374206265203e20360641b604082015260600190565b6020808252601790820152764d69736d617463682064757269616e732f696d6167657360481b604082015260600190565b818103615a6d575050565b615a7782546156c5565b6001600160401b03811115615a8e57615a8e614d4c565b615a9c816157b084546156c5565b6000601f821160018114615aca5760008315615ab85750848201545b615ac28482615774565b855550613dce565b600085815260209020601f19841690600086815260209020845b83811015615b045782860154825560019586019590910190602001615ae4565b50858310156158325793015460001960f8600387901b161c19169092555050600190811b01905550565b6020808252600f908201526e44757269616e20494420656d70747960881b604082015260600190565b60208082526017908201527644757269616e20696d616765206861736820656d70747960481b604082015260600190565b60208082526014908201527310985d18da08191bd95cc81b9bdd08195e1a5cdd60621b604082015260600190565b6020808252600e908201526d09cdee840f2deeae440c4c2e8c6d60931b604082015260600190565b69028bab0b73a34ba3c9d160b51b815260008751615c0381600a850160208c01614e35565b808301905063010169f160e51b80600a8301528851615c2981600e850160208d01614e35565b6b0161024b6b0b3b2a1a4a21d160a51b600e93909101928301528751615c5681601a850160208c01614e35565b601a9201918201528551615c7181601e840160208a01614e35565b6a01610223ab934b0b7399d160ad1b601e92909101918201528451615c9d816029840160208901614e35565b615cbf615cb960298385010163010169f160e51b815260040190565b86615677565b9a9950505050505050505050565b60008154615cda816156c5565b60018281168015615cf25760018114615d0757615d36565b60ff1984168752821515830287019450615d36565b8560005260208060002060005b85811015615d2d5781548a820152908401908201615d14565b50505082870194505b5050505092915050565b6000614cfe8284615ccd565b7702130ba31b41037b93232b932b210313c9030b3b2b731bc960451b815260008451615d7f816018850160208901614e35565b6e016102232b634bb32b93c903a379d1608d1b6018918401918201528451615dae816027840160208901614e35565b8451910190615dc4816027840160208801614e35565b0160270195945050505050565b634e487b7160e01b600052601260045260246000fd5b600082615df657615df6615dd1565b500490565b81810381811115615e0e57615e0e6156ff565b92915050565b600082615e2357615e23615dd1565b500690565b80820180821115615e0e57615e0e6156ff565b60c081526000615e4e60c0830189614e59565b6001600160a01b0388166020840152615e6687614d1b565b8660408401528281036060840152615e7e8187614e59565b90508281036080840152615e928186614e59565b9150508260a083015297965050505050505056fe4661726d657220637265617465642061206e65772064757269616e2062617463684c6f676973746963732070726f76696465722072656769737465726564206120636f6d70616e794e6f206d696c6573746f6e6520686973746f727920666f756e6420666f722074a26469706673582212209e4830e9dd40157ccf17501f63a4f254bbaf0c46b56827ff5c09b8fdf5fb212964736f6c63430008130033",
  "linkReferences": {},
  "deployedLinkReferences": {}
}