{
  "_format": "hh-sol-artifact-1",
  "contractName": "DurianChain",
  "sourceName": "contracts/DurianChain.sol",
  "abi": [
    {
      "inputs": [],
      "stateMutability": "nonpayable",
      "type": "constructor"
    },
    {
      "anonymous": false,
      "inputs": [
        {
          "indexed": true,
          "internalType": "address",
          "name": "user",
          "type": "address"
        }
      ],
      "name": "AdminRemoved",
      "type": "event"
    },
    {
      "anonymous": false,
      "inputs": [
        {
          "indexed": true,
          "internalType": "address",
          "name": "user",
          "type": "address"
        },
        {
          "indexed": false,
          "internalType": "enum DurianChain.Role",
          "name": "role",
          "type": "uint8"
        }
      ],
      "name": "RoleAssigned",
      "type": "event"
    },
    {
      "anonymous": false,
      "inputs": [
        {
          "indexed": false,
          "internalType": "string",
          "name": "batchId",
          "type": "string"
        },
        {
          "indexed": false,
          "internalType": "address",
          "name": "actor",
          "type": "address"
        },
        {
          "indexed": false,
          "internalType": "enum DurianChain.Role",
          "name": "role",
          "type": "uint8"
        },
        {
          "indexed": false,
          "internalType": "string",
          "name": "action",
          "type": "string"
        },
        {
          "indexed": false,
          "internalType": "string",
          "name": "description",
          "type": "string"
        },
        {
          "indexed": false,
          "internalType": "uint256",
          "name": "timestamp",
          "type": "uint256"
        }
      ],
      "name": "TransitionLogged",
      "type": "event"
    },
    {
      "inputs": [
        {
          "internalType": "address",
          "name": "user",
          "type": "address"
        },
        {
          "internalType": "enum DurianChain.Role",
          "name": "role",
          "type": "uint8"
        }
      ],
      "name": "assignRole",
      "outputs": [],
      "stateMutability": "nonpayable",
      "type": "function"
    },
    {
      "inputs": [
        {
          "internalType": "string",
          "name": "batchId",
          "type": "string"
        }
      ],
      "name": "cancelOrder",
      "outputs": [],
      "stateMutability": "nonpayable",
      "type": "function"
    },
    {
      "inputs": [
        {
          "internalType": "string",
          "name": "batchId",
          "type": "string"
        }
      ],
      "name": "collectBatch",
      "outputs": [],
      "stateMutability": "nonpayable",
      "type": "function"
    },
    {
      "inputs": [
        {
          "internalType": "string",
          "name": "batchId",
          "type": "string"
        }
      ],
      "name": "confirmDelivery",
      "outputs": [],
      "stateMutability": "nonpayable",
      "type": "function"
    },
    {
      "inputs": [
        {
          "internalType": "string",
          "name": "batchId",
          "type": "string"
        },
        {
          "internalType": "string",
          "name": "variety",
          "type": "string"
        },
        {
          "internalType": "uint256",
          "name": "quantity",
          "type": "uint256"
        },
        {
          "internalType": "string",
          "name": "farmId",
          "type": "string"
        },
        {
          "internalType": "string",
          "name": "batchImageCID",
          "type": "string"
        },
        {
          "internalType": "string[]",
          "name": "durianIds",
          "type": "string[]"
        },
        {
          "internalType": "string[]",
          "name": "imageHashes",
          "type": "string[]"
        }
      ],
      "name": "createBatch",
      "outputs": [],
      "stateMutability": "nonpayable",
      "type": "function"
    },
    {
      "inputs": [
        {
          "internalType": "string",
          "name": "agencyId",
          "type": "string"
        },
        {
          "internalType": "string",
          "name": "agencyName",
          "type": "string"
        },
        {
          "internalType": "string",
          "name": "exportLicenseCID",
          "type": "string"
        },
        {
          "internalType": "uint256",
          "name": "exportLicenseExpiry",
          "type": "uint256"
        }
      ],
      "name": "createTraderAgency",
      "outputs": [],
      "stateMutability": "nonpayable",
      "type": "function"
    },
    {
      "inputs": [
        {
          "internalType": "string",
          "name": "batchId",
          "type": "string"
        }
      ],
      "name": "getBatchById",
      "outputs": [
        {
          "internalType": "string",
          "name": "",
          "type": "string"
        },
        {
          "internalType": "string",
          "name": "",
          "type": "string"
        },
        {
          "internalType": "string",
          "name": "",
          "type": "string"
        },
        {
          "internalType": "uint256",
          "name": "",
          "type": "uint256"
        },
        {
          "internalType": "string",
          "name": "",
          "type": "string"
        },
        {
          "internalType": "enum DurianChain.Status",
          "name": "",
          "type": "uint8"
        },
        {
          "internalType": "address",
          "name": "",
          "type": "address"
        },
        {
          "internalType": "address",
          "name": "",
          "type": "address"
        },
        {
          "internalType": "address",
          "name": "",
          "type": "address"
        },
        {
          "internalType": "string",
          "name": "",
          "type": "string"
        },
        {
          "internalType": "string",
          "name": "",
          "type": "string"
        }
      ],
      "stateMutability": "view",
      "type": "function"
    },
    {
      "inputs": [
        {
          "internalType": "string",
          "name": "batchId",
          "type": "string"
        }
      ],
      "name": "getBatchMilestone",
      "outputs": [
        {
          "internalType": "string[]",
          "name": "actions",
          "type": "string[]"
        },
        {
          "internalType": "string[]",
          "name": "descriptions",
          "type": "string[]"
        },
        {
          "internalType": "address[]",
          "name": "actors",
          "type": "address[]"
        },
        {
          "internalType": "string[]",
          "name": "roleNames",
          "type": "string[]"
        },
        {
          "internalType": "uint256[]",
          "name": "timestamps",
          "type": "uint256[]"
        }
      ],
      "stateMutability": "view",
      "type": "function"
    },
    {
      "inputs": [
        {
          "internalType": "string",
          "name": "batchId",
          "type": "string"
        }
      ],
      "name": "getDuriansByBatchId",
      "outputs": [
        {
          "components": [
            {
              "internalType": "string",
              "name": "id",
              "type": "string"
            },
            {
              "internalType": "string",
              "name": "imageHash",
              "type": "string"
            }
          ],
          "internalType": "struct DurianChain.Durian[]",
          "name": "",
          "type": "tuple[]"
        }
      ],
      "stateMutability": "view",
      "type": "function"
    },
    {
      "inputs": [
        {
          "internalType": "string",
          "name": "farmId",
          "type": "string"
        }
      ],
      "name": "getFarmById",
      "outputs": [
        {
          "internalType": "string",
          "name": "",
          "type": "string"
        },
        {
          "internalType": "string",
          "name": "",
          "type": "string"
        },
        {
          "internalType": "address",
          "name": "",
          "type": "address"
        },
        {
          "internalType": "string",
          "name": "",
          "type": "string"
        },
        {
          "internalType": "uint256",
          "name": "",
          "type": "uint256"
        }
      ],
      "stateMutability": "view",
      "type": "function"
    },
    {
      "inputs": [
        {
          "internalType": "string",
          "name": "farmId",
          "type": "string"
        }
      ],
      "name": "getFarmMilestone",
      "outputs": [
        {
          "internalType": "string[]",
          "name": "actions",
          "type": "string[]"
        },
        {
          "internalType": "string[]",
          "name": "descriptions",
          "type": "string[]"
        },
        {
          "internalType": "address[]",
          "name": "actors",
          "type": "address[]"
        },
        {
          "internalType": "string[]",
          "name": "roleNames",
          "type": "string[]"
        },
        {
          "internalType": "uint256[]",
          "name": "timestamps",
          "type": "uint256[]"
        }
      ],
      "stateMutability": "view",
      "type": "function"
    },
    {
      "inputs": [
        {
          "internalType": "string",
          "name": "companyId",
          "type": "string"
        }
      ],
      "name": "getLogisticsById",
      "outputs": [
        {
          "internalType": "string",
          "name": "",
          "type": "string"
        },
        {
          "internalType": "address",
          "name": "",
          "type": "address"
        },
        {
          "internalType": "string",
          "name": "",
          "type": "string"
        }
      ],
      "stateMutability": "view",
      "type": "function"
    },
    {
      "inputs": [
        {
          "internalType": "string",
          "name": "companyId",
          "type": "string"
        }
      ],
      "name": "getLogisticsMilestone",
      "outputs": [
        {
          "internalType": "string[]",
          "name": "actions",
          "type": "string[]"
        },
        {
          "internalType": "string[]",
          "name": "descriptions",
          "type": "string[]"
        },
        {
          "internalType": "address[]",
          "name": "actors",
          "type": "address[]"
        },
        {
          "internalType": "string[]",
          "name": "roleNames",
          "type": "string[]"
        },
        {
          "internalType": "uint256[]",
          "name": "timestamps",
          "type": "uint256[]"
        }
      ],
      "stateMutability": "view",
      "type": "function"
    },
    {
      "inputs": [],
      "name": "getMyBatchIds",
      "outputs": [
        {
          "internalType": "string[]",
          "name": "",
          "type": "string[]"
        }
      ],
      "stateMutability": "view",
      "type": "function"
    },
    {
      "inputs": [],
      "name": "getMyFarmIds",
      "outputs": [
        {
          "internalType": "string[]",
          "name": "",
          "type": "string[]"
        }
      ],
      "stateMutability": "view",
      "type": "function"
    },
    {
      "inputs": [],
      "name": "getMyLogisticsCompanyIds",
      "outputs": [
        {
          "internalType": "string[]",
          "name": "",
          "type": "string[]"
        }
      ],
      "stateMutability": "view",
      "type": "function"
    },
    {
      "inputs": [],
      "name": "getMyRoleAsString",
      "outputs": [
        {
          "internalType": "string",
          "name": "",
          "type": "string"
        }
      ],
      "stateMutability": "view",
      "type": "function"
    },
    {
      "inputs": [],
      "name": "getMyTraderAgencyIds",
      "outputs": [
        {
          "internalType": "string[]",
          "name": "",
          "type": "string[]"
        }
      ],
      "stateMutability": "view",
      "type": "function"
    },
    {
      "inputs": [
        {
          "internalType": "string",
          "name": "agencyId",
          "type": "string"
        }
      ],
      "name": "getTraderAgencyById",
      "outputs": [
        {
          "internalType": "string",
          "name": "",
          "type": "string"
        },
        {
          "internalType": "string",
          "name": "",
          "type": "string"
        },
        {
          "internalType": "address",
          "name": "",
          "type": "address"
        },
        {
          "internalType": "string",
          "name": "",
          "type": "string"
        },
        {
          "internalType": "uint256",
          "name": "",
          "type": "uint256"
        }
      ],
      "stateMutability": "view",
      "type": "function"
    },
    {
      "inputs": [
        {
          "internalType": "string",
          "name": "agencyId",
          "type": "string"
        }
      ],
      "name": "getTraderAgencyMilestone",
      "outputs": [
        {
          "internalType": "string[]",
          "name": "actions",
          "type": "string[]"
        },
        {
          "internalType": "string[]",
          "name": "descriptions",
          "type": "string[]"
        },
        {
          "internalType": "address[]",
          "name": "actors",
          "type": "address[]"
        },
        {
          "internalType": "string[]",
          "name": "roleNames",
          "type": "string[]"
        },
        {
          "internalType": "uint256[]",
          "name": "timestamps",
          "type": "uint256[]"
        }
      ],
      "stateMutability": "view",
      "type": "function"
    },
    {
      "inputs": [
        {
          "internalType": "address",
          "name": "user",
          "type": "address"
        }
      ],
      "name": "getUserRole",
      "outputs": [
        {
          "internalType": "enum DurianChain.Role",
          "name": "",
          "type": "uint8"
        }
      ],
      "stateMutability": "view",
      "type": "function"
    },
    {
      "inputs": [
        {
          "internalType": "address",
          "name": "",
          "type": "address"
        }
      ],
      "name": "isAdmin",
      "outputs": [
        {
          "internalType": "bool",
          "name": "",
          "type": "bool"
        }
      ],
      "stateMutability": "view",
      "type": "function"
    },
    {
      "inputs": [
        {
          "internalType": "string",
          "name": "batchId",
          "type": "string"
        },
        {
          "internalType": "string",
          "name": "agencyId",
          "type": "string"
        },
        {
          "internalType": "string",
          "name": "deliveryDestination",
          "type": "string"
        },
        {
          "internalType": "bool",
          "name": "isExport",
          "type": "bool"
        }
      ],
      "name": "orderBatch",
      "outputs": [],
      "stateMutability": "nonpayable",
      "type": "function"
    },
    {
      "inputs": [
        {
          "internalType": "string",
          "name": "farmId",
          "type": "string"
        },
        {
          "internalType": "string",
          "name": "location",
          "type": "string"
        },
        {
          "internalType": "string",
          "name": "certificateCID",
          "type": "string"
        },
        {
          "internalType": "uint256",
          "name": "certificateExpiry",
          "type": "uint256"
        }
      ],
      "name": "registerFarm",
      "outputs": [],
      "stateMutability": "nonpayable",
      "type": "function"
    },
    {
      "inputs": [
        {
          "internalType": "string",
          "name": "companyId",
          "type": "string"
        },
        {
          "internalType": "string",
          "name": "companyName",
          "type": "string"
        }
      ],
      "name": "registerLogisticsCompany",
      "outputs": [],
      "stateMutability": "nonpayable",
      "type": "function"
    },
    {
      "inputs": [
        {
          "internalType": "string",
          "name": "batchId",
          "type": "string"
        }
      ],
      "name": "removeBatch",
      "outputs": [],
      "stateMutability": "nonpayable",
      "type": "function"
    },
    {
      "inputs": [
        {
          "internalType": "address",
          "name": "",
          "type": "address"
        }
      ],
      "name": "roles",
      "outputs": [
        {
          "internalType": "enum DurianChain.Role",
          "name": "",
          "type": "uint8"
        }
      ],
      "stateMutability": "view",
      "type": "function"
    },
    {
      "inputs": [],
      "name": "superAdmin",
      "outputs": [
        {
          "internalType": "address",
          "name": "",
          "type": "address"
        }
      ],
      "stateMutability": "view",
      "type": "function"
    },
    {
      "inputs": [
        {
          "internalType": "string",
          "name": "batchId",
          "type": "string"
        },
        {
          "internalType": "uint256",
          "name": "newQuantity",
          "type": "uint256"
        },
        {
          "internalType": "string",
          "name": "newBatchImageCID",
          "type": "string"
        },
        {
          "internalType": "string[]",
          "name": "newDurianIds",
          "type": "string[]"
        },
        {
          "internalType": "string[]",
          "name": "newImageHashes",
          "type": "string[]"
        }
      ],
      "name": "updateBatchInfo",
      "outputs": [],
      "stateMutability": "nonpayable",
      "type": "function"
    },
    {
      "inputs": [
        {
          "internalType": "string",
          "name": "farmId",
          "type": "string"
        },
        {
          "internalType": "string",
          "name": "newCertificateCID",
          "type": "string"
        },
        {
          "internalType": "uint256",
          "name": "newExpiry",
          "type": "uint256"
        }
      ],
      "name": "updateFarmCertificate",
      "outputs": [],
      "stateMutability": "nonpayable",
      "type": "function"
    },
    {
      "inputs": [
        {
          "internalType": "string",
          "name": "agencyId",
          "type": "string"
        },
        {
          "internalType": "string",
          "name": "newExportCID",
          "type": "string"
        },
        {
          "internalType": "uint256",
          "name": "newExportExpiry",
          "type": "uint256"
        }
      ],
      "name": "updateTraderAgencyCertificate",
      "outputs": [],
      "stateMutability": "nonpayable",
      "type": "function"
    }
  ],
  "bytecode": "0x608060405234801561001057600080fd5b5060008054336001600160a01b0319909116811782558152600160208181526040808420805460ff19908116851790915560029092529092208054909216179055615b3780620000616000396000f3fe608060405234801561001057600080fd5b50600436106101955760003560e01c80639fb50d55116100ef578063c17d442311610092578063c17d442314610402578063c2558ffd14610417578063d15783df1461042a578063d2bbdec21461043d578063ef1b26fa14610450578063f11d77ea14610458578063f68e11411461046b578063fc856e381461047357600080fd5b80639fb50d5514610368578063a45064601461037b578063a7f976921461038e578063b015b5f9146103a1578063b0f41eb1146103b4578063b97995a0146103c9578063bc54180a146103dc578063c153251e146103ef57600080fd5b806324d7806c1461019a57806327820851146101d257806329575f6a146101f25780632d12d9691461021d5780633270bd0514610241578063373f8b70146102655780633fcabe351461027a5780634d5fbbe21461028d578063630a195b146102a05780636b74306c146102b357806372e855ff146102c657806375b02148146102d9578063797f27ff146103035780638f270d5f146103255780639937464214610345575b600080fd5b6101bd6101a83660046148fc565b60016020526000908152604090205460ff1681565b60405190151581526020015b60405180910390f35b6101e56101e03660046148fc565b61047b565b6040516101c99190614952565b600054610205906001600160a01b031681565b6040516001600160a01b0390911681526020016101c9565b61023061022b366004614a1a565b61049d565b6040516101c9959493929190614af6565b61025461024f366004614a1a565b61093f565b6040516101c9959493929190614bb4565b610278610273366004614c0f565b610b96565b005b610278610288366004614c7b565b610db6565b61025461029b366004614a1a565b610fc9565b6102786102ae366004614cde565b611046565b6102786102c1366004614d19565b6111a0565b6102306102d4366004614a1a565b6113e4565b6102ec6102e7366004614a1a565b611862565b6040516101c99b9a99989796959493929190614da8565b610316610311366004614a1a565b611c82565b6040516101c993929190614e71565b610338610333366004614a1a565b611e45565b6040516101c99190614eaf565b6101e56103533660046148fc565b60026020526000908152604090205460ff1681565b610230610376366004614a1a565b61205b565b610278610389366004614a1a565b6124ce565b61023061039c366004614a1a565b612601565b6102786103af366004614a1a565b612a73565b6103bc612bc2565b6040516101c99190614f34565b6102786103d7366004614fe5565b612be7565b6102786103ea3660046150e4565b6130a2565b6102786103fd366004614d19565b6134c1565b61040a613710565b6040516101c9919061519a565b610278610425366004614a1a565b6137f3565b6102786104383660046151ad565b61399a565b61027861044b366004614c0f565b613d91565b61040a613fc2565b610278610466366004614a1a565b61409a565b61040a61420a565b61040a6142e2565b6001600160a01b03811660009081526002602052604090205460ff165b919050565b606080606080606060006005876040516104b79190615268565b90815260405190819003602001902080549091508061051c5760405162461bcd60e51b81526020600482015260286024820152600080516020615ae2833981519152604482015267686973206661726d60c01b60648201526084015b60405180910390fd5b806001600160401b0381111561053457610534614965565b60405190808252806020026020018201604052801561056757816020015b60608152602001906001900390816105525790505b509650806001600160401b0381111561058257610582614965565b6040519080825280602002602001820160405280156105b557816020015b60608152602001906001900390816105a05790505b509550806001600160401b038111156105d0576105d0614965565b6040519080825280602002602001820160405280156105f9578160200160208202803683370190505b509450806001600160401b0381111561061457610614614965565b60405190808252806020026020018201604052801561064757816020015b60608152602001906001900390816106325790505b509350806001600160401b0381111561066257610662614965565b60405190808252806020026020018201604052801561068b578160200160208202803683370190505b50925060005b81811015610933578281815481106106ab576106ab615284565b906000526020600020906004020160010180546106c79061529a565b80601f01602080910402602001604051908101604052809291908181526020018280546106f39061529a565b80156107405780601f1061071557610100808354040283529160200191610740565b820191906000526020600020905b81548152906001019060200180831161072357829003601f168201915b505050505088828151811061075757610757615284565b602002602001018190525082818154811061077457610774615284565b906000526020600020906004020160020180546107909061529a565b80601f01602080910402602001604051908101604052809291908181526020018280546107bc9061529a565b80156108095780601f106107de57610100808354040283529160200191610809565b820191906000526020600020905b8154815290600101906020018083116107ec57829003601f168201915b505050505087828151811061082057610820615284565b602002602001018190525082818154811061083d5761083d615284565b600091825260209091206004909102015486516001600160a01b039091169087908390811061086e5761086e615284565b60200260200101906001600160a01b031690816001600160a01b0316815250506108c38382815481106108a3576108a3615284565b6000918252602090912060049091020154600160a01b900460ff166143ba565b8582815181106108d5576108d5615284565b60200260200101819052508281815481106108f2576108f2615284565b90600052602060002090600402016003015484828151811061091657610916615284565b60209081029190910101528061092b816152ea565b915050610691565b50505091939590929450565b606080600060606000806003876040516109599190615268565b90815260200160405180910390209050600081600001805461097a9061529a565b9050116109ba5760405162461bcd60e51b815260206004820152600e60248201526d11985c9b481b9bdd08199bdd5b9960921b6044820152606401610513565b600181015460048201548254839260028401926001600160a01b039091169160038501919085906109ea9061529a565b80601f0160208091040260200160405190810160405280929190818152602001828054610a169061529a565b8015610a635780601f10610a3857610100808354040283529160200191610a63565b820191906000526020600020905b815481529060010190602001808311610a4657829003601f168201915b50505050509450838054610a769061529a565b80601f0160208091040260200160405190810160405280929190818152602001828054610aa29061529a565b8015610aef5780601f10610ac457610100808354040283529160200191610aef565b820191906000526020600020905b815481529060010190602001808311610ad257829003601f168201915b50505050509350818054610b029061529a565b80601f0160208091040260200160405190810160405280929190818152602001828054610b2e9061529a565b8015610b7b5780601f10610b5057610100808354040283529160200191610b7b565b820191906000526020600020905b815481529060010190602001808311610b5e57829003601f168201915b50505050509150955095509550955095505091939590929450565b60026000600385604051610baa9190615268565b90815260405190819003602001902060018101549091506001600160a01b03163314610c085760405162461bcd60e51b815260206004820152600d60248201526c4e6f7420796f7572206661726d60981b6044820152606401610513565b6000845111610c4c5760405162461bcd60e51b815260206004820152601060248201526f13995dc810d251081c995c5d5a5c995960821b6044820152606401610513565b428311610c935760405162461bcd60e51b8152602060048201526015602482015274457870697279206d7573742062652066757475726560581b6044820152606401610513565b6000816003018054610ca49061529a565b80601f0160208091040260200160405190810160405280929190818152602001828054610cd09061529a565b8015610d1d5780601f10610cf257610100808354040283529160200191610d1d565b820191906000526020600020905b815481529060010190602001808311610d0057829003601f168201915b5050505060048401549192505060038301610d38878261535e565b5060048301859055600082610d4c836144cd565b88610d56896144cd565b604051602001610d699493929190615417565b60408051601f19818403018152828201909152601382527210d95c9d1a599a58d85d1948155c19185d1959606a1b60208301529150610dac9089908360026145d5565b5050505050505050565b60046000835111610dff5760405162461bcd60e51b815260206004820152601360248201527210dbdb5c185b9e481251081c995c5d5a5c9959606a1b6044820152606401610513565b6000825111610e485760405162461bcd60e51b815260206004820152601560248201527410dbdb5c185b9e481b985b59481c995c5d5a5c9959605a1b6044820152606401610513565b600c83604051610e589190615268565b9081526040519081900360200190208054610e729061529a565b159050610ebb5760405162461bcd60e51b815260206004820152601760248201527610dbdb5c185b9e48125108185b1c9958591e481d5cd959604a1b6044820152606401610513565b604080516060810182528481523360208201528082018490529051600c90610ee4908690615268565b90815260405190819003602001902081518190610f01908261535e565b5060208201516001820180546001600160a01b0319166001600160a01b0390921691909117905560408201516002820190610f3c908261535e565b5050336000908152600d60209081526040822080546001810182559083529120019050610f69848261535e565b50610fc4836040518060400160405280601c81526020017f4c6f6769737469637320436f6d70616e79205265676973746572656400000000815250604051806060016040528060278152602001615abb602791396004614721565b505050565b60608060006060600080600987604051610fe39190615268565b9081526020016040518091039020905060008160000180546110049061529a565b9050116109ba5760405162461bcd60e51b815260206004820152601060248201526f1059d95b98de481b9bdd08199bdd5b9960821b6044820152606401610513565b6001600160a01b03821661108e5760405162461bcd60e51b815260206004820152600f60248201526e496e76616c6964206164647265737360881b6044820152606401610513565b6000546001600160a01b03908116908316036110ec5760405162461bcd60e51b815260206004820181905260248201527f43616e6e6f74206368616e676520726f6c65206f6620737570657241646d696e6044820152606401610513565b6001600160a01b0382166000908152600260205260409020805482919060ff191660018360048111156111215761112161491e565b0217905550600181600481111561113a5761113a61491e565b6001600160a01b03841660008181526001602052604090819020805460ff1916949093149390931790915590517f4ac36fa53f167ceb85964be512e01de2a3b8bdb9862f917da079deeeff689b3890611194908490614952565b60405180910390a25050565b600360008551116111e85760405162461bcd60e51b81526020600482015260126024820152711059d95b98de481251081c995c5d5a5c995960721b6044820152606401610513565b60008451116112305760405162461bcd60e51b81526020600482015260146024820152731059d95b98de481b985b59481c995c5d5a5c995960621b6044820152606401610513565b6009856040516112409190615268565b908152604051908190036020019020805461125a9061529a565b1590506112a45760405162461bcd60e51b81526020600482015260186024820152774167656e637920494420616c72656164792065786973747360401b6044820152606401610513565b6040518060a00160405280868152602001336001600160a01b03168152602001858152602001848152602001838152506009866040516112e49190615268565b90815260405190819003602001902081518190611301908261535e565b5060208201516001820180546001600160a01b0319166001600160a01b039092169190911790556040820151600282019061133c908261535e565b5060608201516003820190611351908261535e565b5060809190910151600490910155336000908152600a6020908152604082208054600181018255908352912001611388868261535e565b506000848460405160200161139e9291906154ae565b60408051601f19818403018152828201909152600e82526d1059d95b98de4810dc99585d195960921b602083015291506113dc90879083600361482c565b505050505050565b60608060608060606000600e876040516113fe9190615268565b90815260405190819003602001902080549091508061146b5760405162461bcd60e51b81526020600482015260356024820152600080516020615ae2833981519152604482015274686973206c6f6769737469637320636f6d70616e7960581b6064820152608401610513565b806001600160401b0381111561148357611483614965565b6040519080825280602002602001820160405280156114b657816020015b60608152602001906001900390816114a15790505b509650806001600160401b038111156114d1576114d1614965565b60405190808252806020026020018201604052801561150457816020015b60608152602001906001900390816114ef5790505b509550806001600160401b0381111561151f5761151f614965565b604051908082528060200260200182016040528015611548578160200160208202803683370190505b509450806001600160401b0381111561156357611563614965565b60405190808252806020026020018201604052801561159657816020015b60608152602001906001900390816115815790505b509350806001600160401b038111156115b1576115b1614965565b6040519080825280602002602001820160405280156115da578160200160208202803683370190505b50925060005b81811015610933578281815481106115fa576115fa615284565b906000526020600020906004020160010180546116169061529a565b80601f01602080910402602001604051908101604052809291908181526020018280546116429061529a565b801561168f5780601f106116645761010080835404028352916020019161168f565b820191906000526020600020905b81548152906001019060200180831161167257829003601f168201915b50505050508882815181106116a6576116a6615284565b60200260200101819052508281815481106116c3576116c3615284565b906000526020600020906004020160020180546116df9061529a565b80601f016020809104026020016040519081016040528092919081815260200182805461170b9061529a565b80156117585780601f1061172d57610100808354040283529160200191611758565b820191906000526020600020905b81548152906001019060200180831161173b57829003601f168201915b505050505087828151811061176f5761176f615284565b602002602001018190525082818154811061178c5761178c615284565b600091825260209091206004909102015486516001600160a01b03909116908790839081106117bd576117bd615284565b60200260200101906001600160a01b031690816001600160a01b0316815250506117f28382815481106108a3576108a3615284565b85828151811061180457611804615284565b602002602001018190525082818154811061182157611821615284565b90600052602060002090600402016003015484828151811061184557611845615284565b60209081029190910101528061185a816152ea565b9150506115e0565b606080606060006060600080600080606080600060068d6040516118869190615268565b9081526020016040518091039020905060008160000180546118a79061529a565b9050116118c65760405162461bcd60e51b815260040161051390615513565b600381015460058201546006830154600784015484548594600186019460028701949193600488019360ff8316936001600160a01b0361010090940484169390811692169060088a019060098b01908b906119209061529a565b80601f016020809104026020016040519081016040528092919081815260200182805461194c9061529a565b80156119995780601f1061196e57610100808354040283529160200191611999565b820191906000526020600020905b81548152906001019060200180831161197c57829003601f168201915b50505050509a508980546119ac9061529a565b80601f01602080910402602001604051908101604052809291908181526020018280546119d89061529a565b8015611a255780601f106119fa57610100808354040283529160200191611a25565b820191906000526020600020905b815481529060010190602001808311611a0857829003601f168201915b50505050509950888054611a389061529a565b80601f0160208091040260200160405190810160405280929190818152602001828054611a649061529a565b8015611ab15780601f10611a8657610100808354040283529160200191611ab1565b820191906000526020600020905b815481529060010190602001808311611a9457829003601f168201915b50505050509850868054611ac49061529a565b80601f0160208091040260200160405190810160405280929190818152602001828054611af09061529a565b8015611b3d5780601f10611b1257610100808354040283529160200191611b3d565b820191906000526020600020905b815481529060010190602001808311611b2057829003601f168201915b50505050509650818054611b509061529a565b80601f0160208091040260200160405190810160405280929190818152602001828054611b7c9061529a565b8015611bc95780601f10611b9e57610100808354040283529160200191611bc9565b820191906000526020600020905b815481529060010190602001808311611bac57829003601f168201915b50505050509150808054611bdc9061529a565b80601f0160208091040260200160405190810160405280929190818152602001828054611c089061529a565b8015611c555780601f10611c2a57610100808354040283529160200191611c55565b820191906000526020600020905b815481529060010190602001808311611c3857829003601f168201915b505050505090509b509b509b509b509b509b509b509b509b509b509b505091939597999b90929496989a50565b6060600060606000600c85604051611c9a9190615268565b908152602001604051809103902090506000816000018054611cbb9061529a565b905011611d085760405162461bcd60e51b815260206004820152601b60248201527a131bd9da5cdd1a58dcc818dbdb5c185b9e481b9bdd08199bdd5b99602a1b6044820152606401610513565b6001810154815482916001600160a01b03169060028301908390611d2b9061529a565b80601f0160208091040260200160405190810160405280929190818152602001828054611d579061529a565b8015611da45780601f10611d7957610100808354040283529160200191611da4565b820191906000526020600020905b815481529060010190602001808311611d8757829003601f168201915b50505050509250808054611db79061529a565b80601f0160208091040260200160405190810160405280929190818152602001828054611de39061529a565b8015611e305780601f10611e0557610100808354040283529160200191611e30565b820191906000526020600020905b815481529060010190602001808311611e1357829003601f168201915b50505050509050935093509350509193909250565b60606000600683604051611e599190615268565b908152604051908190036020019020600a015411611eb95760405162461bcd60e51b815260206004820152601e60248201527f4e6f2064757269616e7320666f756e6420696e207468697320626174636800006044820152606401610513565b600682604051611ec99190615268565b9081526020016040518091039020600a01805480602002602001604051908101604052809291908181526020016000905b828210156120505783829060005260206000209060020201604051806040016040529081600082018054611f2d9061529a565b80601f0160208091040260200160405190810160405280929190818152602001828054611f599061529a565b8015611fa65780601f10611f7b57610100808354040283529160200191611fa6565b820191906000526020600020905b815481529060010190602001808311611f8957829003601f168201915b50505050508152602001600182018054611fbf9061529a565b80601f0160208091040260200160405190810160405280929190818152602001828054611feb9061529a565b80156120385780601f1061200d57610100808354040283529160200191612038565b820191906000526020600020905b81548152906001019060200180831161201b57829003601f168201915b50505050508152505081526020019060010190611efa565b505050509050919050565b60608060608060606000600b876040516120759190615268565b9081526040519081900360200190208054909150806120d75760405162461bcd60e51b815260206004820152602a6024820152600080516020615ae2833981519152604482015269686973206167656e637960b01b6064820152608401610513565b806001600160401b038111156120ef576120ef614965565b60405190808252806020026020018201604052801561212257816020015b606081526020019060019003908161210d5790505b509650806001600160401b0381111561213d5761213d614965565b60405190808252806020026020018201604052801561217057816020015b606081526020019060019003908161215b5790505b509550806001600160401b0381111561218b5761218b614965565b6040519080825280602002602001820160405280156121b4578160200160208202803683370190505b509450806001600160401b038111156121cf576121cf614965565b60405190808252806020026020018201604052801561220257816020015b60608152602001906001900390816121ed5790505b509350806001600160401b0381111561221d5761221d614965565b604051908082528060200260200182016040528015612246578160200160208202803683370190505b50925060005b818110156109335782818154811061226657612266615284565b906000526020600020906004020160010180546122829061529a565b80601f01602080910402602001604051908101604052809291908181526020018280546122ae9061529a565b80156122fb5780601f106122d0576101008083540402835291602001916122fb565b820191906000526020600020905b8154815290600101906020018083116122de57829003601f168201915b505050505088828151811061231257612312615284565b602002602001018190525082818154811061232f5761232f615284565b9060005260206000209060040201600201805461234b9061529a565b80601f01602080910402602001604051908101604052809291908181526020018280546123779061529a565b80156123c45780601f10612399576101008083540402835291602001916123c4565b820191906000526020600020905b8154815290600101906020018083116123a757829003601f168201915b50505050508782815181106123db576123db615284565b60200260200101819052508281815481106123f8576123f8615284565b600091825260209091206004909102015486516001600160a01b039091169087908390811061242957612429615284565b60200260200101906001600160a01b031690816001600160a01b03168152505061245e8382815481106108a3576108a3615284565b85828151811061247057612470615284565b602002602001018190525082818154811061248d5761248d615284565b9060005260206000209060040201600301548482815181106124b1576124b1615284565b6020908102919091010152806124c6816152ea565b91505061224c565b600460006006836040516124e29190615268565b9081526020016040518091039020905060008160000180546125039061529a565b9050116125225760405162461bcd60e51b815260040161051390615513565b6002600582015460ff16600481111561253d5761253d61491e565b1461258a5760405162461bcd60e51b815260206004820152601d60248201527f4261746368206d75737420626520636f6c6c65637465642066697273740000006044820152606401610513565b60058101805460ff19166003179055604080518082018252600f81526e10985d18da0811195b1a5d995c9959608a1b6020808301919091528251808401909352601d83527f4c6f676973746963732064656c6976657265642074686520626174636800000090830152610fc491859190600461483c565b6060806060806060600060088760405161261b9190615268565b90815260405190819003602001902080549091508061267c5760405162461bcd60e51b81526020600482015260296024820152600080516020615ae28339815191526044820152680d0d2e640c4c2e8c6d60bb1b6064820152608401610513565b806001600160401b0381111561269457612694614965565b6040519080825280602002602001820160405280156126c757816020015b60608152602001906001900390816126b25790505b509650806001600160401b038111156126e2576126e2614965565b60405190808252806020026020018201604052801561271557816020015b60608152602001906001900390816127005790505b509550806001600160401b0381111561273057612730614965565b604051908082528060200260200182016040528015612759578160200160208202803683370190505b509450806001600160401b0381111561277457612774614965565b6040519080825280602002602001820160405280156127a757816020015b60608152602001906001900390816127925790505b509350806001600160401b038111156127c2576127c2614965565b6040519080825280602002602001820160405280156127eb578160200160208202803683370190505b50925060005b818110156109335782818154811061280b5761280b615284565b906000526020600020906004020160010180546128279061529a565b80601f01602080910402602001604051908101604052809291908181526020018280546128539061529a565b80156128a05780601f10612875576101008083540402835291602001916128a0565b820191906000526020600020905b81548152906001019060200180831161288357829003601f168201915b50505050508882815181106128b7576128b7615284565b60200260200101819052508281815481106128d4576128d4615284565b906000526020600020906004020160020180546128f09061529a565b80601f016020809104026020016040519081016040528092919081815260200182805461291c9061529a565b80156129695780601f1061293e57610100808354040283529160200191612969565b820191906000526020600020905b81548152906001019060200180831161294c57829003601f168201915b505050505087828151811061298057612980615284565b602002602001018190525082818154811061299d5761299d615284565b600091825260209091206004909102015486516001600160a01b03909116908790839081106129ce576129ce615284565b60200260200101906001600160a01b031690816001600160a01b031681525050612a038382815481106108a3576108a3615284565b858281518110612a1557612a15615284565b6020026020010181905250828181548110612a3257612a32615284565b906000526020600020906004020160030154848281518110612a5657612a56615284565b602090810291909101015280612a6b816152ea565b9150506127f1565b60046000600683604051612a879190615268565b908152602001604051809103902090506000816000018054612aa89061529a565b905011612ac75760405162461bcd60e51b815260040161051390615513565b6001600582015460ff166004811115612ae257612ae261491e565b14612b2f5760405162461bcd60e51b815260206004820152601e60248201527f4261746368206e6f7420726561647920666f7220636f6c6c656374696f6e00006044820152606401610513565b6007810180546001600160a01b031916331790556005810180546002919060ff19166001830217905550610fc4836040518060400160405280600f81526020016e10985d18da0810dbdb1b1958dd1959608a1b8152506040518060400160405280601d81526020017f4c6f6769737469637320636f6c6c656374656420746865206261746368000000815250600461483c565b3360009081526002602052604090205460609060ff16612be1816143ba565b91505090565b60026000885111612c2e5760405162461bcd60e51b815260206004820152601160248201527010985d18da081251081c995c5d5a5c9959607a1b6044820152606401610513565b6000875111612c745760405162461bcd60e51b8152602060048201526012602482015271119bdbd9081b985b59481c995c5d5a5c995960721b6044820152606401610513565b60008611612c945760405162461bcd60e51b81526004016105139061553c565b6000845111612ce05760405162461bcd60e51b815260206004820152601860248201527710985d18da081a5b5859d94810d251081c995c5d5a5c995960421b6044820152606401610513565b6000600386604051612cf29190615268565b9081526040519081900360200190208054612d0c9061529a565b905011612d515760405162461bcd60e51b815260206004820152601360248201527211985c9b481b9bdd081c9959da5cdd195c9959606a1b6044820152606401610513565b336001600160a01b0316600386604051612d6b9190615268565b908152604051908190036020019020600101546001600160a01b031614612dcf5760405162461bcd60e51b8152602060048201526018602482015277596f7520646f206e6f74206f776e2074686973206661726d60401b6044820152606401610513565b600688604051612ddf9190615268565b908152602001604051809103902060030154600014612e375760405162461bcd60e51b8152602060048201526014602482015273426174636820616c72656164792065786973747360601b6044820152606401610513565b8151835114612e585760405162461bcd60e51b81526004016105139061556a565b6000600689604051612e6a9190615268565b908152604051908190036020019020905080612e868a8261535e565b5060018101612e95898261535e565b5060028101612ea4878261535e565b506003808201889055604051612ebb908890615268565b9081526020016040518091039020600201816004019081612edc919061559b565b506005810180546001600160a81b031916336101000217905560088101612f03868261535e565b5060005b8451811015613022576000858281518110612f2457612f24615284565b60200260200101515111612f4a5760405162461bcd60e51b815260040161051390615667565b6000848281518110612f5e57612f5e615284565b60200260200101515111612f845760405162461bcd60e51b815260040161051390615690565b81600a016040518060400160405280878481518110612fa557612fa5615284565b60200260200101518152602001868481518110612fc457612fc4615284565b6020908102919091018101519091528254600181018455600093845292208151919260020201908190612ff7908261535e565b506020820151600182019061300c908261535e565b505050808061301a906152ea565b915050612f07565b503360009081526007602090815260408220805460018101825590835291200161304c8a8261535e565b50613097896040518060400160405280600d81526020016c10985d18da0810dc99585d1959609a1b815250604051806060016040528060218152602001615a9a60219139600261483c565b505050505050505050565b600260006006876040516130b69190615268565b9081526020016040518091039020905060008160000180546130d79061529a565b9050116130f65760405162461bcd60e51b8152600401610513906156c1565b600581015461010090046001600160a01b031633146131275760405162461bcd60e51b8152600401610513906156ef565b6000600582015460ff1660048111156131425761314261491e565b146131b15760405162461bcd60e51b815260206004820152603960248201527f4261746368206d75737420626520696e2027437265617465642720737461746560448201527820286e6f74206f726465726564206f722064656c657465642960381b6064820152608401610513565b600086116131d15760405162461bcd60e51b81526004016105139061553c565b60008551116132175760405162461bcd60e51b8152602060048201526012602482015271125b5859d94810d251081c995c5d5a5c995960721b6044820152606401610513565b60038101546008820180546000919061322f9061529a565b80601f016020809104026020016040519081016040528092919081815260200182805461325b9061529a565b80156132a85780601f1061327d576101008083540402835291602001916132a8565b820191906000526020600020905b81548152906001019060200180831161328b57829003601f168201915b50505050600a850154600386018b905591925050600884016132ca898261535e565b506000875111806132dc575060008651115b156134305785518751146133025760405162461bcd60e51b81526004016105139061556a565b613310600a8501600061484c565b60005b875181101561342e57600088828151811061333057613330615284565b602002602001015151116133565760405162461bcd60e51b815260040161051390615667565b600087828151811061336a5761336a615284565b602002602001015151116133905760405162461bcd60e51b815260040161051390615690565b84600a0160405180604001604052808a84815181106133b1576133b1615284565b602002602001015181526020018984815181106133d0576133d0615284565b6020908102919091018101519091528254600181018455600093845292208151919260020201908190613403908261535e565b5060208201516001820190613418908261535e565b5050508080613426906152ea565b915050613313565b505b600061343b846144cd565b6134448b6144cd565b848b61344f866144cd565b600a8a015461345d906144cd565b60405160200161347296959493929190615717565b60408051601f19818403018152828201909152601282527110985d18da08125b999bc8155c19185d195960721b602083015291506134b4908c9083600261483c565b5050505050505050505050565b600260008551116135075760405162461bcd60e51b815260206004820152601060248201526f11985c9b481251081c995c5d5a5c995960821b6044820152606401610513565b600084511161354c5760405162461bcd60e51b8152602060048201526011602482015270131bd8d85d1a5bdb881c995c5d5a5c9959607a1b6044820152606401610513565b60038560405161355c9190615268565b90815260405190819003602001902080546135769061529a565b1590506135bc5760405162461bcd60e51b815260206004820152601460248201527311985c9b48125108185b1c9958591e481d5cd95960621b6044820152606401610513565b6040518060a00160405280868152602001336001600160a01b03168152602001858152602001848152602001838152506003866040516135fc9190615268565b90815260405190819003602001902081518190613619908261535e565b5060208201516001820180546001600160a01b0319166001600160a01b0390921691909117905560408201516002820190613654908261535e565b5060608201516003820190613669908261535e565b506080919091015160049182015533600090815260209182526040812080546001810182559082529190200161369f868261535e565b50613709856040518060400160405280600f81526020016e11985c9b48149959da5cdd195c9959608a1b8152506040518060400160405280601c81526020017f4661726d657220726567697374657265642061206e6577206661726d0000000081525060026145d5565b5050505050565b336000908152600d60209081526040808320805482518185028101850190935280835260609460049484015b828210156137e857838290600052602060002001805461375b9061529a565b80601f01602080910402602001604051908101604052809291908181526020018280546137879061529a565b80156137d45780601f106137a9576101008083540402835291602001916137d4565b820191906000526020600020905b8154815290600101906020018083116137b757829003601f168201915b50505050508152602001906001019061373c565b5050505091505b5090565b600360006006836040516138079190615268565b9081526020016040518091039020905060008160000180546138289061529a565b9050116138475760405162461bcd60e51b8152600401610513906156c1565b6001600582015460ff1660048111156138625761386261491e565b146138bb5760405162461bcd60e51b815260206004820152602360248201527f4f6e6c79206f7264657265642062617463682063616e2062652063616e63656c6044820152621b195960ea1b6064820152608401610513565b60068101546001600160a01b031633146139175760405162461bcd60e51b815260206004820152601c60248201527f596f7520646964206e6f74206f726465722074686973206261746368000000006044820152606401610513565b6006810180546001600160a01b031916905560058101805460ff19169055604080518082018252600f81526e13dc99195c8810d85b98d95b1b1959608a1b6020808301919091528251808401909352601a8352792a3930b232b91031b0b731b2b63632b2103a34329037b93232b960311b90830152610fc491859190600361483c565b600360006006866040516139ae9190615268565b90815260405190819003602001902090506000600582015460ff1660048111156139da576139da61491e565b14613a315760405162461bcd60e51b815260206004820152602160248201527f4f6e6c7920637265617465642062617463682063616e206265206f72646572656044820152601960fa1b6064820152608401610513565b6000845111613a825760405162461bcd60e51b815260206004820152601d60248201527f44656c69766572792064657374696e6174696f6e2072657175697265640000006044820152606401610513565b6000600986604051613a949190615268565b908152602001604051809103902090506000816000018054613ab59061529a565b905011613b045760405162461bcd60e51b815260206004820152601c60248201527f547261646572206167656e6379206e6f742072656769737465726564000000006044820152606401610513565b60018101546001600160a01b03163314613b305760405162461bcd60e51b815260040161051390615806565b8315613cab576000816003018054613b479061529a565b905011613b8f5760405162461bcd60e51b81526020600482015260166024820152754d697373696e67206578706f7274206c6963656e736560501b6044820152606401610513565b42816004015411613bdb5760405162461bcd60e51b8152602060048201526016602482015275115e1c1bdc9d081b1a58d95b9cd948195e1c1a5c995960521b6044820152606401610513565b6000600383600201604051613bf0919061582f565b908152602001604051809103902090506000816003018054613c119061529a565b905011613c5b5760405162461bcd60e51b81526020600482015260186024820152774d697373696e67206661726d20636572746966696361746560401b6044820152606401610513565b42816004015411613ca95760405162461bcd60e51b815260206004820152601860248201527711985c9b4818d95c9d1a599a58d85d1948195e1c1a5c995960421b6044820152606401610513565b505b6006820180546001600160a01b0319163317905560098201613ccd868261535e565b5060058201805460ff191660011790556000868686613d13576040518060400160405280600f81526020016e2c205b4c6f63616c204f726465725d60881b815250613d42565b604051806040016040528060158152602001742c205b4578706f72743a2076616c6964617465645d60581b8152505b604051602001613d54939291906158a5565b60408051601f19818403018152828201909152600d82526c10985d18da0813dc99195c9959609a1b60208301529150610dac90899083600361483c565b60036000600985604051613da59190615268565b90815260405190819003602001902060018101549091506001600160a01b03163314613de35760405162461bcd60e51b815260040161051390615806565b6000845111613e2a5760405162461bcd60e51b8152602060048201526013602482015272115e1c1bdc9d0810d251081c995c5d5a5c9959606a1b6044820152606401610513565b428311613e795760405162461bcd60e51b815260206004820152601c60248201527f457870697279206d75737420626520696e2074686520667574757265000000006044820152606401610513565b6000816003018054613e8a9061529a565b80601f0160208091040260200160405190810160405280929190818152602001828054613eb69061529a565b8015613f035780601f10613ed857610100808354040283529160200191613f03565b820191906000526020600020905b815481529060010190602001808311613ee657829003601f168201915b5050505060048401549192505060038301613f1e878261535e565b50600483018590558151600090613f5057604051806040016040528060038152602001624e2f4160e81b815250613f52565b825b87613f5c846144cd565b613f65896144cd565b604051602001613f78949392919061592a565b60408051601f19818403018152828201909152601a825279115e1c1bdc9d0810d95c9d1a599a58d85d1948155c19185d195960321b60208301529150610dac90899083600361482c565b336000908152600a60209081526040808320805482518185028101850190935280835260609460039484015b828210156137e857838290600052602060002001805461400d9061529a565b80601f01602080910402602001604051908101604052809291908181526020018280546140399061529a565b80156140865780601f1061405b57610100808354040283529160200191614086565b820191906000526020600020905b81548152906001019060200180831161406957829003601f168201915b505050505081526020019060010190613fee565b600260006006836040516140ae9190615268565b9081526020016040518091039020905060008160000180546140cf9061529a565b9050116140ee5760405162461bcd60e51b8152600401610513906156c1565b600581015461010090046001600160a01b0316331461411f5760405162461bcd60e51b8152600401610513906156ef565b6000600582015460ff16600481111561413a5761413a61491e565b146141955760405162461bcd60e51b815260206004820152602560248201527f4f6e6c7920756e70726f6365737365642062617463682063616e2062652072656044820152641b5bdd995960da1b6064820152608401610513565b60058101805460ff19166004179055604080518082018252600d81526c10985d18da0811195b195d1959609a1b6020808301919091528251808401909352601e83527f4661726d6572206d61726b65642062617463682061732064656c65746564000090830152610fc491859190600261483c565b336000908152600460209081526040808320805482518185028101850190935280835260609460029484015b828210156137e85783829060005260206000200180546142559061529a565b80601f01602080910402602001604051908101604052809291908181526020018280546142819061529a565b80156142ce5780601f106142a3576101008083540402835291602001916142ce565b820191906000526020600020905b8154815290600101906020018083116142b157829003601f168201915b505050505081526020019060010190614236565b336000908152600760209081526040808320805482518185028101850190935280835260609460029484015b828210156137e857838290600052602060002001805461432d9061529a565b80601f01602080910402602001604051908101604052809291908181526020018280546143599061529a565b80156143a65780601f1061437b576101008083540402835291602001916143a6565b820191906000526020600020905b81548152906001019060200180831161438957829003601f168201915b50505050508152602001906001019061430e565b606060018260048111156143d0576143d061491e565b036143f657505060408051808201909152600581526420b236b4b760d91b602082015290565b600282600481111561440a5761440a61491e565b036144315750506040805180820190915260068152652330b936b2b960d11b602082015290565b60038260048111156144455761444561491e565b0361446c5750506040805180820190915260068152652a3930b232b960d11b602082015290565b60048260048111156144805761448061491e565b036144aa5750506040805180820190915260098152684c6f6769737469637360b81b602082015290565b50506040805180820190915260078152662ab735b737bbb760c91b602082015290565b6060816000036144f45750506040805180820190915260018152600360fc1b602082015290565b6000825b801561451e5781614508816152ea565b92506145179050600a826159da565b90506144f8565b6000826001600160401b0381111561453857614538614965565b6040519080825280601f01601f191660200182016040528015614562576020820181803683370190505b5090505b84156145cd576145776001846159ee565b9250614584600a86615a07565b61458f906030615a1b565b60f81b8184815181106145a4576145a4615284565b60200101906001600160f81b031916908160001a9053506145c6600a866159da565b9450614566565b949350505050565b6005846040516145e59190615268565b90815260200160405180910390206040518060a00160405280336001600160a01b0316815260200183600481111561461f5761461f61491e565b81526020808201879052604082018690524260609092019190915282546001810184556000938452928190208251600494850290910180546001600160a01b039092166001600160a01b031983168117825592840151939490939284926001600160a81b0319161790600160a01b90849081111561469f5761469f61491e565b0217905550604082015160018201906146b8908261535e565b50606082015160028201906146cd908261535e565b506080820151816003015550507fa58b61786ca221afb0dc63e40f6303a7630c2ec4814869abaf1fb1e8fc2f575684338386864260405161471396959493929190615a2e565b60405180910390a150505050565b600e846040516147319190615268565b90815260200160405180910390206040518060a00160405280336001600160a01b0316815260200183600481111561476b5761476b61491e565b81526020808201879052604082018690524260609092019190915282546001810184556000938452928190208251600494850290910180546001600160a01b039092166001600160a01b031983168117825592840151939490939284926001600160a81b0319161790600160a01b9084908111156147eb576147eb61491e565b021790555060408201516001820190614804908261535e565b5060608201516002820190614819908261535e565b5060808201518160030155505050505050565b600b846040516145e59190615268565b6008846040516145e59190615268565b508054600082556002029060005260206000209081019061486d9190614870565b50565b808211156137ef576000614884828261489b565b61489260018301600061489b565b50600201614870565b5080546148a79061529a565b6000825580601f106148b7575050565b601f01602090049060005260206000209081019061486d91905b808211156137ef57600081556001016148d1565b80356001600160a01b038116811461049857600080fd5b60006020828403121561490e57600080fd5b614917826148e5565b9392505050565b634e487b7160e01b600052602160045260246000fd5b6005811061486d57634e487b7160e01b600052602160045260246000fd5b6020810161495f83614934565b91905290565b634e487b7160e01b600052604160045260246000fd5b604051601f8201601f191681016001600160401b03811182821017156149a3576149a3614965565b604052919050565b600082601f8301126149bc57600080fd5b81356001600160401b038111156149d5576149d5614965565b6149e8601f8201601f191660200161497b565b8181528460208386010111156149fd57600080fd5b816020850160208301376000918101602001919091529392505050565b600060208284031215614a2c57600080fd5b81356001600160401b03811115614a4257600080fd5b6145cd848285016149ab565b60005b83811015614a69578181015183820152602001614a51565b50506000910152565b60008151808452614a8a816020860160208601614a4e565b601f01601f19169290920160200192915050565b600082825180855260208086019550808260051b84010181860160005b84811015614ae957601f19868403018952614ad7838351614a72565b98840198925090830190600101614abb565b5090979650505050505050565b60a081526000614b0960a0830188614a9e565b602083820381850152614b1c8289614a9e565b8481036040860152875180825282890193509082019060005b81811015614b5a5784516001600160a01b031683529383019391830191600101614b35565b50508481036060860152614b6e8188614a9e565b858103608087015286518082528388019450908301915060005b81811015614ba457845183529383019391830191600101614b88565b50909a9950505050505050505050565b60a081526000614bc760a0830188614a72565b8281036020840152614bd98188614a72565b6001600160a01b038716604085015283810360608501529050614bfc8186614a72565b9150508260808301529695505050505050565b600080600060608486031215614c2457600080fd5b83356001600160401b0380821115614c3b57600080fd5b614c47878388016149ab565b94506020860135915080821115614c5d57600080fd5b50614c6a868287016149ab565b925050604084013590509250925092565b60008060408385031215614c8e57600080fd5b82356001600160401b0380821115614ca557600080fd5b614cb1868387016149ab565b93506020850135915080821115614cc757600080fd5b50614cd4858286016149ab565b9150509250929050565b60008060408385031215614cf157600080fd5b614cfa836148e5565b9150602083013560058110614d0e57600080fd5b809150509250929050565b60008060008060808587031215614d2f57600080fd5b84356001600160401b0380821115614d4657600080fd5b614d52888389016149ab565b95506020870135915080821115614d6857600080fd5b614d74888389016149ab565b94506040870135915080821115614d8a57600080fd5b50614d97878288016149ab565b949793965093946060013593505050565b6000610160808352614dbc8184018f614a72565b90508281036020840152614dd0818e614a72565b90508281036040840152614de4818d614a72565b90508a60608401528281036080840152614dfe818b614a72565b9050614e0989614934565b60a083018990526001600160a01b0388811660c0850152871660e08401526001600160a01b038616610100840152828103610120840152614e4a8186614a72565b9050828103610140840152614e5f8185614a72565b9e9d5050505050505050505050505050565b606081526000614e846060830186614a72565b6001600160a01b03851660208401528281036040840152614ea58185614a72565b9695505050505050565b60006020808301818452808551808352604092508286019150828160051b87010184880160005b83811015614f2657888303603f1901855281518051878552614efa88860182614a72565b91890151858303868b0152919050614f128183614a72565b968901969450505090860190600101614ed6565b509098975050505050505050565b6020815260006149176020830184614a72565b600082601f830112614f5857600080fd5b813560206001600160401b0380831115614f7457614f74614965565b8260051b614f8383820161497b565b9384528581018301938381019088861115614f9d57600080fd5b84880192505b85831015614fd957823584811115614fbb5760008081fd5b614fc98a87838c01016149ab565b8352509184019190840190614fa3565b98975050505050505050565b600080600080600080600060e0888a03121561500057600080fd5b87356001600160401b038082111561501757600080fd5b6150238b838c016149ab565b985060208a013591508082111561503957600080fd5b6150458b838c016149ab565b975060408a0135965060608a013591508082111561506257600080fd5b61506e8b838c016149ab565b955060808a013591508082111561508457600080fd5b6150908b838c016149ab565b945060a08a01359150808211156150a657600080fd5b6150b28b838c01614f47565b935060c08a01359150808211156150c857600080fd5b506150d58a828b01614f47565b91505092959891949750929550565b600080600080600060a086880312156150fc57600080fd5b85356001600160401b038082111561511357600080fd5b61511f89838a016149ab565b965060208801359550604088013591508082111561513c57600080fd5b61514889838a016149ab565b9450606088013591508082111561515e57600080fd5b61516a89838a01614f47565b9350608088013591508082111561518057600080fd5b5061518d88828901614f47565b9150509295509295909350565b6020815260006149176020830184614a9e565b600080600080608085870312156151c357600080fd5b84356001600160401b03808211156151da57600080fd5b6151e6888389016149ab565b955060208701359150808211156151fc57600080fd5b615208888389016149ab565b9450604087013591508082111561521e57600080fd5b5061522b878288016149ab565b9250506060850135801515811461524157600080fd5b939692955090935050565b6000815161525e818560208601614a4e565b9290920192915050565b6000825161527a818460208701614a4e565b9190910192915050565b634e487b7160e01b600052603260045260246000fd5b600181811c908216806152ae57607f821691505b6020821081036152ce57634e487b7160e01b600052602260045260246000fd5b50919050565b634e487b7160e01b600052601160045260246000fd5b6000600182016152fc576152fc6152d4565b5060010190565b601f821115610fc457600081815260208120601f850160051c8101602086101561532a5750805b601f850160051c820191505b818110156113dc57828155600101615336565b600019600383901b1c191660019190911b1790565b81516001600160401b0381111561537757615377614965565b61538b81615385845461529a565b84615303565b602080601f8311600181146153ba57600084156153a85750858301515b6153b28582615349565b8655506113dc565b600085815260208120601f198616915b828110156153e9578886015182559484019460019091019084016153ca565b50858210156154075787850151600019600388901b60f8161c191681555b5050505050600190811b01905550565b60008551615429818460208a01614a4e565b808301905061205b60f01b808252865161544a816002850160208b01614a4e565b6b02e903ab83230ba3290169f160a51b60029390910192830152855161547781600e850160208a01614a4e565b600e9201918201528351615492816010840160208801614a4e565b605d60f81b601092909101918201526011019695505050505050565b6f021b932b0ba32b21030b3b2b731bc9d160851b8152600083516154d9816010850160208801614a4e565b6d0161022bc3837b93a1021a4a21d160951b601091840191820152835161550781601e840160208801614a4e565b01601e01949350505050565b6020808252600f908201526e10985d18da081b9bdd08199bdd5b99608a1b604082015260600190565b60208082526014908201527305175616e74697479206d757374206265203e20360641b604082015260600190565b6020808252601790820152764d69736d617463682064757269616e732f696d6167657360481b604082015260600190565b8181036155a6575050565b6155b0825461529a565b6001600160401b038111156155c7576155c7614965565b6155d581615385845461529a565b6000601f82116001811461560357600083156155f15750848201545b6155fb8482615349565b855550613709565b600085815260209020601f19841690600086815260209020845b8381101561563d578286015482556001958601959091019060200161561d565b50858310156154075793015460001960f8600387901b161c19169092555050600190811b01905550565b6020808252600f908201526e44757269616e20494420656d70747960881b604082015260600190565b60208082526017908201527644757269616e20696d616765206861736820656d70747960481b604082015260600190565b60208082526014908201527310985d18da08191bd95cc81b9bdd08195e1a5cdd60621b604082015260600190565b6020808252600e908201526d09cdee840f2deeae440c4c2e8c6d60931b604082015260600190565b69028bab0b73a34ba3c9d160b51b81526000875161573c81600a850160208c01614a4e565b808301905063010169f160e51b80600a830152885161576281600e850160208d01614a4e565b6b0161024b6b0b3b2a1a4a21d160a51b600e9390910192830152875161578f81601a850160208c01614a4e565b601a92019182015285516157aa81601e840160208a01614a4e565b6a01610223ab934b0b7399d160ad1b601e929091019182015284516157d6816029840160208901614a4e565b6157f86157f260298385010163010169f160e51b815260040190565b8661524c565b9a9950505050505050505050565b6020808252600f908201526e4e6f7420796f7572206167656e637960881b604082015260600190565b600080835461583d8161529a565b60018281168015615855576001811461586a57615899565b60ff1984168752821515830287019450615899565b8760005260208060002060005b858110156158905781548a820152908401908201615877565b50505082870194505b50929695505050505050565b7702130ba31b41037b93232b932b210313c9030b3b2b731bc960451b8152600084516158d8816018850160208901614a4e565b6e016102232b634bb32b93c903a379d1608d1b6018918401918201528451615907816027840160208901614a4e565b845191019061591d816027840160208801614a4e565b0160270195945050505050565b64021a4a21d160dd1b81526000855161594a816005850160208a01614a4e565b808301905063010169f160e51b8060058301528651615970816009850160208b01614a4e565b690161022bc3834b93c9d160b51b60099390910192830152855161599b816013850160208a01614a4e565b601392019182015283516159b6816017840160208801614a4e565b016017019695505050505050565b634e487b7160e01b600052601260045260246000fd5b6000826159e9576159e96159c4565b500490565b81810381811115615a0157615a016152d4565b92915050565b600082615a1657615a166159c4565b500690565b80820180821115615a0157615a016152d4565b60c081526000615a4160c0830189614a72565b6001600160a01b0388166020840152615a5987614934565b8660408401528281036060840152615a718187614a72565b90508281036080840152615a858186614a72565b9150508260a083015297965050505050505056fe4661726d657220637265617465642061206e65772064757269616e2062617463684c6f676973746963732070726f76696465722072656769737465726564206120636f6d70616e794e6f206d696c6573746f6e6520686973746f727920666f756e6420666f722074a2646970667358221220023b1bd793934d88aa66be64b7e13f23a3cee39c865f97cd0aff3aeb65337cf464736f6c63430008130033",
  "linkReferences": {},
  "deployedLinkReferences": {}
}