{
  "_format": "hh-sol-artifact-1",
  "contractName": "DurianChain",
  "sourceName": "contracts/DurianChain.sol",
  "abi": [
    {
      "inputs": [],
      "stateMutability": "nonpayable",
      "type": "constructor"
    },
    {
      "anonymous": false,
      "inputs": [
        {
          "indexed": true,
          "internalType": "address",
          "name": "user",
          "type": "address"
        }
      ],
      "name": "AdminRemoved",
      "type": "event"
    },
    {
      "anonymous": false,
      "inputs": [
        {
          "indexed": true,
          "internalType": "address",
          "name": "user",
          "type": "address"
        },
        {
          "indexed": false,
          "internalType": "enum DurianChain.Role",
          "name": "role",
          "type": "uint8"
        }
      ],
      "name": "RoleAssigned",
      "type": "event"
    },
    {
      "anonymous": false,
      "inputs": [
        {
          "indexed": false,
          "internalType": "string",
          "name": "batchId",
          "type": "string"
        },
        {
          "indexed": false,
          "internalType": "address",
          "name": "actor",
          "type": "address"
        },
        {
          "indexed": false,
          "internalType": "enum DurianChain.Role",
          "name": "role",
          "type": "uint8"
        },
        {
          "indexed": false,
          "internalType": "string",
          "name": "action",
          "type": "string"
        },
        {
          "indexed": false,
          "internalType": "string",
          "name": "description",
          "type": "string"
        },
        {
          "indexed": false,
          "internalType": "uint256",
          "name": "timestamp",
          "type": "uint256"
        }
      ],
      "name": "TransitionLogged",
      "type": "event"
    },
    {
      "inputs": [
        {
          "internalType": "address",
          "name": "user",
          "type": "address"
        },
        {
          "internalType": "enum DurianChain.Role",
          "name": "role",
          "type": "uint8"
        }
      ],
      "name": "assignRole",
      "outputs": [],
      "stateMutability": "nonpayable",
      "type": "function"
    },
    {
      "inputs": [
        {
          "internalType": "string",
          "name": "batchId",
          "type": "string"
        }
      ],
      "name": "cancelOrder",
      "outputs": [],
      "stateMutability": "nonpayable",
      "type": "function"
    },
    {
      "inputs": [
        {
          "internalType": "string",
          "name": "batchId",
          "type": "string"
        },
        {
          "internalType": "string",
          "name": "logisticsCompanyId",
          "type": "string"
        }
      ],
      "name": "collectBatch",
      "outputs": [],
      "stateMutability": "nonpayable",
      "type": "function"
    },
    {
      "inputs": [
        {
          "internalType": "string",
          "name": "batchId",
          "type": "string"
        }
      ],
      "name": "confirmDelivery",
      "outputs": [],
      "stateMutability": "nonpayable",
      "type": "function"
    },
    {
      "inputs": [
        {
          "internalType": "string",
          "name": "batchId",
          "type": "string"
        },
        {
          "internalType": "string",
          "name": "variety",
          "type": "string"
        },
        {
          "internalType": "uint256",
          "name": "quantity",
          "type": "uint256"
        },
        {
          "internalType": "string",
          "name": "farmId",
          "type": "string"
        },
        {
          "internalType": "string",
          "name": "batchImageCID",
          "type": "string"
        },
        {
          "internalType": "string[]",
          "name": "durianIds",
          "type": "string[]"
        },
        {
          "internalType": "string[]",
          "name": "imageHashes",
          "type": "string[]"
        }
      ],
      "name": "createBatch",
      "outputs": [],
      "stateMutability": "nonpayable",
      "type": "function"
    },
    {
      "inputs": [
        {
          "internalType": "string",
          "name": "agencyId",
          "type": "string"
        },
        {
          "internalType": "string",
          "name": "agencyName",
          "type": "string"
        },
        {
          "internalType": "string",
          "name": "exportLicenseCID",
          "type": "string"
        },
        {
          "internalType": "uint256",
          "name": "exportLicenseExpiry",
          "type": "uint256"
        }
      ],
      "name": "createTraderAgency",
      "outputs": [],
      "stateMutability": "nonpayable",
      "type": "function"
    },
    {
      "inputs": [
        {
          "internalType": "string",
          "name": "batchId",
          "type": "string"
        }
      ],
      "name": "getBatchById",
      "outputs": [
        {
          "internalType": "string",
          "name": "",
          "type": "string"
        },
        {
          "internalType": "string",
          "name": "",
          "type": "string"
        },
        {
          "internalType": "string",
          "name": "",
          "type": "string"
        },
        {
          "internalType": "uint256",
          "name": "",
          "type": "uint256"
        },
        {
          "internalType": "string",
          "name": "",
          "type": "string"
        },
        {
          "internalType": "enum DurianChain.Status",
          "name": "",
          "type": "uint8"
        },
        {
          "internalType": "address",
          "name": "",
          "type": "address"
        },
        {
          "internalType": "address",
          "name": "",
          "type": "address"
        },
        {
          "internalType": "address",
          "name": "",
          "type": "address"
        },
        {
          "internalType": "string",
          "name": "",
          "type": "string"
        },
        {
          "internalType": "string",
          "name": "",
          "type": "string"
        },
        {
          "internalType": "string",
          "name": "",
          "type": "string"
        },
        {
          "internalType": "string",
          "name": "",
          "type": "string"
        }
      ],
      "stateMutability": "view",
      "type": "function"
    },
    {
      "inputs": [
        {
          "internalType": "string",
          "name": "batchId",
          "type": "string"
        }
      ],
      "name": "getBatchMilestone",
      "outputs": [
        {
          "internalType": "string[]",
          "name": "actions",
          "type": "string[]"
        },
        {
          "internalType": "string[]",
          "name": "descriptions",
          "type": "string[]"
        },
        {
          "internalType": "address[]",
          "name": "actors",
          "type": "address[]"
        },
        {
          "internalType": "string[]",
          "name": "roleNames",
          "type": "string[]"
        },
        {
          "internalType": "uint256[]",
          "name": "timestamps",
          "type": "uint256[]"
        }
      ],
      "stateMutability": "view",
      "type": "function"
    },
    {
      "inputs": [
        {
          "internalType": "string",
          "name": "batchId",
          "type": "string"
        }
      ],
      "name": "getDuriansByBatchId",
      "outputs": [
        {
          "components": [
            {
              "internalType": "string",
              "name": "id",
              "type": "string"
            },
            {
              "internalType": "string",
              "name": "imageHash",
              "type": "string"
            }
          ],
          "internalType": "struct DurianChain.Durian[]",
          "name": "",
          "type": "tuple[]"
        }
      ],
      "stateMutability": "view",
      "type": "function"
    },
    {
      "inputs": [
        {
          "internalType": "string",
          "name": "farmId",
          "type": "string"
        }
      ],
      "name": "getFarmById",
      "outputs": [
        {
          "internalType": "string",
          "name": "",
          "type": "string"
        },
        {
          "internalType": "string",
          "name": "",
          "type": "string"
        },
        {
          "internalType": "address",
          "name": "",
          "type": "address"
        },
        {
          "internalType": "string",
          "name": "",
          "type": "string"
        },
        {
          "internalType": "uint256",
          "name": "",
          "type": "uint256"
        }
      ],
      "stateMutability": "view",
      "type": "function"
    },
    {
      "inputs": [
        {
          "internalType": "string",
          "name": "farmId",
          "type": "string"
        }
      ],
      "name": "getFarmMilestone",
      "outputs": [
        {
          "internalType": "string[]",
          "name": "actions",
          "type": "string[]"
        },
        {
          "internalType": "string[]",
          "name": "descriptions",
          "type": "string[]"
        },
        {
          "internalType": "address[]",
          "name": "actors",
          "type": "address[]"
        },
        {
          "internalType": "string[]",
          "name": "roleNames",
          "type": "string[]"
        },
        {
          "internalType": "uint256[]",
          "name": "timestamps",
          "type": "uint256[]"
        }
      ],
      "stateMutability": "view",
      "type": "function"
    },
    {
      "inputs": [
        {
          "internalType": "string",
          "name": "companyId",
          "type": "string"
        }
      ],
      "name": "getLogisticsById",
      "outputs": [
        {
          "internalType": "string",
          "name": "",
          "type": "string"
        },
        {
          "internalType": "address",
          "name": "",
          "type": "address"
        },
        {
          "internalType": "string",
          "name": "",
          "type": "string"
        }
      ],
      "stateMutability": "view",
      "type": "function"
    },
    {
      "inputs": [
        {
          "internalType": "string",
          "name": "companyId",
          "type": "string"
        }
      ],
      "name": "getLogisticsMilestone",
      "outputs": [
        {
          "internalType": "string[]",
          "name": "actions",
          "type": "string[]"
        },
        {
          "internalType": "string[]",
          "name": "descriptions",
          "type": "string[]"
        },
        {
          "internalType": "address[]",
          "name": "actors",
          "type": "address[]"
        },
        {
          "internalType": "string[]",
          "name": "roleNames",
          "type": "string[]"
        },
        {
          "internalType": "uint256[]",
          "name": "timestamps",
          "type": "uint256[]"
        }
      ],
      "stateMutability": "view",
      "type": "function"
    },
    {
      "inputs": [],
      "name": "getMyBatchIds",
      "outputs": [
        {
          "internalType": "string[]",
          "name": "",
          "type": "string[]"
        }
      ],
      "stateMutability": "view",
      "type": "function"
    },
    {
      "inputs": [],
      "name": "getMyFarmIds",
      "outputs": [
        {
          "internalType": "string[]",
          "name": "",
          "type": "string[]"
        }
      ],
      "stateMutability": "view",
      "type": "function"
    },
    {
      "inputs": [],
      "name": "getMyLogisticsCompanyIds",
      "outputs": [
        {
          "internalType": "string[]",
          "name": "",
          "type": "string[]"
        }
      ],
      "stateMutability": "view",
      "type": "function"
    },
    {
      "inputs": [],
      "name": "getMyRoleAsString",
      "outputs": [
        {
          "internalType": "string",
          "name": "",
          "type": "string"
        }
      ],
      "stateMutability": "view",
      "type": "function"
    },
    {
      "inputs": [],
      "name": "getMyTraderAgencyIds",
      "outputs": [
        {
          "internalType": "string[]",
          "name": "",
          "type": "string[]"
        }
      ],
      "stateMutability": "view",
      "type": "function"
    },
    {
      "inputs": [
        {
          "internalType": "string",
          "name": "agencyId",
          "type": "string"
        }
      ],
      "name": "getTraderAgencyById",
      "outputs": [
        {
          "internalType": "string",
          "name": "",
          "type": "string"
        },
        {
          "internalType": "string",
          "name": "",
          "type": "string"
        },
        {
          "internalType": "address",
          "name": "",
          "type": "address"
        },
        {
          "internalType": "string",
          "name": "",
          "type": "string"
        },
        {
          "internalType": "uint256",
          "name": "",
          "type": "uint256"
        }
      ],
      "stateMutability": "view",
      "type": "function"
    },
    {
      "inputs": [
        {
          "internalType": "string",
          "name": "agencyId",
          "type": "string"
        }
      ],
      "name": "getTraderAgencyMilestone",
      "outputs": [
        {
          "internalType": "string[]",
          "name": "actions",
          "type": "string[]"
        },
        {
          "internalType": "string[]",
          "name": "descriptions",
          "type": "string[]"
        },
        {
          "internalType": "address[]",
          "name": "actors",
          "type": "address[]"
        },
        {
          "internalType": "string[]",
          "name": "roleNames",
          "type": "string[]"
        },
        {
          "internalType": "uint256[]",
          "name": "timestamps",
          "type": "uint256[]"
        }
      ],
      "stateMutability": "view",
      "type": "function"
    },
    {
      "inputs": [
        {
          "internalType": "address",
          "name": "user",
          "type": "address"
        }
      ],
      "name": "getUserRole",
      "outputs": [
        {
          "internalType": "enum DurianChain.Role",
          "name": "",
          "type": "uint8"
        }
      ],
      "stateMutability": "view",
      "type": "function"
    },
    {
      "inputs": [
        {
          "internalType": "address",
          "name": "",
          "type": "address"
        }
      ],
      "name": "isAdmin",
      "outputs": [
        {
          "internalType": "bool",
          "name": "",
          "type": "bool"
        }
      ],
      "stateMutability": "view",
      "type": "function"
    },
    {
      "inputs": [
        {
          "internalType": "string",
          "name": "batchId",
          "type": "string"
        },
        {
          "internalType": "string",
          "name": "agencyId",
          "type": "string"
        },
        {
          "internalType": "string",
          "name": "deliveryDestination",
          "type": "string"
        },
        {
          "internalType": "bool",
          "name": "isExport",
          "type": "bool"
        }
      ],
      "name": "orderBatch",
      "outputs": [],
      "stateMutability": "nonpayable",
      "type": "function"
    },
    {
      "inputs": [
        {
          "internalType": "string",
          "name": "farmId",
          "type": "string"
        },
        {
          "internalType": "string",
          "name": "location",
          "type": "string"
        },
        {
          "internalType": "string",
          "name": "certificateCID",
          "type": "string"
        },
        {
          "internalType": "uint256",
          "name": "certificateExpiry",
          "type": "uint256"
        }
      ],
      "name": "registerFarm",
      "outputs": [],
      "stateMutability": "nonpayable",
      "type": "function"
    },
    {
      "inputs": [
        {
          "internalType": "string",
          "name": "companyId",
          "type": "string"
        },
        {
          "internalType": "string",
          "name": "companyName",
          "type": "string"
        }
      ],
      "name": "registerLogisticsCompany",
      "outputs": [],
      "stateMutability": "nonpayable",
      "type": "function"
    },
    {
      "inputs": [
        {
          "internalType": "string",
          "name": "batchId",
          "type": "string"
        }
      ],
      "name": "removeBatch",
      "outputs": [],
      "stateMutability": "nonpayable",
      "type": "function"
    },
    {
      "inputs": [
        {
          "internalType": "address",
          "name": "",
          "type": "address"
        }
      ],
      "name": "roles",
      "outputs": [
        {
          "internalType": "enum DurianChain.Role",
          "name": "",
          "type": "uint8"
        }
      ],
      "stateMutability": "view",
      "type": "function"
    },
    {
      "inputs": [],
      "name": "superAdmin",
      "outputs": [
        {
          "internalType": "address",
          "name": "",
          "type": "address"
        }
      ],
      "stateMutability": "view",
      "type": "function"
    },
    {
      "inputs": [
        {
          "internalType": "string",
          "name": "batchId",
          "type": "string"
        },
        {
          "internalType": "uint256",
          "name": "newQuantity",
          "type": "uint256"
        },
        {
          "internalType": "string",
          "name": "newBatchImageCID",
          "type": "string"
        },
        {
          "internalType": "string[]",
          "name": "newDurianIds",
          "type": "string[]"
        },
        {
          "internalType": "string[]",
          "name": "newImageHashes",
          "type": "string[]"
        }
      ],
      "name": "updateBatchInfo",
      "outputs": [],
      "stateMutability": "nonpayable",
      "type": "function"
    },
    {
      "inputs": [
        {
          "internalType": "string",
          "name": "farmId",
          "type": "string"
        },
        {
          "internalType": "string",
          "name": "newCertificateCID",
          "type": "string"
        },
        {
          "internalType": "uint256",
          "name": "newExpiry",
          "type": "uint256"
        }
      ],
      "name": "updateFarmCertificate",
      "outputs": [],
      "stateMutability": "nonpayable",
      "type": "function"
    },
    {
      "inputs": [
        {
          "internalType": "string",
          "name": "agencyId",
          "type": "string"
        },
        {
          "internalType": "string",
          "name": "newExportCID",
          "type": "string"
        },
        {
          "internalType": "uint256",
          "name": "newExportExpiry",
          "type": "uint256"
        }
      ],
      "name": "updateTraderAgencyCertificate",
      "outputs": [],
      "stateMutability": "nonpayable",
      "type": "function"
    }
  ],
  "bytecode": "0x60808060405234610055573360018060a01b03196000541617600055336000526001602052604060002060ff19906001828254161790556002602052600160406000209182541617905561400a908161005b8239f35b600080fdfe608080604052600436101561001357600080fd5b60003560e01c90816324d7806c14612e9f575080632782085114611ec557806329575f6a14612e765780632d12d96914612d855780633270bd0514612ce3578063373f8b7014612ae95780633fcabe35146128755780634d5fbbe2146127ab578063630a195b146126705780636b74306c1461246157806372e855ff1461236357806375b02148146121ab578063797f27ff146120c55780638f270d5f14611f0b5780639937464214611ec55780639fb50d5514611dd2578063a450646014611c24578063a7f9769214611a6e578063b0f41eb114611a2c578063b97995a0146115c4578063bc54180a14611097578063c153251e14610ecf578063c17d442314610e4d578063c2558ffd14610c74578063d15783df146107d8578063d2bbdec2146105bd578063ef1b26fa1461053b578063f11d77ea146103e7578063f342df7d14610281578063f68e1141146101ff5763fc856e381461017457600080fd5b346101fa5760003660031901126101fa573360005260206007815260406000209081546101a081613274565b926101ae6040519485612f61565b8184526000908152828120838086015b8484106101dc57604051828152806101d88185018a61302c565b0390f35b60019182916101ea8561350b565b81520192019201919084906101be565b600080fd5b346101fa5760003660031901126101fa5733600052602060048152604060002090815461022b81613274565b926102396040519485612f61565b8184526000908152828120838086015b84841061026357604051828152806101d88185018a61302c565b60019182916102718561350b565b8152019201920191908490610249565b346101fa5761028f366131cc565b604051808351602092816102a7859383858a01612fe4565b81016006815203019020926102c66102bf855461330b565b1515613997565b60058401600160ff8254166102da81612ef0565b036103a2576103058460098760076103a09901336001600160601b0360a01b825416179055016133a3565b600260ff19825416179055610374604660405180957102637b3b4b9ba34b1b99031b7b6b830b73c960751b868301526103478151809288603286019101612fe4565b810173040c6ded8d8cac6e8cac840e8d0ca40c4c2e8c6d60631b6032820152036026810186520184612f61565b6e10985d18da0810dbdb1b1958dd1959608a1b6040519261039484612f2b565b600f8452830152613bb0565b005b60405162461bcd60e51b815260048101849052601e60248201527f4261746368206e6f7420726561647920666f7220636f6c6c656374696f6e00006044820152606490fd5b346101fa576020806003193601126101fa576004356001600160401b0381116101fa57610418903690600401612f9d565b9060056040518281855161042f8183858a01612fe4565b8101600681520301902061044d610446825461330b565b151561380d565b018054929061046a600885901c6001600160a01b03163314613850565b60ff841661047781612ef0565b6104e85760046103a09460ff19161790556040519061049582612f2b565b600d82526c10985d18da0811195b195d1959609a1b838301527f4661726d6572206d61726b65642062617463682061732064656c657465640000604051936104dc85612f2b565b601e8552840152613c62565b60405162461bcd60e51b815260048101849052602560248201527f4f6e6c7920756e70726f6365737365642062617463682063616e2062652072656044820152641b5bdd995960da1b6064820152608490fd5b346101fa5760003660031901126101fa57336000526020600a8152604060002090815461056781613274565b926105756040519485612f61565b8184526000908152828120838086015b84841061059f57604051828152806101d88185018a61302c565b60019182916105ad8561350b565b8152019201920191908490610585565b346101fa576105cb36613182565b909160405190818151602093816105e6869383858801612fe4565b810160098152030190209361060860018060a01b0360018701541633146138d6565b80511561079d5742841115610758576037856106f69260036103a09801918760046106328561350b565b9201610640848254966133a3565b558051156107305761065561065b9193613ecf565b97613ecf565b9060405197889364021a4a21d160dd1b89860152610682815180928b602589019101612fe4565b84019163010169f160e51b928360258201526106a7825180938c602985019101612fe4565b01690161022bc3834b93c9d160b51b60298201526106ce825180938b603385019101612fe4565b019060338201526106e782518093898785019101612fe4565b01036017810186520184612f61565b7f4578706f727420436572746966696361746520557064617465640000000000006040519261072484612f2b565b601a8452830152613d1b565b5061065b61065560405161074381612f2b565b60038152624e2f4160e81b8982015293613ecf565b60405162461bcd60e51b815260048101849052601c60248201527f457870697279206d75737420626520696e2074686520667574757265000000006044820152606490fd5b60405162461bcd60e51b8152600481018490526013602482015272115e1c1bdc9d0810d251081c995c5d5a5c9959606a1b6044820152606490fd5b346101fa5760803660031901126101fa576001600160401b036004358181116101fa57610809903690600401612f9d565b6024358281116101fa57610821903690600401612f9d565b916044359081116101fa5761083a903690600401612f9d565b906064351515606435036101fa57604051602081835161085d8183858801612fe4565b810160068152030190209260ff60058501541661087981612ef0565b610c2557825115610be05760405160208183516108998183858801612fe4565b810160098152030190206108ad815461330b565b15610b9b576108c960018060a01b0360018301541633146138d6565b606435610a39575b506006840180546001600160a01b031916331790556103a0936109e0916047916108fe82600883016133a3565b61090b86600b83016133a3565b600501805460ff1916600117905560643515610a0c5760405161092d81612f2b565b60158152742c205b4578706f72743a2076616c6964617465645d60581b60208201525b6040519586927f4261746368206f726465726564206279206167656e63792000000000000000006020850152610990815180926020603888019101612fe4565b83016e016102232b634bb32b93c903a379d1608d1b60388201526109bd8251809360208885019101612fe4565b016109d18251809360208785019101612fe4565b01036027810185520183612f61565b604051906109ed82612f2b565b600d82526c10985d18da0813dc99195c9959609a1b6020830152613ca6565b604051610a1881612f2b565b600f81526e2c205b4c6f63616c204f726465725d60881b6020820152610950565b610a46600382015461330b565b15610b5d5760040154421015610b1f57604051602081610a698160028901613914565b6003815203019020610a7e600382015461330b565b15610ada576004429101541115610a9557846108d1565b60405162461bcd60e51b815260206004820152601860248201527f4661726d206365727469666963617465206578706972656400000000000000006044820152606490fd5b60405162461bcd60e51b815260206004820152601860248201527f4d697373696e67206661726d20636572746966696361746500000000000000006044820152606490fd5b60405162461bcd60e51b8152602060048201526016602482015275115e1c1bdc9d081b1a58d95b9cd948195e1c1a5c995960521b6044820152606490fd5b60405162461bcd60e51b81526020600482015260166024820152754d697373696e67206578706f7274206c6963656e736560501b6044820152606490fd5b60405162461bcd60e51b815260206004820152601c60248201527f547261646572206167656e6379206e6f742072656769737465726564000000006044820152606490fd5b60405162461bcd60e51b815260206004820152601d60248201527f44656c69766572792064657374696e6174696f6e2072657175697265640000006044820152606490fd5b60405162461bcd60e51b815260206004820152602160248201527f4f6e6c7920637265617465642062617463682063616e206265206f72646572656044820152601960fa1b6064820152608490fd5b346101fa576020806003193601126101fa576004356001600160401b0381116101fa57610ca5903690600401612f9d565b9060405181818451610cba8183858901612fe4565b8101600681520301902091610cd2610446845461330b565b60058301600160ff825416610ce681612ef0565b03610dfc57600684018054336001600160a01b03821603610db7576103a0956000926008926001600160601b0360a01b16905501610d24815461330b565b601f8111610d99575b5055805460ff1916905560405190610d4482612f2b565b600f82526e13dc99195c8810d85b98d95b1b1959608a1b838301527f5472616465722063616e63656c6c656420746865206f7264657200000000000060405193610d8d85612f2b565b601a8552840152613ca6565b818352858320610db191601f0160051c810190613345565b86610d2d565b60405162461bcd60e51b815260048101869052601c60248201527f596f7520646964206e6f74206f726465722074686973206261746368000000006044820152606490fd5b60405162461bcd60e51b815260048101849052602360248201527f4f6e6c79206f7264657265642062617463682063616e2062652063616e63656c6044820152621b195960ea1b6064820152608490fd5b346101fa5760003660031901126101fa57336000526020600d81526040600020908154610e7981613274565b92610e876040519485612f61565b8184526000908152828120838086015b848410610eb157604051828152806101d88185018a61302c565b6001918291610ebf8561350b565b8152019201920191908490610e97565b346101fa57610edd36613212565b91929081511561105f578351156110265760405192825191610f1c602095868181880196610f0c81838a612fe4565b810160038152030190205461330b565b610fea5784610f72936103a09793610f639360405195610f3b87612f10565b8887523385880152604087015260608601526080850152604051809381928851928391612fe4565b8101600381520301902061346a565b3360005260048252610f888160406000206134c6565b60405190610f9582612f2b565b600f82526e11985c9b48149959da5cdd195c9959608a1b838301527f4661726d657220726567697374657265642061206e6577206661726d0000000060405193610fde85612f2b565b601c8552840152613b36565b60405162461bcd60e51b815260048101869052601460248201527311985c9b48125108185b1c9958591e481d5cd95960621b6044820152606490fd5b60405162461bcd60e51b8152602060048201526011602482015270131bd8d85d1a5bdb881c995c5d5a5c9959607a1b6044820152606490fd5b60405162461bcd60e51b815260206004820152601060248201526f11985c9b481251081c995c5d5a5c995960821b6044820152606490fd5b346101fa5760a03660031901126101fa576001600160401b036004358181116101fa576110c8903690600401612f9d565b90602435916044358281116101fa576110e5903690600401612f9d565b906064358381116101fa576110fe90369060040161328b565b926084358181116101fa5761111790369060040161328b565b936040519384845160209681611131899383858b01612fe4565b8101600681520301902090611149610446835461330b565b600582015460ff90611169600882901c6001600160a01b03163314613850565b1661117381612ef0565b611559576111828815156135af565b80511561151f576003820193845497600a8401946111b284600c6111a58961350b565b9701978d89549a556133a3565b80518015801590611515575b611401575b50506040519188830191508111828210176113eb576103a09981604052600083528299818103611364575b50505050815186830190812092825193888401948520036112d8575b505050505490818103611249575b50507110985d18da08125b999bc8155c19185d195960721b6040519261123d84612f2b565b60128452830152613c62565b6112d091929461126361125d602d93613ecf565b94613ecf565b604051948261127b87945180928a8088019101612fe4565b8301680223ab934b0b7399d160bd1b888201526112a1825180938a602985019101612fe4565b0163010169f160e51b60298201526112c182518093898785019101612fe4565b0103600d810184520182612f61565b918480611218565b92603092611340611311969a938a61132461135a9869024b6b0b3b2a1a4a21d160b51b836040519c8d8b83829d51948593019101612fe4565b890193840152518093602a840190612fe4565b019163010169f160e51b602a840152518093602e840190612fe4565b0161016160f51b602e820152036010810184520182612f61565b938680808061120a565b89949a50916113e1939161138261137c603095613ecf565b91613ecf565b9161139860405197889551928391870190612fe4565b830169028bab0b73a34ba3c9d160b51b8c8201526113c08c8351938491602a85019101612fe4565b0163010169f160e51b602a820152611340825180938d602e85019101612fe4565b95888080806111ee565b634e487b7160e01b600052604160045260246000fd5b61141890839c979a99959298949b969351146135f2565b885460008a55806114b2575b5060005b875181101561149e57806114948d61147a83611473818e61145861144f6114999a83613729565b5151151561373d565b61146e6114658388613729565b5151151561377b565b613729565b5192613729565b516040519161148883612f2b565b82528c8201528c6137c7565b61371a565b611428565b5092969794995092979094508980806111c3565b6001600160ff1b03811681036114ff57896000528860002090600190811b8201915b8281106114e2575050611424565b806114ee60029261388d565b6114f983820161388d565b016114d4565b634e487b7160e01b600052601160045260246000fd5b50825115156111be565b60405162461bcd60e51b8152600481018790526012602482015271125b5859d94810d251081c995c5d5a5c995960721b6044820152606490fd5b60405162461bcd60e51b815260048101879052603960248201527f4261746368206d75737420626520696e2027437265617465642720737461746560448201527f20286e6f74206f726465726564206f722064656c6574656429000000000000006064820152608490fd5b346101fa5760e03660031901126101fa576001600160401b036004358181116101fa576115f5903690600401612f9d565b60249081358381116101fa5761160f903690600401612f9d565b60449283359460649485358281116101fa5761162f903690600401612f9d565b906084358381116101fa57611648903690600401612f9d565b9160a4358481116101fa5761166190369060040161328b565b9360c4359081116101fa5761167a90369060040161328b565b988751156119f6578651156119bf576116948115156135af565b83511561197d57604051988251936116b960209b8c8181880198610f0c81838c612fe4565b15611947576040519784516116cf818b89612fe4565b8901600381528c60019a8b918160018060a01b039403019020015416330361190757908a929160038d604051908181885198019761170e81838b612fe4565b8101600681520301902001546118d05750505061179c8a6117da958b97956117b0958f8c9d611772611761878f9a8f61175061177a9760029e519051146135f2565b604051938492839251928391612fe4565b810160068152030190209c8d6133a3565b8d8c016133a3565b61178682878c016133a3565b60038a0155604051938492839251928391612fe4565b81016003815203019020016004850161363e565b6005830180546001600160a81b0319163360081b610100600160a81b0316179055600a83016133a3565b600c60009101925b61186c575b6103a0868633600052600782526118028160406000206134c6565b6040519061180f82612f2b565b600d82526c10985d18da0810dc99585d1959609a1b838301527f4661726d657220637265617465642061206e65772064757269616e20626174636040519361185685612f46565b60218552840152600d60fb1b6040840152613c62565b81518110156118cb578061188661144f6118c59385613729565b611893611465828a613729565b6114946118a08285613729565b516118ab838b613729565b51604051916118b983612f2b565b825289820152856137c7565b836117e2565b6117e7565b8c91601473426174636820616c72656164792065786973747360601b926040519462461bcd60e51b86526004860152840152820152fd5b8b9160187f596f7520646f206e6f74206f776e2074686973206661726d0000000000000000926040519462461bcd60e51b86526004860152840152820152fd5b7211985c9b481b9bdd081c9959da5cdd195c9959606a1b8b9160138a6040519462461bcd60e51b86526004860152840152820152fd5b60405162461bcd60e51b8152602060048201526018818801527f426174636820696d616765204349442072657175697265640000000000000000818501528990fd5b60405162461bcd60e51b81526020600482015260128188015271119bdbd9081b985b59481c995c5d5a5c995960721b818501528990fd5b60405162461bcd60e51b8152602060048201526011818801527010985d18da081251081c995c5d5a5c9959607a1b818501528990fd5b346101fa5760003660031901126101fa573360005260026020526101d8611a5a60ff60406000205416613d5f565b604051918291602083526020830190613007565b346101fa5760203660031901126101fa576004356001600160401b0381116101fa576020611aa3611ab6923690600401612f9d565b8160405193828580945193849201612fe4565b8101600881520301902080548015611bdf57611ad181613e53565b611ada82613e53565b91611ae481613e9d565b611aed82613e53565b90611af783613e9d565b9260005b818110611b16575050906101d8929160405195869586613081565b80611b306001611b29611bda948c6139d5565b500161350b565b611b3a8289613729565b52611b458188613729565b50611b556002611b29838c6139d5565b611b5f828a613729565b52611b6a8189613729565b50611b75818a6139d5565b50546001600160a01b0316611b8a8286613729565b52611ba560ff611b9a838c6139d5565b505460a01c16613d5f565b611baf8287613729565b52611bba8186613729565b506003611bc7828b6139d5565b500154611bd48288613729565b5261371a565b611afb565b60405162461bcd60e51b81526020600482015260296024820152600080516020613fb58339815191526044820152680d0d2e640c4c2e8c6d60bb1b6064820152608490fd5b346101fa576020806003193601126101fa576004356001600160401b0381116101fa57611c55903690600401612f9d565b60405182818351611c698183858801612fe4565b81016006815203019020611c806102bf825461330b565b600581018054600260ff8216611c9581612ef0565b03611d8d5760078301546001600160a01b03163303611d3d5760146103a09593611cf495936003611d1d9460ff19161790556040519586917102637b3b4b9ba34b1b99031b7b6b830b73c960751b878401526009603284019101613914565b73040c8cad8d2eccae4cac840e8d0ca40c4c2e8c6d60631b815203600b19810186520184612f61565b6e10985d18da0811195b1a5d995c9959608a1b6040519261039484612f2b565b60405162461bcd60e51b815260048101869052602260248201527f596f7520617265206e6f74207468652061737369676e6564206c6f6769737469604482015261637360f01b6064820152608490fd5b60405162461bcd60e51b815260048101869052601d60248201527f4261746368206d75737420626520636f6c6c65637465642066697273740000006044820152606490fd5b346101fa5760203660031901126101fa576004356001600160401b0381116101fa576020611aa3611e07923690600401612f9d565b8101600b81520301902080548015611e7f57611e2281613e53565b611e2b82613e53565b91611e3581613e9d565b611e3e82613e53565b90611e4883613e9d565b9260005b818110611e67575050906101d8929160405195869586613081565b80611b306001611b29611e7a948c6139d5565b611e4c565b60405162461bcd60e51b815260206004820152602a6024820152600080516020613fb5833981519152604482015269686973206167656e637960b01b6064820152608490fd5b346101fa5760203660031901126101fa576001600160a01b03611ee6612eda565b166000526002602052602060ff6040600020541660405190611f0781612ef0565b8152f35b346101fa576020806003193601126101fa576004356001600160401b0381116101fa57611f3c903690600401612f9d565b60405190600c815192848181850195611f56818389612fe4565b810160068152030190200154156120805782600c92611f8092604051938492839251928391612fe4565b810160068152030190200190815491611f9883613274565b92611fa66040519485612f61565b8084528284018092600052836000206000915b8383106120405750505050604051918083019381845251809452604083019360408160051b85010192916000955b828710611ff45785850386f35b909192938280612030600193603f198a8203018652885190836120208351604084526040840190613007565b9201519084818403910152613007565b9601920196019592919092611fe7565b60028660019260409998995161205581612f2b565b61205e8661350b565b815261206b85870161350b565b83820152815201920192019190959495611fb9565b60405162461bcd60e51b815260048101849052601e60248201527f4e6f2064757269616e7320666f756e6420696e207468697320626174636800006044820152606490fd5b346101fa5760203660031901126101fa576004356001600160401b0381116101fa576020611aa36120fa923690600401612f9d565b8101600c81520301902061210e815461330b565b1561216657600181015461215391906101d8906001600160a01b031661213f60026121388561350b565b940161350b565b604051948594606086526060860190613007565b9160208501528382036040850152613007565b60405162461bcd60e51b815260206004820152601b60248201527f4c6f6769737469637320636f6d70616e79206e6f7420666f756e6400000000006044820152606490fd5b346101fa5760203660031901126101fa576004356001600160401b0381116101fa576121db903690600401612f9d565b60405181818093516020819301916121f292612fe4565b81016006815203602001902080546122099061330b565b151561221490613997565b60038101546005820154600683015460078401546001600160a01b039182169490821693919290919060ff811661224a8461350b565b956122576001860161350b565b976122646002870161350b565b966122716004880161350b565b9461227e6008890161350b565b9561228b60098a0161350b565b97612298600a8b0161350b565b99600b016122a59061350b565b9a6040519d8e809e6101a080835282016122be91613007565b9080820390602001526122d091613007565b8d810360408f01526122e191613007565b9060608d01528b810360808d01526122f891613007565b9461230281612ef0565b60a08b015260081c1660c089015260e088015261010087015285810361012087015261232d91613007565b84810361014086015261233f91613007565b83810361016085015261235191613007565b8281036101808401526101d891613007565b346101fa5760203660031901126101fa576004356001600160401b0381116101fa576020611aa3612398923690600401612f9d565b8101600e81520301902080548015612410576123b381613e53565b6123bc82613e53565b916123c681613e9d565b6123cf82613e53565b906123d983613e9d565b9260005b8181106123f8575050906101d8929160405195869586613081565b80611b306001611b2961240b948c6139d5565b6123dd565b60405162461bcd60e51b81526020600482015260356024820152600080516020613fb5833981519152604482015274686973206c6f6769737469637320636f6d70616e7960581b6064820152608490fd5b346101fa5761246f36613212565b909192805115612636578351156125fa576040519181516124ad60209485818187019461249d818388612fe4565b810160098152030190205461330b565b6125b5576103a09561250961258a936124fa87603e95604051936124d085612f10565b89855233838601528660408601528b60608601526080850152604051809381928b51928391612fe4565b8101600981520301902061346a565b33600052600a855261251f8460406000206134c6565b6040519586916f021b932b0ba32b21030b3b2b731bc9d160851b878401526125508151809289603087019101612fe4565b82016d0161022bc3837b93a1021a4a21d160951b603082015261257b82518093898785019101612fe4565b0103601e810186520184612f61565b6d1059d95b98de4810dc99585d195960921b604051926125a984612f2b565b600e8452830152613d1b565b60405162461bcd60e51b815260048101859052601860248201527f4167656e637920494420616c72656164792065786973747300000000000000006044820152606490fd5b60405162461bcd60e51b81526020600482015260146024820152731059d95b98de481b985b59481c995c5d5a5c995960621b6044820152606490fd5b60405162461bcd60e51b81526020600482015260126024820152711059d95b98de481251081c995c5d5a5c995960721b6044820152606490fd5b346101fa5760403660031901126101fa57612689612eda565b60243560058110156101fa576001600160a01b03918216918215612774576000541682146127305760207f4ac36fa53f167ceb85964be512e01de2a3b8bdb9862f917da079deeeff689b3891836000526002825260406000206126eb82612ef0565b60ff19908181541660ff841617905561270382612ef0565b846000526001835260406000209081541660ff60018414161790556040519061272b81612ef0565b8152a2005b606460405162461bcd60e51b815260206004820152602060248201527f43616e6e6f74206368616e676520726f6c65206f6620737570657241646d696e6044820152fd5b60405162461bcd60e51b815260206004820152600f60248201526e496e76616c6964206164647265737360881b6044820152606490fd5b346101fa5760203660031901126101fa576004356001600160401b0381116101fa576020611aa36127e0923690600401612f9d565b810160098152030190206127f4815461330b565b1561283d5760018060a01b036001820154166101d860048301546128178461350b565b9261283060036128296002880161350b565b960161350b565b9060405195869586613133565b60405162461bcd60e51b815260206004820152601060248201526f1059d95b98de481b9bdd08199bdd5b9960821b6044820152606490fd5b346101fa57612883366131cc565b90805115612aae57815115612a7157604051908051906128c06020938481818501956128b0818389612fe4565b8101600c8152030190205461330b565b612a2c576040519360608501948086106001600160401b038711176113eb576002612950926103a097604052848352868301338152604084019182526129256040518981806129138c8c51928391612fe4565b8101600c8152030190209451856133a3565b516001840180546001600160a01b0319166001600160a01b03929092169190911790555191016133a3565b33600052600d83526129668160406000206134c6565b6129f7836040519361297785612f2b565b601c85527f4c6f6769737469637320436f6d70616e7920526567697374657265640000000082860152604051936129ad85612f46565b602785527f4c6f676973746963732070726f766964657220726567697374657265642061208386015266636f6d70616e7960c81b6040860152604051938492839251928391612fe4565b8101600e81520301902091600460405194612a1186612f10565b338652850152604084015260608301524260808301526139f1565b60405162461bcd60e51b815260048101849052601760248201527f436f6d70616e7920494420616c726561647920757365640000000000000000006044820152606490fd5b60405162461bcd60e51b815260206004820152601560248201527410dbdb5c185b9e481b985b59481c995c5d5a5c9959605a1b6044820152606490fd5b60405162461bcd60e51b815260206004820152601360248201527210dbdb5c185b9e481251081c995c5d5a5c9959606a1b6044820152606490fd5b346101fa57612af736613182565b916040519081815160209381612b11869383858801612fe4565b810160038152030190209360018060a01b036001860154163303612cae57835115612c765742811115612c3957603185612c0992612b7261137c60036103a09a01836004612b5e8361350b565b9601612b6c8c8254946133a3565b55613ecf565b906040519783612b8b8a955180928b8089019101612fe4565b84019161205b60f01b92838a820152612bad825180938c602285019101612fe4565b016b02e903ab83230ba3290169f160a51b6022820152612bd6825180938b602e85019101612fe4565b0190602e820152612bf08251809389603085019101612fe4565b01605d60f81b6030820152036011810186520184612f61565b7210d95c9d1a599a58d85d1948155c19185d1959606a1b60405192612c2d84612f2b565b60138452830152613b36565b60405162461bcd60e51b8152600481018490526015602482015274457870697279206d7573742062652066757475726560581b6044820152606490fd5b60405162461bcd60e51b815260048101849052601060248201526f13995dc810d251081c995c5d5a5c995960821b6044820152606490fd5b60405162461bcd60e51b815260048101849052600d60248201526c4e6f7420796f7572206661726d60981b6044820152606490fd5b346101fa5760203660031901126101fa576004356001600160401b0381116101fa576020611aa3612d18923690600401612f9d565b81016003815203019020612d2c815461330b565b15612d4f5760018060a01b036001820154166101d860048301546128178461350b565b60405162461bcd60e51b815260206004820152600e60248201526d11985c9b481b9bdd08199bdd5b9960921b6044820152606490fd5b346101fa5760203660031901126101fa576004356001600160401b0381116101fa576020611aa3612dba923690600401612f9d565b8101600581520301902080548015612e3257612dd581613e53565b612dde82613e53565b91612de881613e9d565b612df182613e53565b90612dfb83613e9d565b9260005b818110612e1a575050906101d8929160405195869586613081565b80611b306001611b29612e2d948c6139d5565b612dff565b60405162461bcd60e51b81526020600482015260286024820152600080516020613fb5833981519152604482015267686973206661726d60c01b6064820152608490fd5b346101fa5760003660031901126101fa576000546040516001600160a01b039091168152602090f35b346101fa5760203660031901126101fa576020906001600160a01b03612ec3612eda565b166000526001825260ff6040600020541615158152f35b600435906001600160a01b03821682036101fa57565b60051115612efa57565b634e487b7160e01b600052602160045260246000fd5b60a081019081106001600160401b038211176113eb57604052565b604081019081106001600160401b038211176113eb57604052565b606081019081106001600160401b038211176113eb57604052565b90601f801991011681019081106001600160401b038211176113eb57604052565b6001600160401b0381116113eb57601f01601f191660200190565b81601f820112156101fa57803590612fb482612f82565b92612fc26040519485612f61565b828452602083830101116101fa57816000926020809301838601378301015290565b60005b838110612ff75750506000910152565b8181015183820152602001612fe7565b9060209161302081518092818552858086019101612fe4565b601f01601f1916010190565b90815180825260208092019182818360051b85019501936000915b8483106130575750505050505090565b909192939495848061307183856001950387528a51613007565b9801930193019194939290613047565b9291939061309a6130a99160a0865260a086019061302c565b6020958582038787015261302c565b838103604085015284808451928381520193019060005b81811061311657505050906130dc91838203606085015261302c565b90608081830391015281808451928381520193019160005b828110613102575050505090565b8351855293810193928101926001016130f4565b82516001600160a01b0316855293860193918601916001016130c0565b95949361316061317d936131526080969460a08b5260a08b0190613007565b9089820360208b0152613007565b6001600160a01b0390921660408801528682036060880152613007565b930152565b9060606003198301126101fa576001600160401b036004358181116101fa57836131ae91600401612f9d565b926024359182116101fa576131c591600401612f9d565b9060443590565b9060406003198301126101fa576001600160401b036004358181116101fa57836131f891600401612f9d565b926024359182116101fa5761320f91600401612f9d565b90565b60806003198201126101fa576001600160401b03916004358381116101fa578261323e91600401612f9d565b926024358181116101fa578361325691600401612f9d565b926044359182116101fa5761326d91600401612f9d565b9060643590565b6001600160401b0381116113eb5760051b60200190565b9080601f830112156101fa578135906132a382613274565b926132b16040519485612f61565b828452602092838086019160051b830101928084116101fa57848301915b8483106132df5750505050505090565b82356001600160401b0381116101fa57869161330084848094890101612f9d565b8152019201916132cf565b90600182811c9216801561333b575b602083101461332557565b634e487b7160e01b600052602260045260246000fd5b91607f169161331a565b818110613350575050565b60008155600101613345565b9190601f811161336b57505050565b613397926000526020600020906020601f840160051c83019310613399575b601f0160051c0190613345565b565b909150819061338a565b91909182516001600160401b0381116113eb576133ca816133c4845461330b565b8461335c565b602080601f83116001146134065750819293946000926133fb575b50508160011b916000199060031b1c1916179055565b0151905038806133e5565b90601f198316958460005282600020926000905b88821061345257505083600195969710613439575b505050811b019055565b015160001960f88460031b161c1916905538808061342f565b8060018596829496860151815501950193019061341a565b90608060049161347b8151856133a3565b6001840160018060a01b036020830151166001600160601b0360a01b8254161790556134ae6040820151600286016133a3565b6134bf6060820151600386016133a3565b0151910155565b908154600160401b8110156113eb57600181018084558110156134f557613397926000526020600020016133a3565b634e487b7160e01b600052603260045260246000fd5b906040519182600082549261351f8461330b565b90818452600194858116908160001461358c5750600114613549575b505061339792500383612f61565b9093915060005260209081600020936000915b8183106135745750506133979350820101388061353b565b8554888401850152948501948794509183019161355c565b91505061339794506020925060ff191682840152151560051b820101388061353b565b156135b657565b60405162461bcd60e51b815260206004820152601460248201527305175616e74697479206d757374206265203e20360641b6044820152606490fd5b156135f957565b60405162461bcd60e51b815260206004820152601760248201527f4d69736d617463682064757269616e732f696d616765730000000000000000006044820152606490fd5b9080821461371657613650815461330b565b906001600160401b0382116113eb5781906136758261366f865461330b565b8661335c565b600090601f83116001146136ab576000926136a05750508160011b916000199060031b1c1916179055565b0154905038806133e5565b81526020808220858352818320935090601f1985169083905b8282106136fd5750509084600195949392106136e457505050811b019055565b015460001960f88460031b161c1916905538808061342f565b84958192958501548155600180910196019401906136c4565b5050565b60001981146114ff5760010190565b80518210156134f55760209160051b010190565b1561374457565b60405162461bcd60e51b815260206004820152600f60248201526e44757269616e20494420656d70747960881b6044820152606490fd5b1561378257565b60405162461bcd60e51b815260206004820152601760248201527f44757269616e20696d616765206861736820656d7074790000000000000000006044820152606490fd5b908154600160401b8110156113eb57600181018084558110156134f5576020600191613397946000528160002090831b01926138048151856133a3565b015191016133a3565b1561381457565b60405162461bcd60e51b815260206004820152601460248201527310985d18da08191bd95cc81b9bdd08195e1a5cdd60621b6044820152606490fd5b1561385757565b60405162461bcd60e51b815260206004820152600e60248201526d09cdee840f2deeae440c4c2e8c6d60931b6044820152606490fd5b613897815461330b565b90816138a1575050565b81601f600093116001146138b3575055565b9080839182526138d2601f60208420940160051c840160018501613345565b5555565b156138dd57565b60405162461bcd60e51b815260206004820152600f60248201526e4e6f7420796f7572206167656e637960881b6044820152606490fd5b6000929181546139238161330b565b9260019180831690811561397c5750600114613940575b50505050565b90919293945060005260209081600020906000915b85831061396b575050505001903880808061393a565b805485840152918301918101613955565b60ff191684525050508115159091020191503880808061393a565b1561399e57565b60405162461bcd60e51b815260206004820152600f60248201526e10985d18da081b9bdd08199bdd5b99608a1b6044820152606490fd5b80548210156134f55760005260206000209060021b0190600090565b8054600160401b8110156113eb57613a0e916001820181556139d5565b919091613a9057608060039160018060a01b03815116845490806001600160601b0360a01b83161786556020830151613a4681612ef0565b613a4f81612ef0565b60ff60a01b9060a01b16916affffffffffffffffffffff60a81b1617178455613a7f6040820151600186016133a3565b6134bf6060820151600286016133a3565b634e487b7160e01b600052600060045260246000fd5b9594939061317d9260a094613ac6613ae79360c08b5260c08b0190613007565b91600180881b031660208a0152600260408a015288820360608a0152613007565b908682036080880152613007565b9594939061317d9260a094613b15613ae79360c08b5260c08b0190613007565b91600180881b031660208a0152600360408a015288820360608a0152613007565b90613bab600080516020613f958339815191529392613b9b6040516020818451613b638183858901612fe4565b8101600581520301902060405190613b7a82612f10565b338252600260208301528560408301528660608301524260808301526139f1565b6040519384934292339086613aa6565b0390a1565b613c57600080516020613f9583398151915293613c49613c2e94613c1a6040516020818851613be28183858d01612fe4565b8101600881520301902060405190613bf982612f10565b338252600460208301528360408301528560608301524260808301526139f1565b60405195869560c0875260c0870190613007565b90336020870152600460408701528582036060870152613007565b908382036080850152613007565b4260a08301520390a1565b90613bab600080516020613f958339815191529392613b9b6040516020818451613c8f8183858901612fe4565b8101600881520301902060405190613b7a82612f10565b90613bab600080516020613f958339815191529392613d0b6040516020818451613cd38183858901612fe4565b8101600881520301902060405190613cea82612f10565b338252600360208301528560408301528660608301524260808301526139f1565b6040519384934292339086613af5565b90613bab600080516020613f958339815191529392613d0b6040516020818451613d488183858901612fe4565b8101600b81520301902060405190613cea82612f10565b613d6881612ef0565b60018114613e3157613d7981612ef0565b60028114613e0e57613d8a81612ef0565b60038114613deb5780613d9e600492612ef0565b14613dc657604051613daf81612f2b565b60078152662ab735b737bbb760c91b602082015290565b604051613dd281612f2b565b60098152684c6f6769737469637360b81b602082015290565b50604051613df881612f2b565b60068152652a3930b232b960d11b602082015290565b50604051613e1b81612f2b565b60068152652330b936b2b960d11b602082015290565b50604051613e3e81612f2b565b600581526420b236b4b760d91b602082015290565b90613e5d82613274565b613e6a6040519182612f61565b8281528092613e7b601f1991613274565b019060005b828110613e8c57505050565b806060602080938501015201613e80565b90613ea782613274565b613eb46040519182612f61565b8281528092613ec5601f1991613274565b0190602036910137565b8015613f7657600081805b613f625750613ee881612f82565b90613ef66040519283612f61565b808252601f19613f0582612f82565b013660208401375b80928015613f5b5760001982019182116114ff578193600a9260309084840682018092116114ff57855111156134f55760f81b6001600160f81b03191660001a908401601f01530491613f0d565b5050905090565b90613f6e600a9161371a565b910480613eda565b50604051613f8381612f2b565b60018152600360fc1b60208201529056fea58b61786ca221afb0dc63e40f6303a7630c2ec4814869abaf1fb1e8fc2f57564e6f206d696c6573746f6e6520686973746f727920666f756e6420666f722074a2646970667358221220940f87ca0a1b98c59a4af13bd38faa2f6c7f14ccd28643ecb0211ce8bce4b09d64736f6c63430008130033",
  "linkReferences": {},
  "deployedLinkReferences": {}
}