{
  "_format": "hh-sol-artifact-1",
  "contractName": "DurianChain",
  "sourceName": "contracts/DurianChain.sol",
  "abi": [
    {
      "inputs": [],
      "stateMutability": "nonpayable",
      "type": "constructor"
    },
    {
      "anonymous": false,
      "inputs": [
        {
          "indexed": true,
          "internalType": "address",
          "name": "user",
          "type": "address"
        }
      ],
      "name": "AdminRemoved",
      "type": "event"
    },
    {
      "anonymous": false,
      "inputs": [
        {
          "indexed": true,
          "internalType": "address",
          "name": "user",
          "type": "address"
        },
        {
          "indexed": false,
          "internalType": "enum DurianChain.Role",
          "name": "role",
          "type": "uint8"
        }
      ],
      "name": "RoleAssigned",
      "type": "event"
    },
    {
      "anonymous": false,
      "inputs": [
        {
          "indexed": false,
          "internalType": "string",
          "name": "batchId",
          "type": "string"
        },
        {
          "indexed": false,
          "internalType": "address",
          "name": "actor",
          "type": "address"
        },
        {
          "indexed": false,
          "internalType": "enum DurianChain.Role",
          "name": "role",
          "type": "uint8"
        },
        {
          "indexed": false,
          "internalType": "string",
          "name": "action",
          "type": "string"
        },
        {
          "indexed": false,
          "internalType": "string",
          "name": "description",
          "type": "string"
        },
        {
          "indexed": false,
          "internalType": "uint256",
          "name": "timestamp",
          "type": "uint256"
        }
      ],
      "name": "TransitionLogged",
      "type": "event"
    },
    {
      "inputs": [
        {
          "internalType": "address",
          "name": "user",
          "type": "address"
        },
        {
          "internalType": "enum DurianChain.Role",
          "name": "role",
          "type": "uint8"
        }
      ],
      "name": "assignRole",
      "outputs": [],
      "stateMutability": "nonpayable",
      "type": "function"
    },
    {
      "inputs": [
        {
          "internalType": "string",
          "name": "batchId",
          "type": "string"
        }
      ],
      "name": "cancelOrder",
      "outputs": [],
      "stateMutability": "nonpayable",
      "type": "function"
    },
    {
      "inputs": [
        {
          "internalType": "string",
          "name": "batchId",
          "type": "string"
        },
        {
          "internalType": "string",
          "name": "logisticsCompanyId",
          "type": "string"
        }
      ],
      "name": "collectBatch",
      "outputs": [],
      "stateMutability": "nonpayable",
      "type": "function"
    },
    {
      "inputs": [
        {
          "internalType": "string",
          "name": "batchId",
          "type": "string"
        }
      ],
      "name": "confirmDelivery",
      "outputs": [],
      "stateMutability": "nonpayable",
      "type": "function"
    },
    {
      "inputs": [
        {
          "internalType": "string",
          "name": "batchId",
          "type": "string"
        },
        {
          "internalType": "string",
          "name": "variety",
          "type": "string"
        },
        {
          "internalType": "uint256",
          "name": "quantity",
          "type": "uint256"
        },
        {
          "internalType": "string",
          "name": "farmId",
          "type": "string"
        },
        {
          "internalType": "string",
          "name": "batchImageCID",
          "type": "string"
        },
        {
          "internalType": "string[]",
          "name": "durianIds",
          "type": "string[]"
        },
        {
          "internalType": "string[]",
          "name": "imageHashes",
          "type": "string[]"
        }
      ],
      "name": "createBatch",
      "outputs": [],
      "stateMutability": "nonpayable",
      "type": "function"
    },
    {
      "inputs": [
        {
          "internalType": "string",
          "name": "agencyId",
          "type": "string"
        },
        {
          "internalType": "string",
          "name": "agencyName",
          "type": "string"
        },
        {
          "internalType": "string",
          "name": "exportLicenseCID",
          "type": "string"
        },
        {
          "internalType": "uint256",
          "name": "exportLicenseExpiry",
          "type": "uint256"
        }
      ],
      "name": "createTraderAgency",
      "outputs": [],
      "stateMutability": "nonpayable",
      "type": "function"
    },
    {
      "inputs": [],
      "name": "getAllBatchIds",
      "outputs": [
        {
          "internalType": "string[]",
          "name": "",
          "type": "string[]"
        }
      ],
      "stateMutability": "view",
      "type": "function"
    },
    {
      "inputs": [],
      "name": "getAllFarmIds",
      "outputs": [
        {
          "internalType": "string[]",
          "name": "",
          "type": "string[]"
        }
      ],
      "stateMutability": "view",
      "type": "function"
    },
    {
      "inputs": [
        {
          "internalType": "string",
          "name": "batchId",
          "type": "string"
        }
      ],
      "name": "getBatchById",
      "outputs": [
        {
          "internalType": "string",
          "name": "",
          "type": "string"
        },
        {
          "internalType": "string",
          "name": "",
          "type": "string"
        },
        {
          "internalType": "string",
          "name": "",
          "type": "string"
        },
        {
          "internalType": "uint256",
          "name": "",
          "type": "uint256"
        },
        {
          "internalType": "string",
          "name": "",
          "type": "string"
        },
        {
          "internalType": "enum DurianChain.Status",
          "name": "",
          "type": "uint8"
        },
        {
          "internalType": "address",
          "name": "",
          "type": "address"
        },
        {
          "internalType": "address",
          "name": "",
          "type": "address"
        },
        {
          "internalType": "address",
          "name": "",
          "type": "address"
        },
        {
          "internalType": "string",
          "name": "",
          "type": "string"
        },
        {
          "internalType": "string",
          "name": "",
          "type": "string"
        }
      ],
      "stateMutability": "view",
      "type": "function"
    },
    {
      "inputs": [
        {
          "internalType": "string",
          "name": "batchId",
          "type": "string"
        }
      ],
      "name": "getBatchMilestone",
      "outputs": [
        {
          "internalType": "string[]",
          "name": "actions",
          "type": "string[]"
        },
        {
          "internalType": "string[]",
          "name": "descriptions",
          "type": "string[]"
        },
        {
          "internalType": "address[]",
          "name": "actors",
          "type": "address[]"
        },
        {
          "internalType": "string[]",
          "name": "roleNames",
          "type": "string[]"
        },
        {
          "internalType": "uint256[]",
          "name": "timestamps",
          "type": "uint256[]"
        }
      ],
      "stateMutability": "view",
      "type": "function"
    },
    {
      "inputs": [
        {
          "internalType": "string",
          "name": "batchId",
          "type": "string"
        }
      ],
      "name": "getDuriansByBatchId",
      "outputs": [
        {
          "components": [
            {
              "internalType": "string",
              "name": "id",
              "type": "string"
            },
            {
              "internalType": "string",
              "name": "imageHash",
              "type": "string"
            }
          ],
          "internalType": "struct DurianChain.Durian[]",
          "name": "",
          "type": "tuple[]"
        }
      ],
      "stateMutability": "view",
      "type": "function"
    },
    {
      "inputs": [
        {
          "internalType": "string",
          "name": "farmId",
          "type": "string"
        }
      ],
      "name": "getFarmById",
      "outputs": [
        {
          "internalType": "string",
          "name": "",
          "type": "string"
        },
        {
          "internalType": "string",
          "name": "",
          "type": "string"
        },
        {
          "internalType": "address",
          "name": "",
          "type": "address"
        },
        {
          "internalType": "string",
          "name": "",
          "type": "string"
        },
        {
          "internalType": "uint256",
          "name": "",
          "type": "uint256"
        }
      ],
      "stateMutability": "view",
      "type": "function"
    },
    {
      "inputs": [
        {
          "internalType": "string",
          "name": "farmId",
          "type": "string"
        }
      ],
      "name": "getFarmMilestone",
      "outputs": [
        {
          "internalType": "string[]",
          "name": "actions",
          "type": "string[]"
        },
        {
          "internalType": "string[]",
          "name": "descriptions",
          "type": "string[]"
        },
        {
          "internalType": "address[]",
          "name": "actors",
          "type": "address[]"
        },
        {
          "internalType": "string[]",
          "name": "roleNames",
          "type": "string[]"
        },
        {
          "internalType": "uint256[]",
          "name": "timestamps",
          "type": "uint256[]"
        }
      ],
      "stateMutability": "view",
      "type": "function"
    },
    {
      "inputs": [
        {
          "internalType": "string",
          "name": "companyId",
          "type": "string"
        }
      ],
      "name": "getLogisticsById",
      "outputs": [
        {
          "internalType": "string",
          "name": "",
          "type": "string"
        },
        {
          "internalType": "address",
          "name": "",
          "type": "address"
        },
        {
          "internalType": "string",
          "name": "",
          "type": "string"
        }
      ],
      "stateMutability": "view",
      "type": "function"
    },
    {
      "inputs": [
        {
          "internalType": "string",
          "name": "companyId",
          "type": "string"
        }
      ],
      "name": "getLogisticsMilestone",
      "outputs": [
        {
          "internalType": "string[]",
          "name": "actions",
          "type": "string[]"
        },
        {
          "internalType": "string[]",
          "name": "descriptions",
          "type": "string[]"
        },
        {
          "internalType": "address[]",
          "name": "actors",
          "type": "address[]"
        },
        {
          "internalType": "string[]",
          "name": "roleNames",
          "type": "string[]"
        },
        {
          "internalType": "uint256[]",
          "name": "timestamps",
          "type": "uint256[]"
        }
      ],
      "stateMutability": "view",
      "type": "function"
    },
    {
      "inputs": [],
      "name": "getMyBatchIds",
      "outputs": [
        {
          "internalType": "string[]",
          "name": "",
          "type": "string[]"
        }
      ],
      "stateMutability": "view",
      "type": "function"
    },
    {
      "inputs": [],
      "name": "getMyFarmIds",
      "outputs": [
        {
          "internalType": "string[]",
          "name": "",
          "type": "string[]"
        }
      ],
      "stateMutability": "view",
      "type": "function"
    },
    {
      "inputs": [],
      "name": "getMyLogisticsCompanyIds",
      "outputs": [
        {
          "internalType": "string[]",
          "name": "",
          "type": "string[]"
        }
      ],
      "stateMutability": "view",
      "type": "function"
    },
    {
      "inputs": [],
      "name": "getMyRoleAsString",
      "outputs": [
        {
          "internalType": "string",
          "name": "",
          "type": "string"
        }
      ],
      "stateMutability": "view",
      "type": "function"
    },
    {
      "inputs": [],
      "name": "getMyTraderAgencyIds",
      "outputs": [
        {
          "internalType": "string[]",
          "name": "",
          "type": "string[]"
        }
      ],
      "stateMutability": "view",
      "type": "function"
    },
    {
      "inputs": [],
      "name": "getTotalBatches",
      "outputs": [
        {
          "internalType": "uint256",
          "name": "",
          "type": "uint256"
        }
      ],
      "stateMutability": "view",
      "type": "function"
    },
    {
      "inputs": [],
      "name": "getTotalFarms",
      "outputs": [
        {
          "internalType": "uint256",
          "name": "",
          "type": "uint256"
        }
      ],
      "stateMutability": "view",
      "type": "function"
    },
    {
      "inputs": [],
      "name": "getTotalLogisticsCompanies",
      "outputs": [
        {
          "internalType": "uint256",
          "name": "",
          "type": "uint256"
        }
      ],
      "stateMutability": "view",
      "type": "function"
    },
    {
      "inputs": [],
      "name": "getTotalTraderAgencies",
      "outputs": [
        {
          "internalType": "uint256",
          "name": "",
          "type": "uint256"
        }
      ],
      "stateMutability": "view",
      "type": "function"
    },
    {
      "inputs": [
        {
          "internalType": "string",
          "name": "agencyId",
          "type": "string"
        }
      ],
      "name": "getTraderAgencyById",
      "outputs": [
        {
          "internalType": "string",
          "name": "",
          "type": "string"
        },
        {
          "internalType": "string",
          "name": "",
          "type": "string"
        },
        {
          "internalType": "address",
          "name": "",
          "type": "address"
        },
        {
          "internalType": "string",
          "name": "",
          "type": "string"
        },
        {
          "internalType": "uint256",
          "name": "",
          "type": "uint256"
        }
      ],
      "stateMutability": "view",
      "type": "function"
    },
    {
      "inputs": [
        {
          "internalType": "string",
          "name": "agencyId",
          "type": "string"
        }
      ],
      "name": "getTraderAgencyMilestone",
      "outputs": [
        {
          "internalType": "string[]",
          "name": "actions",
          "type": "string[]"
        },
        {
          "internalType": "string[]",
          "name": "descriptions",
          "type": "string[]"
        },
        {
          "internalType": "address[]",
          "name": "actors",
          "type": "address[]"
        },
        {
          "internalType": "string[]",
          "name": "roleNames",
          "type": "string[]"
        },
        {
          "internalType": "uint256[]",
          "name": "timestamps",
          "type": "uint256[]"
        }
      ],
      "stateMutability": "view",
      "type": "function"
    },
    {
      "inputs": [
        {
          "internalType": "address",
          "name": "user",
          "type": "address"
        }
      ],
      "name": "getUserRole",
      "outputs": [
        {
          "internalType": "enum DurianChain.Role",
          "name": "",
          "type": "uint8"
        }
      ],
      "stateMutability": "view",
      "type": "function"
    },
    {
      "inputs": [
        {
          "internalType": "string",
          "name": "batchId",
          "type": "string"
        },
        {
          "internalType": "string",
          "name": "agencyId",
          "type": "string"
        },
        {
          "internalType": "string",
          "name": "deliveryDestination",
          "type": "string"
        },
        {
          "internalType": "bool",
          "name": "isExport",
          "type": "bool"
        }
      ],
      "name": "orderBatch",
      "outputs": [],
      "stateMutability": "nonpayable",
      "type": "function"
    },
    {
      "inputs": [
        {
          "internalType": "string",
          "name": "farmId",
          "type": "string"
        },
        {
          "internalType": "string",
          "name": "location",
          "type": "string"
        },
        {
          "internalType": "string",
          "name": "certificateCID",
          "type": "string"
        },
        {
          "internalType": "uint256",
          "name": "certificateExpiry",
          "type": "uint256"
        }
      ],
      "name": "registerFarm",
      "outputs": [],
      "stateMutability": "nonpayable",
      "type": "function"
    },
    {
      "inputs": [
        {
          "internalType": "string",
          "name": "companyId",
          "type": "string"
        },
        {
          "internalType": "string",
          "name": "companyName",
          "type": "string"
        }
      ],
      "name": "registerLogisticsCompany",
      "outputs": [],
      "stateMutability": "nonpayable",
      "type": "function"
    },
    {
      "inputs": [
        {
          "internalType": "string",
          "name": "batchId",
          "type": "string"
        }
      ],
      "name": "removeBatch",
      "outputs": [],
      "stateMutability": "nonpayable",
      "type": "function"
    },
    {
      "inputs": [
        {
          "internalType": "address",
          "name": "",
          "type": "address"
        }
      ],
      "name": "roles",
      "outputs": [
        {
          "internalType": "enum DurianChain.Role",
          "name": "",
          "type": "uint8"
        }
      ],
      "stateMutability": "view",
      "type": "function"
    },
    {
      "inputs": [],
      "name": "superAdmin",
      "outputs": [
        {
          "internalType": "address",
          "name": "",
          "type": "address"
        }
      ],
      "stateMutability": "view",
      "type": "function"
    },
    {
      "inputs": [
        {
          "internalType": "string",
          "name": "batchId",
          "type": "string"
        },
        {
          "internalType": "uint256",
          "name": "newQuantity",
          "type": "uint256"
        },
        {
          "internalType": "string",
          "name": "newBatchImageCID",
          "type": "string"
        },
        {
          "internalType": "string[]",
          "name": "newDurianIds",
          "type": "string[]"
        },
        {
          "internalType": "string[]",
          "name": "newImageHashes",
          "type": "string[]"
        }
      ],
      "name": "updateBatchInfo",
      "outputs": [],
      "stateMutability": "nonpayable",
      "type": "function"
    },
    {
      "inputs": [
        {
          "internalType": "string",
          "name": "farmId",
          "type": "string"
        },
        {
          "internalType": "string",
          "name": "newCertificateCID",
          "type": "string"
        },
        {
          "internalType": "uint256",
          "name": "newExpiry",
          "type": "uint256"
        }
      ],
      "name": "updateFarmCertificate",
      "outputs": [],
      "stateMutability": "nonpayable",
      "type": "function"
    },
    {
      "inputs": [
        {
          "internalType": "string",
          "name": "agencyId",
          "type": "string"
        },
        {
          "internalType": "string",
          "name": "newExportCID",
          "type": "string"
        },
        {
          "internalType": "uint256",
          "name": "newExportExpiry",
          "type": "uint256"
        }
      ],
      "name": "updateTraderAgencyCertificate",
      "outputs": [],
      "stateMutability": "nonpayable",
      "type": "function"
    }
  ],
  "bytecode": "0x608060405234801561001057600080fd5b5060048054336001600160a01b031990911681179091556000908152600560205260409020805460ff19166001179055615fcc80620000506000396000f3fe608060405234801561001057600080fd5b506004361061021c5760003560e01c8063a450646011610125578063d15783df116100ad578063ef1b26fa1161007c578063ef1b26fa146104cf578063f11d77ea146104d7578063f342df7d146104ea578063f68e1141146104fd578063fc856e381461050557600080fd5b8063d15783df14610499578063d2bbdec2146104ac578063e561dddc146104bf578063e8ac856b146104c757600080fd5b8063bc54180a116100f4578063bc54180a14610443578063bce0694714610456578063c153251e1461046b578063c17d44231461047e578063c2558ffd1461048657600080fd5b8063a4506460146103f5578063a7f9769214610408578063b0f41eb11461041b578063b97995a01461043057600080fd5b80635ee485b7116101a857806375b021481161017757806375b0214814610353578063797f27ff1461037d5780638f270d5f1461039f57806399374642146103bf5780639fb50d55146103e257600080fd5b80635ee485b714610312578063630a195b1461031a5780636b74306c1461032d57806372e855ff1461034057600080fd5b806336a77915116101ef57806336a77915146102bd578063373f8b70146102cf5780633fcabe35146102e45780634d5fbbe2146102f75780635eae39141461030a57600080fd5b8063278208511461022157806329575f6a1461024a5780632d12d969146102755780633270bd0514610299575b600080fd5b61023461022f366004614dea565b61050d565b6040516102419190614e40565b60405180910390f35b60045461025d906001600160a01b031681565b6040516001600160a01b039091168152602001610241565b610288610283366004614f08565b610532565b604051610241959493929190614fe1565b6102ac6102a7366004614f08565b6109d4565b60405161024195949392919061509f565b6003545b604051908152602001610241565b6102e26102dd3660046150fa565b610c2b565b005b6102e26102f2366004615166565b610e4b565b6102ac610305366004614f08565b611064565b6002546102c1565b6000546102c1565b6102e26103283660046151c9565b6110e1565b6102e261033b366004615204565b611209565b61028861034e366004614f08565b611452565b610366610361366004614f08565b6118d0565b6040516102419b9a99989796959493929190615293565b61039061038b366004614f08565b611cf0565b6040516102419392919061535c565b6103b26103ad366004614f08565b611eb5565b604051610241919061539a565b6102346103cd366004614dea565b60056020526000908152604090205460ff1681565b6102886103f0366004614f08565b6120cb565b6102e2610403366004614f08565b61253e565b610288610416366004614f08565b6126c7565b610423612b39565b604051610241919061541f565b6102e261043e3660046154d0565b612b5e565b6102e26104513660046155cf565b6130c2565b61045e613626565b6040516102419190615685565b6102e2610479366004615204565b6136ff565b61045e61394f565b6102e2610494366004614f08565b613a32565b6102e26104a7366004615698565b613bfb565b6102e26104ba3660046150fa565b61402d565b6001546102c1565b61045e614288565b61045e614358565b6102e26104e5366004614f08565b614430565b6102e26104f8366004615166565b6145c1565b61045e6146f3565b61045e6147cb565b6001600160a01b03811660009081526005602052604090205460ff1660015b50919050565b6060806060806060600060088760405161054c9190615737565b9081526040519081900360200190208054909150806105b15760405162461bcd60e51b81526020600482015260286024820152600080516020615f77833981519152604482015267686973206661726d60c01b60648201526084015b60405180910390fd5b806001600160401b038111156105c9576105c9614e53565b6040519080825280602002602001820160405280156105fc57816020015b60608152602001906001900390816105e75790505b509650806001600160401b0381111561061757610617614e53565b60405190808252806020026020018201604052801561064a57816020015b60608152602001906001900390816106355790505b509550806001600160401b0381111561066557610665614e53565b60405190808252806020026020018201604052801561068e578160200160208202803683370190505b509450806001600160401b038111156106a9576106a9614e53565b6040519080825280602002602001820160405280156106dc57816020015b60608152602001906001900390816106c75790505b509350806001600160401b038111156106f7576106f7614e53565b604051908082528060200260200182016040528015610720578160200160208202803683370190505b50925060005b818110156109c85782818154811061074057610740615753565b9060005260206000209060040201600101805461075c90615769565b80601f016020809104026020016040519081016040528092919081815260200182805461078890615769565b80156107d55780601f106107aa576101008083540402835291602001916107d5565b820191906000526020600020905b8154815290600101906020018083116107b857829003601f168201915b50505050508882815181106107ec576107ec615753565b602002602001018190525082818154811061080957610809615753565b9060005260206000209060040201600201805461082590615769565b80601f016020809104026020016040519081016040528092919081815260200182805461085190615769565b801561089e5780601f106108735761010080835404028352916020019161089e565b820191906000526020600020905b81548152906001019060200180831161088157829003601f168201915b50505050508782815181106108b5576108b5615753565b60200260200101819052508281815481106108d2576108d2615753565b600091825260209091206004909102015486516001600160a01b039091169087908390811061090357610903615753565b60200260200101906001600160a01b031690816001600160a01b03168152505061095883828154811061093857610938615753565b6000918252602090912060049091020154600160a01b900460ff166148a3565b85828151811061096a5761096a615753565b602002602001018190525082818154811061098757610987615753565b9060005260206000209060040201600301548482815181106109ab576109ab615753565b6020908102919091010152806109c0816157b3565b915050610726565b50505091939590929450565b606080600060606000806006876040516109ee9190615737565b908152602001604051809103902090506000816000018054610a0f90615769565b905011610a4f5760405162461bcd60e51b815260206004820152600e60248201526d11985c9b481b9bdd08199bdd5b9960921b60448201526064016105a8565b600181015460048201548254839260028401926001600160a01b03909116916003850191908590610a7f90615769565b80601f0160208091040260200160405190810160405280929190818152602001828054610aab90615769565b8015610af85780601f10610acd57610100808354040283529160200191610af8565b820191906000526020600020905b815481529060010190602001808311610adb57829003601f168201915b50505050509450838054610b0b90615769565b80601f0160208091040260200160405190810160405280929190818152602001828054610b3790615769565b8015610b845780601f10610b5957610100808354040283529160200191610b84565b820191906000526020600020905b815481529060010190602001808311610b6757829003601f168201915b50505050509350818054610b9790615769565b80601f0160208091040260200160405190810160405280929190818152602001828054610bc390615769565b8015610c105780601f10610be557610100808354040283529160200191610c10565b820191906000526020600020905b815481529060010190602001808311610bf357829003601f168201915b50505050509150955095509550955095505091939590929450565b60026000600685604051610c3f9190615737565b90815260405190819003602001902060018101549091506001600160a01b03163314610c9d5760405162461bcd60e51b815260206004820152600d60248201526c4e6f7420796f7572206661726d60981b60448201526064016105a8565b6000845111610ce15760405162461bcd60e51b815260206004820152601060248201526f13995dc810d251081c995c5d5a5c995960821b60448201526064016105a8565b428311610d285760405162461bcd60e51b8152602060048201526015602482015274457870697279206d7573742062652066757475726560581b60448201526064016105a8565b6000816003018054610d3990615769565b80601f0160208091040260200160405190810160405280929190818152602001828054610d6590615769565b8015610db25780601f10610d8757610100808354040283529160200191610db2565b820191906000526020600020905b815481529060010190602001808311610d9557829003601f168201915b5050505060048401549192505060038301610dcd8782615812565b5060048301859055600082610de1836149b6565b88610deb896149b6565b604051602001610dfe94939291906158d1565b60408051601f19818403018152828201909152601382527210d95c9d1a599a58d85d1948155c19185d1959606a1b60208301529150610e41908990836002614abe565b5050505050505050565b60046000835111610e945760405162461bcd60e51b815260206004820152601360248201527210dbdb5c185b9e481251081c995c5d5a5c9959606a1b60448201526064016105a8565b6000825111610edd5760405162461bcd60e51b815260206004820152601560248201527410dbdb5c185b9e481b985b59481c995c5d5a5c9959605a1b60448201526064016105a8565b600f83604051610eed9190615737565b9081526040519081900360200190208054610f0790615769565b159050610f565760405162461bcd60e51b815260206004820152601760248201527f436f6d70616e7920494420616c7265616479207573656400000000000000000060448201526064016105a8565b604080516060810182528481523360208201528082018490529051600f90610f7f908690615737565b90815260405190819003602001902081518190610f9c9082615812565b5060208201516001820180546001600160a01b0319166001600160a01b0390921691909117905560408201516002820190610fd79082615812565b50503360009081526010602090815260408220805460018101825590835291200190506110048482615812565b5061105f836040518060400160405280601c81526020017f4c6f6769737469637320436f6d70616e79205265676973746572656400000000815250604051806060016040528060278152602001615f50602791396004614c0a565b505050565b60608060006060600080600c8760405161107e9190615737565b90815260200160405180910390209050600081600001805461109f90615769565b905011610a4f5760405162461bcd60e51b815260206004820152601060248201526f1059d95b98de481b9bdd08199bdd5b9960821b60448201526064016105a8565b60016001600160a01b03831661112b5760405162461bcd60e51b815260206004820152600f60248201526e496e76616c6964206164647265737360881b60448201526064016105a8565b6004546001600160a01b03908116908416036111895760405162461bcd60e51b815260206004820181905260248201527f43616e6e6f74206368616e676520726f6c65206f6620737570657241646d696e60448201526064016105a8565b6001600160a01b0383166000908152600560205260409020805483919060ff191660018360048111156111be576111be614e0c565b0217905550826001600160a01b03167f4ac36fa53f167ceb85964be512e01de2a3b8bdb9862f917da079deeeff689b38836040516111fc9190614e40565b60405180910390a2505050565b600360008551116112515760405162461bcd60e51b81526020600482015260126024820152711059d95b98de481251081c995c5d5a5c995960721b60448201526064016105a8565b60008451116112995760405162461bcd60e51b81526020600482015260146024820152731059d95b98de481b985b59481c995c5d5a5c995960621b60448201526064016105a8565b600c856040516112a99190615737565b90815260405190819003602001902080546112c390615769565b1590506113125760405162461bcd60e51b815260206004820152601860248201527f4167656e637920494420616c726561647920657869737473000000000000000060448201526064016105a8565b6040518060a00160405280868152602001336001600160a01b0316815260200185815260200184815260200183815250600c866040516113529190615737565b9081526040519081900360200190208151819061136f9082615812565b5060208201516001820180546001600160a01b0319166001600160a01b03909216919091179055604082015160028201906113aa9082615812565b50606082015160038201906113bf9082615812565b5060809190910151600490910155336000908152600d60209081526040822080546001810182559083529120016113f68682615812565b506000848460405160200161140c929190615968565b60408051601f19818403018152828201909152600e82526d1059d95b98de4810dc99585d195960921b6020830152915061144a908790836003614d15565b505050505050565b6060806060806060600060118760405161146c9190615737565b9081526040519081900360200190208054909150806114d95760405162461bcd60e51b81526020600482015260356024820152600080516020615f77833981519152604482015274686973206c6f6769737469637320636f6d70616e7960581b60648201526084016105a8565b806001600160401b038111156114f1576114f1614e53565b60405190808252806020026020018201604052801561152457816020015b606081526020019060019003908161150f5790505b509650806001600160401b0381111561153f5761153f614e53565b60405190808252806020026020018201604052801561157257816020015b606081526020019060019003908161155d5790505b509550806001600160401b0381111561158d5761158d614e53565b6040519080825280602002602001820160405280156115b6578160200160208202803683370190505b509450806001600160401b038111156115d1576115d1614e53565b60405190808252806020026020018201604052801561160457816020015b60608152602001906001900390816115ef5790505b509350806001600160401b0381111561161f5761161f614e53565b604051908082528060200260200182016040528015611648578160200160208202803683370190505b50925060005b818110156109c85782818154811061166857611668615753565b9060005260206000209060040201600101805461168490615769565b80601f01602080910402602001604051908101604052809291908181526020018280546116b090615769565b80156116fd5780601f106116d2576101008083540402835291602001916116fd565b820191906000526020600020905b8154815290600101906020018083116116e057829003601f168201915b505050505088828151811061171457611714615753565b602002602001018190525082818154811061173157611731615753565b9060005260206000209060040201600201805461174d90615769565b80601f016020809104026020016040519081016040528092919081815260200182805461177990615769565b80156117c65780601f1061179b576101008083540402835291602001916117c6565b820191906000526020600020905b8154815290600101906020018083116117a957829003601f168201915b50505050508782815181106117dd576117dd615753565b60200260200101819052508281815481106117fa576117fa615753565b600091825260209091206004909102015486516001600160a01b039091169087908390811061182b5761182b615753565b60200260200101906001600160a01b031690816001600160a01b03168152505061186083828154811061093857610938615753565b85828151811061187257611872615753565b602002602001018190525082818154811061188f5761188f615753565b9060005260206000209060040201600301548482815181106118b3576118b3615753565b6020908102919091010152806118c8816157b3565b91505061164e565b606080606060006060600080600080606080600060098d6040516118f49190615737565b90815260200160405180910390209050600081600001805461191590615769565b9050116119345760405162461bcd60e51b81526004016105a8906159cd565b600381015460058201546006830154600784015484548594600186019460028701949193600488019360ff8316936001600160a01b03610100909404841693908116921690600a8a0190600b8b01908b9061198e90615769565b80601f01602080910402602001604051908101604052809291908181526020018280546119ba90615769565b8015611a075780601f106119dc57610100808354040283529160200191611a07565b820191906000526020600020905b8154815290600101906020018083116119ea57829003601f168201915b50505050509a50898054611a1a90615769565b80601f0160208091040260200160405190810160405280929190818152602001828054611a4690615769565b8015611a935780601f10611a6857610100808354040283529160200191611a93565b820191906000526020600020905b815481529060010190602001808311611a7657829003601f168201915b50505050509950888054611aa690615769565b80601f0160208091040260200160405190810160405280929190818152602001828054611ad290615769565b8015611b1f5780601f10611af457610100808354040283529160200191611b1f565b820191906000526020600020905b815481529060010190602001808311611b0257829003601f168201915b50505050509850868054611b3290615769565b80601f0160208091040260200160405190810160405280929190818152602001828054611b5e90615769565b8015611bab5780601f10611b8057610100808354040283529160200191611bab565b820191906000526020600020905b815481529060010190602001808311611b8e57829003601f168201915b50505050509650818054611bbe90615769565b80601f0160208091040260200160405190810160405280929190818152602001828054611bea90615769565b8015611c375780601f10611c0c57610100808354040283529160200191611c37565b820191906000526020600020905b815481529060010190602001808311611c1a57829003601f168201915b50505050509150808054611c4a90615769565b80601f0160208091040260200160405190810160405280929190818152602001828054611c7690615769565b8015611cc35780601f10611c9857610100808354040283529160200191611cc3565b820191906000526020600020905b815481529060010190602001808311611ca657829003601f168201915b505050505090509b509b509b509b509b509b509b509b509b509b509b505091939597999b90929496989a50565b6060600060606000600f85604051611d089190615737565b908152602001604051809103902090506000816000018054611d2990615769565b905011611d785760405162461bcd60e51b815260206004820152601b60248201527f4c6f6769737469637320636f6d70616e79206e6f7420666f756e64000000000060448201526064016105a8565b6001810154815482916001600160a01b03169060028301908390611d9b90615769565b80601f0160208091040260200160405190810160405280929190818152602001828054611dc790615769565b8015611e145780601f10611de957610100808354040283529160200191611e14565b820191906000526020600020905b815481529060010190602001808311611df757829003601f168201915b50505050509250808054611e2790615769565b80601f0160208091040260200160405190810160405280929190818152602001828054611e5390615769565b8015611ea05780601f10611e7557610100808354040283529160200191611ea0565b820191906000526020600020905b815481529060010190602001808311611e8357829003601f168201915b50505050509050935093509350509193909250565b60606000600983604051611ec99190615737565b908152604051908190036020019020600c015411611f295760405162461bcd60e51b815260206004820152601e60248201527f4e6f2064757269616e7320666f756e6420696e2074686973206261746368000060448201526064016105a8565b600982604051611f399190615737565b9081526020016040518091039020600c01805480602002602001604051908101604052809291908181526020016000905b828210156120c05783829060005260206000209060020201604051806040016040529081600082018054611f9d90615769565b80601f0160208091040260200160405190810160405280929190818152602001828054611fc990615769565b80156120165780601f10611feb57610100808354040283529160200191612016565b820191906000526020600020905b815481529060010190602001808311611ff957829003601f168201915b5050505050815260200160018201805461202f90615769565b80601f016020809104026020016040519081016040528092919081815260200182805461205b90615769565b80156120a85780601f1061207d576101008083540402835291602001916120a8565b820191906000526020600020905b81548152906001019060200180831161208b57829003601f168201915b50505050508152505081526020019060010190611f6a565b505050509050919050565b60608060608060606000600e876040516120e59190615737565b9081526040519081900360200190208054909150806121475760405162461bcd60e51b815260206004820152602a6024820152600080516020615f77833981519152604482015269686973206167656e637960b01b60648201526084016105a8565b806001600160401b0381111561215f5761215f614e53565b60405190808252806020026020018201604052801561219257816020015b606081526020019060019003908161217d5790505b509650806001600160401b038111156121ad576121ad614e53565b6040519080825280602002602001820160405280156121e057816020015b60608152602001906001900390816121cb5790505b509550806001600160401b038111156121fb576121fb614e53565b604051908082528060200260200182016040528015612224578160200160208202803683370190505b509450806001600160401b0381111561223f5761223f614e53565b60405190808252806020026020018201604052801561227257816020015b606081526020019060019003908161225d5790505b509350806001600160401b0381111561228d5761228d614e53565b6040519080825280602002602001820160405280156122b6578160200160208202803683370190505b50925060005b818110156109c8578281815481106122d6576122d6615753565b906000526020600020906004020160010180546122f290615769565b80601f016020809104026020016040519081016040528092919081815260200182805461231e90615769565b801561236b5780601f106123405761010080835404028352916020019161236b565b820191906000526020600020905b81548152906001019060200180831161234e57829003601f168201915b505050505088828151811061238257612382615753565b602002602001018190525082818154811061239f5761239f615753565b906000526020600020906004020160020180546123bb90615769565b80601f01602080910402602001604051908101604052809291908181526020018280546123e790615769565b80156124345780601f1061240957610100808354040283529160200191612434565b820191906000526020600020905b81548152906001019060200180831161241757829003601f168201915b505050505087828151811061244b5761244b615753565b602002602001018190525082818154811061246857612468615753565b600091825260209091206004909102015486516001600160a01b039091169087908390811061249957612499615753565b60200260200101906001600160a01b031690816001600160a01b0316815250506124ce83828154811061093857610938615753565b8582815181106124e0576124e0615753565b60200260200101819052508281815481106124fd576124fd615753565b90600052602060002090600402016003015484828151811061252157612521615753565b602090810291909101015280612536816157b3565b9150506122bc565b600460006009836040516125529190615737565b90815260200160405180910390209050600081600001805461257390615769565b9050116125925760405162461bcd60e51b81526004016105a8906159cd565b6002600582015460ff1660048111156125ad576125ad614e0c565b146125fa5760405162461bcd60e51b815260206004820152601d60248201527f4261746368206d75737420626520636f6c6c656374656420666972737400000060448201526064016105a8565b60078101546001600160a01b031633146126615760405162461bcd60e51b815260206004820152602260248201527f596f7520617265206e6f74207468652061737369676e6564206c6f6769737469604482015261637360f01b60648201526084016105a8565b60058101805460ff19166003179055604080518082018252600f81526e10985d18da0811195b1a5d995c9959608a1b602080830191909152915161105f928692916126b191600987019101615a69565b6040516020818303038152906040526004614d25565b60608060608060606000600b876040516126e19190615737565b9081526040519081900360200190208054909150806127425760405162461bcd60e51b81526020600482015260296024820152600080516020615f778339815191526044820152680d0d2e640c4c2e8c6d60bb1b60648201526084016105a8565b806001600160401b0381111561275a5761275a614e53565b60405190808252806020026020018201604052801561278d57816020015b60608152602001906001900390816127785790505b509650806001600160401b038111156127a8576127a8614e53565b6040519080825280602002602001820160405280156127db57816020015b60608152602001906001900390816127c65790505b509550806001600160401b038111156127f6576127f6614e53565b60405190808252806020026020018201604052801561281f578160200160208202803683370190505b509450806001600160401b0381111561283a5761283a614e53565b60405190808252806020026020018201604052801561286d57816020015b60608152602001906001900390816128585790505b509350806001600160401b0381111561288857612888614e53565b6040519080825280602002602001820160405280156128b1578160200160208202803683370190505b50925060005b818110156109c8578281815481106128d1576128d1615753565b906000526020600020906004020160010180546128ed90615769565b80601f016020809104026020016040519081016040528092919081815260200182805461291990615769565b80156129665780601f1061293b57610100808354040283529160200191612966565b820191906000526020600020905b81548152906001019060200180831161294957829003601f168201915b505050505088828151811061297d5761297d615753565b602002602001018190525082818154811061299a5761299a615753565b906000526020600020906004020160020180546129b690615769565b80601f01602080910402602001604051908101604052809291908181526020018280546129e290615769565b8015612a2f5780601f10612a0457610100808354040283529160200191612a2f565b820191906000526020600020905b815481529060010190602001808311612a1257829003601f168201915b5050505050878281518110612a4657612a46615753565b6020026020010181905250828181548110612a6357612a63615753565b600091825260209091206004909102015486516001600160a01b0390911690879083908110612a9457612a94615753565b60200260200101906001600160a01b031690816001600160a01b031681525050612ac983828154811061093857610938615753565b858281518110612adb57612adb615753565b6020026020010181905250828181548110612af857612af8615753565b906000526020600020906004020160030154848281518110612b1c57612b1c615753565b602090810291909101015280612b31816157b3565b9150506128b7565b3360009081526005602052604090205460609060ff16612b58816148a3565b91505090565b60026000885111612ba55760405162461bcd60e51b815260206004820152601160248201527010985d18da081251081c995c5d5a5c9959607a1b60448201526064016105a8565b6000875111612beb5760405162461bcd60e51b8152602060048201526012602482015271119bdbd9081b985b59481c995c5d5a5c995960721b60448201526064016105a8565b60008611612c325760405162461bcd60e51b815260206004820152601460248201527305175616e74697479206d757374206265203e20360641b60448201526064016105a8565b6000845111612c835760405162461bcd60e51b815260206004820152601860248201527f426174636820696d61676520434944207265717569726564000000000000000060448201526064016105a8565b6000600686604051612c959190615737565b9081526040519081900360200190208054612caf90615769565b905011612cf45760405162461bcd60e51b815260206004820152601360248201527211985c9b481b9bdd081c9959da5cdd195c9959606a1b60448201526064016105a8565b336001600160a01b0316600686604051612d0e9190615737565b908152604051908190036020019020600101546001600160a01b031614612d775760405162461bcd60e51b815260206004820152601860248201527f596f7520646f206e6f74206f776e2074686973206661726d000000000000000060448201526064016105a8565b600988604051612d879190615737565b908152602001604051809103902060030154600014612ddf5760405162461bcd60e51b8152602060048201526014602482015273426174636820616c72656164792065786973747360601b60448201526064016105a8565b8151835114612e2a5760405162461bcd60e51b81526020600482015260176024820152764d69736d617463682064757269616e732f696d6167657360481b60448201526064016105a8565b6000600989604051612e3c9190615737565b908152604051908190036020019020905080612e588a82615812565b5060018101612e678982615812565b5060028101612e768782615812565b5060038101879055604051600690612e8f908890615737565b9081526020016040518091039020600201816004019081612eb09190615ab4565b506005810180546001600160a81b0319163361010002179055600a8101612ed78682615812565b5060005b8451811015613042576000858281518110612ef857612ef8615753565b60200260200101515111612f405760405162461bcd60e51b815260206004820152600f60248201526e44757269616e20494420656d70747960881b60448201526064016105a8565b6000848281518110612f5457612f54615753565b60200260200101515111612fa45760405162461bcd60e51b815260206004820152601760248201527644757269616e20696d616765206861736820656d70747960481b60448201526064016105a8565b81600c016040518060400160405280878481518110612fc557612fc5615753565b60200260200101518152602001868481518110612fe457612fe4615753565b60209081029190910181015190915282546001810184556000938452922081519192600202019081906130179082615812565b506020820151600182019061302c9082615812565b505050808061303a906157b3565b915050612edb565b50336000908152600a602090815260408220805460018101825590835291200161306c8a82615812565b506130b7896040518060400160405280600d81526020016c10985d18da0810dc99585d1959609a1b815250604051806060016040528060218152602001615f2f602191396002614d25565b505050505050505050565b600260006009876040516130d69190615737565b9081526020016040518091039020905060008160000180546130f790615769565b9050116131165760405162461bcd60e51b81526004016105a890615b86565b600581015461010090046001600160a01b031633146131685760405162461bcd60e51b815260206004820152600e60248201526d09cdee840f2deeae440c4c2e8c6d60931b60448201526064016105a8565b6000600582015460ff16600481111561318357613183614e0c565b146131f65760405162461bcd60e51b815260206004820152603960248201527f4261746368206d75737420626520696e2027437265617465642720737461746560448201527f20286e6f74206f726465726564206f722064656c65746564290000000000000060648201526084016105a8565b6000861161323d5760405162461bcd60e51b815260206004820152601460248201527305175616e74697479206d757374206265203e20360641b60448201526064016105a8565b60008551116132835760405162461bcd60e51b8152602060048201526012602482015271125b5859d94810d251081c995c5d5a5c995960721b60448201526064016105a8565b6003810154600a820180546000919061329b90615769565b80601f01602080910402602001604051908101604052809291908181526020018280546132c790615769565b80156133145780601f106132e957610100808354040283529160200191613314565b820191906000526020600020905b8154815290600101906020018083116132f757829003601f168201915b50505050600c850154600386018b905591925050600a84016133368982615812565b50600087511180613348575060008651115b156135125785518751146133985760405162461bcd60e51b81526020600482015260176024820152764d69736d617463682064757269616e732f696d6167657360481b60448201526064016105a8565b6133a6600c85016000614d35565b60005b87518110156135105760008882815181106133c6576133c6615753565b6020026020010151511161340e5760405162461bcd60e51b815260206004820152600f60248201526e44757269616e20494420656d70747960881b60448201526064016105a8565b600087828151811061342257613422615753565b602002602001015151116134725760405162461bcd60e51b815260206004820152601760248201527644757269616e20696d616765206861736820656d70747960481b60448201526064016105a8565b84600c0160405180604001604052808a848151811061349357613493615753565b602002602001015181526020018984815181106134b2576134b2615753565b60209081029190910181015190915282546001810184556000938452922081519192600202019081906134e59082615812565b50602082015160018201906134fa9082615812565b5050508080613508906157b3565b9150506133a9565b505b604080516020810190915260008152838a1461355f5780613532856149b6565b61353b8c6149b6565b60405160200161354d93929190615bb4565b60405160208183030381529060405290505b888051906020012083805190602001201461359b5780838a60405160200161358993929190615c2e565b60405160208183030381529060405290505b600c85015482146135e257806135b0836149b6565b600c8701546135be906149b6565b6040516020016135d093929190615c67565b60405160208183030381529060405290505b6136198b6040518060400160405280601281526020017110985d18da08125b999bc8155c19185d195960721b815250836002614d25565b5050505050505050505050565b60606001805480602002602001604051908101604052809291908181526020016000905b828210156136f657838290600052602060002001805461366990615769565b80601f016020809104026020016040519081016040528092919081815260200182805461369590615769565b80156136e25780601f106136b7576101008083540402835291602001916136e2565b820191906000526020600020905b8154815290600101906020018083116136c557829003601f168201915b50505050508152602001906001019061364a565b50505050905090565b600260008551116137455760405162461bcd60e51b815260206004820152601060248201526f11985c9b481251081c995c5d5a5c995960821b60448201526064016105a8565b600084511161378a5760405162461bcd60e51b8152602060048201526011602482015270131bd8d85d1a5bdb881c995c5d5a5c9959607a1b60448201526064016105a8565b60068560405161379a9190615737565b90815260405190819003602001902080546137b490615769565b1590506137fa5760405162461bcd60e51b815260206004820152601460248201527311985c9b48125108185b1c9958591e481d5cd95960621b60448201526064016105a8565b6040518060a00160405280868152602001336001600160a01b031681526020018581526020018481526020018381525060068660405161383a9190615737565b908152604051908190036020019020815181906138579082615812565b5060208201516001820180546001600160a01b0319166001600160a01b03909216919091179055604082015160028201906138929082615812565b50606082015160038201906138a79082615812565b5060809190910151600490910155336000908152600760209081526040822080546001810182559083529120016138de8682615812565b50613948856040518060400160405280600f81526020016e11985c9b48149959da5cdd195c9959608a1b8152506040518060400160405280601c81526020017f4661726d657220726567697374657265642061206e6577206661726d000000008152506002614abe565b5050505050565b336000908152601060209081526040808320805482518185028101850190935280835260609460049484015b82821015613a2757838290600052602060002001805461399a90615769565b80601f01602080910402602001604051908101604052809291908181526020018280546139c690615769565b8015613a135780601f106139e857610100808354040283529160200191613a13565b820191906000526020600020905b8154815290600101906020018083116139f657829003601f168201915b50505050508152602001906001019061397b565b5050505091505b5090565b60036000600983604051613a469190615737565b908152602001604051809103902090506000816000018054613a6790615769565b905011613a865760405162461bcd60e51b81526004016105a890615b86565b6001600582015460ff166004811115613aa157613aa1614e0c565b14613afa5760405162461bcd60e51b815260206004820152602360248201527f4f6e6c79206f7264657265642062617463682063616e2062652063616e63656c6044820152621b195960ea1b60648201526084016105a8565b60068101546001600160a01b03163314613b565760405162461bcd60e51b815260206004820152601c60248201527f596f7520646964206e6f74206f7264657220746869732062617463680000000060448201526064016105a8565b6006810180546001600160a01b03191690556040805160208101909152600081526008820190613b869082615812565b5060058101805460ff19169055604080518082018252600f81526e13dc99195c8810d85b98d95b1b1959608a1b6020808301919091528251808401909352601a83527f5472616465722063616e63656c6c656420746865206f726465720000000000009083015261105f918591906003614d25565b60036000600986604051613c0f9190615737565b90815260405190819003602001902090506000600582015460ff166004811115613c3b57613c3b614e0c565b14613c925760405162461bcd60e51b815260206004820152602160248201527f4f6e6c7920637265617465642062617463682063616e206265206f72646572656044820152601960fa1b60648201526084016105a8565b6000845111613ce35760405162461bcd60e51b815260206004820152601d60248201527f44656c69766572792064657374696e6174696f6e20726571756972656400000060448201526064016105a8565b6000600c86604051613cf59190615737565b908152602001604051809103902090506000816000018054613d1690615769565b905011613d655760405162461bcd60e51b815260206004820152601c60248201527f547261646572206167656e6379206e6f7420726567697374657265640000000060448201526064016105a8565b60018101546001600160a01b03163314613db35760405162461bcd60e51b815260206004820152600f60248201526e4e6f7420796f7572206167656e637960881b60448201526064016105a8565b8315613f38576000816003018054613dca90615769565b905011613e125760405162461bcd60e51b81526020600482015260166024820152754d697373696e67206578706f7274206c6963656e736560501b60448201526064016105a8565b42816004015411613e5e5760405162461bcd60e51b8152602060048201526016602482015275115e1c1bdc9d081b1a58d95b9cd948195e1c1a5c995960521b60448201526064016105a8565b6000600683600201604051613e739190615cd1565b908152602001604051809103902090506000816003018054613e9490615769565b905011613ee35760405162461bcd60e51b815260206004820152601860248201527f4d697373696e67206661726d206365727469666963617465000000000000000060448201526064016105a8565b42816004015411613f365760405162461bcd60e51b815260206004820152601860248201527f4661726d2063657274696669636174652065787069726564000000000000000060448201526064016105a8565b505b6006820180546001600160a01b0319163317905560088201613f5a8782615812565b50600b8201613f698682615812565b5060058201805460ff191660011790556000868686613faf576040518060400160405280600f81526020016e2c205b4c6f63616c204f726465725d60881b815250613fde565b604051806040016040528060158152602001742c205b4578706f72743a2076616c6964617465645d60581b8152505b604051602001613ff093929190615cdd565b60408051601f19818403018152828201909152600d82526c10985d18da0813dc99195c9959609a1b60208301529150610e41908990836003614d25565b60036000600c856040516140419190615737565b90815260405190819003602001902060018101549091506001600160a01b031633146140a15760405162461bcd60e51b815260206004820152600f60248201526e4e6f7420796f7572206167656e637960881b60448201526064016105a8565b60008451116140e85760405162461bcd60e51b8152602060048201526013602482015272115e1c1bdc9d0810d251081c995c5d5a5c9959606a1b60448201526064016105a8565b4283116141375760405162461bcd60e51b815260206004820152601c60248201527f457870697279206d75737420626520696e20746865206675747572650000000060448201526064016105a8565b600081600301805461414890615769565b80601f016020809104026020016040519081016040528092919081815260200182805461417490615769565b80156141c15780601f10614196576101008083540402835291602001916141c1565b820191906000526020600020905b8154815290600101906020018083116141a457829003601f168201915b50505050600484015491925050600383016141dc8782615812565b5060048301859055815160009061420e57604051806040016040528060038152602001624e2f4160e81b815250614210565b825b90506000818861421f856149b6565b6142288a6149b6565b60405160200161423b9493929190615d67565b60408051601f19818403018152828201909152601a82527f4578706f72742043657274696669636174652055706461746564000000000000602083015291506130b7908a90836003614d15565b60606000805480602002602001604051908101604052809291908181526020016000905b828210156136f65783829060005260206000200180546142cb90615769565b80601f01602080910402602001604051908101604052809291908181526020018280546142f790615769565b80156143445780601f1061431957610100808354040283529160200191614344565b820191906000526020600020905b81548152906001019060200180831161432757829003601f168201915b5050505050815260200190600101906142ac565b336000908152600d60209081526040808320805482518185028101850190935280835260609460039484015b82821015613a275783829060005260206000200180546143a390615769565b80601f01602080910402602001604051908101604052809291908181526020018280546143cf90615769565b801561441c5780601f106143f15761010080835404028352916020019161441c565b820191906000526020600020905b8154815290600101906020018083116143ff57829003601f168201915b505050505081526020019060010190614384565b600260006009836040516144449190615737565b90815260200160405180910390209050600081600001805461446590615769565b9050116144845760405162461bcd60e51b81526004016105a890615b86565b600581015461010090046001600160a01b031633146144d65760405162461bcd60e51b815260206004820152600e60248201526d09cdee840f2deeae440c4c2e8c6d60931b60448201526064016105a8565b6000600582015460ff1660048111156144f1576144f1614e0c565b1461454c5760405162461bcd60e51b815260206004820152602560248201527f4f6e6c7920756e70726f6365737365642062617463682063616e2062652072656044820152641b5bdd995960da1b60648201526084016105a8565b60058101805460ff19166004179055604080518082018252600d81526c10985d18da0811195b195d1959609a1b6020808301919091528251808401909352601e83527f4661726d6572206d61726b65642062617463682061732064656c6574656400009083015261105f918591906002614d25565b600460006009846040516145d59190615737565b9081526020016040518091039020905060008160000180546145f690615769565b9050116146155760405162461bcd60e51b81526004016105a8906159cd565b6001600582015460ff16600481111561463057614630614e0c565b1461467d5760405162461bcd60e51b815260206004820152601e60248201527f4261746368206e6f7420726561647920666f7220636f6c6c656374696f6e000060448201526064016105a8565b6007810180546001600160a01b031916331790556009810161469f8482615812565b5060058101805460ff19166002179055604080518082018252600f81526e10985d18da0810dbdb1b1958dd1959608a1b60208083019190915291516146ed928792916126b191889101615e01565b50505050565b336000908152600760209081526040808320805482518185028101850190935280835260609460029484015b82821015613a2757838290600052602060002001805461473e90615769565b80601f016020809104026020016040519081016040528092919081815260200182805461476a90615769565b80156147b75780601f1061478c576101008083540402835291602001916147b7565b820191906000526020600020905b81548152906001019060200180831161479a57829003601f168201915b50505050508152602001906001019061471f565b336000908152600a60209081526040808320805482518185028101850190935280835260609460029484015b82821015613a2757838290600052602060002001805461481690615769565b80601f016020809104026020016040519081016040528092919081815260200182805461484290615769565b801561488f5780601f106148645761010080835404028352916020019161488f565b820191906000526020600020905b81548152906001019060200180831161487257829003601f168201915b5050505050815260200190600101906147f7565b606060018260048111156148b9576148b9614e0c565b036148df57505060408051808201909152600581526420b236b4b760d91b602082015290565b60028260048111156148f3576148f3614e0c565b0361491a5750506040805180820190915260068152652330b936b2b960d11b602082015290565b600382600481111561492e5761492e614e0c565b036149555750506040805180820190915260068152652a3930b232b960d11b602082015290565b600482600481111561496957614969614e0c565b036149935750506040805180820190915260098152684c6f6769737469637360b81b602082015290565b50506040805180820190915260078152662ab735b737bbb760c91b602082015290565b6060816000036149dd5750506040805180820190915260018152600360fc1b602082015290565b6000825b8015614a0757816149f1816157b3565b9250614a009050600a82615e6f565b90506149e1565b6000826001600160401b03811115614a2157614a21614e53565b6040519080825280601f01601f191660200182016040528015614a4b576020820181803683370190505b5090505b8415614ab657614a60600184615e83565b9250614a6d600a86615e9c565b614a78906030615eb0565b60f81b818481518110614a8d57614a8d615753565b60200101906001600160f81b031916908160001a905350614aaf600a86615e6f565b9450614a4f565b949350505050565b600884604051614ace9190615737565b90815260200160405180910390206040518060a00160405280336001600160a01b03168152602001836004811115614b0857614b08614e0c565b81526020808201879052604082018690524260609092019190915282546001810184556000938452928190208251600494850290910180546001600160a01b039092166001600160a01b031983168117825592840151939490939284926001600160a81b0319161790600160a01b908490811115614b8857614b88614e0c565b021790555060408201516001820190614ba19082615812565b5060608201516002820190614bb69082615812565b506080820151816003015550507fa58b61786ca221afb0dc63e40f6303a7630c2ec4814869abaf1fb1e8fc2f5756843383868642604051614bfc96959493929190615ec3565b60405180910390a150505050565b601184604051614c1a9190615737565b90815260200160405180910390206040518060a00160405280336001600160a01b03168152602001836004811115614c5457614c54614e0c565b81526020808201879052604082018690524260609092019190915282546001810184556000938452928190208251600494850290910180546001600160a01b039092166001600160a01b031983168117825592840151939490939284926001600160a81b0319161790600160a01b908490811115614cd457614cd4614e0c565b021790555060408201516001820190614ced9082615812565b5060608201516002820190614d029082615812565b5060808201518160030155505050505050565b600e84604051614ace9190615737565b600b84604051614ace9190615737565b5080546000825560020290600052602060002090810190614d569190614d59565b50565b80821115613a2e576000614d6d8282614d84565b614d7b600183016000614d84565b50600201614d59565b508054614d9090615769565b6000825580601f10614da0575050565b601f016020900490600052602060002090810190614d5691905b80821115613a2e5760008155600101614dba565b80356001600160a01b0381168114614de557600080fd5b919050565b600060208284031215614dfc57600080fd5b614e0582614dce565b9392505050565b634e487b7160e01b600052602160045260246000fd5b60058110614d5657634e487b7160e01b600052602160045260246000fd5b60208101614e4d83614e22565b91905290565b634e487b7160e01b600052604160045260246000fd5b604051601f8201601f191681016001600160401b0381118282101715614e9157614e91614e53565b604052919050565b600082601f830112614eaa57600080fd5b81356001600160401b03811115614ec357614ec3614e53565b614ed6601f8201601f1916602001614e69565b818152846020838601011115614eeb57600080fd5b816020850160208301376000918101602001919091529392505050565b600060208284031215614f1a57600080fd5b81356001600160401b03811115614f3057600080fd5b614ab684828501614e99565b60005b83811015614f57578181015183820152602001614f3f565b50506000910152565b60008151808452614f78816020860160208601614f3c565b601f01601f19169290920160200192915050565b600081518084526020808501808196508360051b8101915082860160005b85811015614fd4578284038952614fc2848351614f60565b98850198935090840190600101614faa565b5091979650505050505050565b60a081526000614ff460a0830188614f8c565b6020838203818501526150078289614f8c565b8481036040860152875180825282890193509082019060005b818110156150455784516001600160a01b031683529383019391830191600101615020565b505084810360608601526150598188614f8c565b858103608087015286518082528388019450908301915060005b8181101561508f57845183529383019391830191600101615073565b50909a9950505050505050505050565b60a0815260006150b260a0830188614f60565b82810360208401526150c48188614f60565b6001600160a01b0387166040850152838103606085015290506150e78186614f60565b9150508260808301529695505050505050565b60008060006060848603121561510f57600080fd5b83356001600160401b038082111561512657600080fd5b61513287838801614e99565b9450602086013591508082111561514857600080fd5b5061515586828701614e99565b925050604084013590509250925092565b6000806040838503121561517957600080fd5b82356001600160401b038082111561519057600080fd5b61519c86838701614e99565b935060208501359150808211156151b257600080fd5b506151bf85828601614e99565b9150509250929050565b600080604083850312156151dc57600080fd5b6151e583614dce565b91506020830135600581106151f957600080fd5b809150509250929050565b6000806000806080858703121561521a57600080fd5b84356001600160401b038082111561523157600080fd5b61523d88838901614e99565b9550602087013591508082111561525357600080fd5b61525f88838901614e99565b9450604087013591508082111561527557600080fd5b5061528287828801614e99565b949793965093946060013593505050565b60006101608083526152a78184018f614f60565b905082810360208401526152bb818e614f60565b905082810360408401526152cf818d614f60565b90508a606084015282810360808401526152e9818b614f60565b90506152f489614e22565b60a083018990526001600160a01b0388811660c0850152871660e08401526001600160a01b0386166101008401528281036101208401526153358186614f60565b905082810361014084015261534a8185614f60565b9e9d5050505050505050505050505050565b60608152600061536f6060830186614f60565b6001600160a01b038516602084015282810360408401526153908185614f60565b9695505050505050565b60006020808301818452808551808352604092508286019150828160051b87010184880160005b8381101561541157888303603f19018552815180518785526153e588860182614f60565b91890151858303868b01529190506153fd8183614f60565b9689019694505050908601906001016153c1565b509098975050505050505050565b602081526000614e056020830184614f60565b600082601f83011261544357600080fd5b813560206001600160401b038083111561545f5761545f614e53565b8260051b61546e838201614e69565b938452858101830193838101908886111561548857600080fd5b84880192505b858310156154c4578235848111156154a65760008081fd5b6154b48a87838c0101614e99565b835250918401919084019061548e565b98975050505050505050565b600080600080600080600060e0888a0312156154eb57600080fd5b87356001600160401b038082111561550257600080fd5b61550e8b838c01614e99565b985060208a013591508082111561552457600080fd5b6155308b838c01614e99565b975060408a0135965060608a013591508082111561554d57600080fd5b6155598b838c01614e99565b955060808a013591508082111561556f57600080fd5b61557b8b838c01614e99565b945060a08a013591508082111561559157600080fd5b61559d8b838c01615432565b935060c08a01359150808211156155b357600080fd5b506155c08a828b01615432565b91505092959891949750929550565b600080600080600060a086880312156155e757600080fd5b85356001600160401b03808211156155fe57600080fd5b61560a89838a01614e99565b965060208801359550604088013591508082111561562757600080fd5b61563389838a01614e99565b9450606088013591508082111561564957600080fd5b61565589838a01615432565b9350608088013591508082111561566b57600080fd5b5061567888828901615432565b9150509295509295909350565b602081526000614e056020830184614f8c565b600080600080608085870312156156ae57600080fd5b84356001600160401b03808211156156c557600080fd5b6156d188838901614e99565b955060208701359150808211156156e757600080fd5b6156f388838901614e99565b9450604087013591508082111561570957600080fd5b5061571687828801614e99565b9250506060850135801515811461572c57600080fd5b939692955090935050565b60008251615749818460208701614f3c565b9190910192915050565b634e487b7160e01b600052603260045260246000fd5b600181811c9082168061577d57607f821691505b60208210810361052c57634e487b7160e01b600052602260045260246000fd5b634e487b7160e01b600052601160045260246000fd5b6000600182016157c5576157c561579d565b5060010190565b601f82111561105f57600081815260208120601f850160051c810160208610156157f35750805b601f850160051c820191505b8181101561144a578281556001016157ff565b81516001600160401b0381111561582b5761582b614e53565b61583f816158398454615769565b846157cc565b602080601f831160018114615874576000841561585c5750858301515b600019600386901b1c1916600185901b17855561144a565b600085815260208120601f198616915b828110156158a357888601518255948401946001909101908401615884565b50858210156158c15787850151600019600388901b60f8161c191681555b5050505050600190811b01905550565b600085516158e3818460208a01614f3c565b808301905061205b60f01b8082528651615904816002850160208b01614f3c565b6b02e903ab83230ba3290169f160a51b60029390910192830152855161593181600e850160208a01614f3c565b600e920191820152835161594c816010840160208801614f3c565b605d60f81b601092909101918201526011019695505050505050565b6f021b932b0ba32b21030b3b2b731bc9d160851b815260008351615993816010850160208801614f3c565b6d0161022bc3837b93a1021a4a21d160951b60109184019182015283516159c181601e840160208801614f3c565b01601e01949350505050565b6020808252600f908201526e10985d18da081b9bdd08199bdd5b99608a1b604082015260600190565b60008154615a0381615769565b60018281168015615a1b5760018114615a3057615a5f565b60ff1984168752821515830287019450615a5f565b8560005260208060002060005b85811015615a565781548a820152908401908201615a3d565b50505082870194505b5050505092915050565b7102637b3b4b9ba34b1b99031b7b6b830b73c960751b81526000615a9060128301846159f6565b73040c8cad8d2eccae4cac840e8d0ca40c4c2e8c6d60631b81526014019392505050565b818103615abf575050565b615ac98254615769565b6001600160401b03811115615ae057615ae0614e53565b615aee816158398454615769565b6000601f821160018114615b225760008315615b0a5750848201545b600019600385901b1c1916600184901b178455613948565b600085815260209020601f19841690600086815260209020845b83811015615b5c5782860154825560019586019590910190602001615b3c565b50858310156158c15793015460001960f8600387901b161c19169092555050600190811b01905550565b60208082526014908201527310985d18da08191bd95cc81b9bdd08195e1a5cdd60621b604082015260600190565b60008451615bc6818460208901614f3c565b69028bab0b73a34ba3c9d160b51b9083019081528451615bed81600a840160208901614f3c565b63010169f160e51b600a92909101918201528351615c1281600e840160208801614f3c565b61016160f51b600e929091019182015260100195945050505050565b60008451615c40818460208901614f3c565b69024b6b0b3b2a1a4a21d160b51b9083019081528451615bed81600a840160208901614f3c565b60008451615c79818460208901614f3c565b680223ab934b0b7399d160bd1b9083019081528451615c9f816009840160208901614f3c565b63010169f160e51b600992909101918201528351615cc481600d840160208801614f3c565b01600d0195945050505050565b6000614e0582846159f6565b7f4261746368206f726465726564206279206167656e6379200000000000000000815260008451615d15816018850160208901614f3c565b6e016102232b634bb32b93c903a379d1608d1b6018918401918201528451615d44816027840160208901614f3c565b8451910190615d5a816027840160208801614f3c565b0160270195945050505050565b64021a4a21d160dd1b815260008551615d87816005850160208a01614f3c565b808301905063010169f160e51b8060058301528651615dad816009850160208b01614f3c565b690161022bc3834b93c9d160b51b600993909101928301528551615dd8816013850160208a01614f3c565b60139201918201528351615df3816017840160208801614f3c565b016017019695505050505050565b7102637b3b4b9ba34b1b99031b7b6b830b73c960751b815260008251615e2e816012850160208701614f3c565b73040c6ded8d8cac6e8cac840e8d0ca40c4c2e8c6d60631b6012939091019283015250602601919050565b634e487b7160e01b600052601260045260246000fd5b600082615e7e57615e7e615e59565b500490565b81810381811115615e9657615e9661579d565b92915050565b600082615eab57615eab615e59565b500690565b80820180821115615e9657615e9661579d565b60c081526000615ed660c0830189614f60565b6001600160a01b0388166020840152615eee87614e22565b8660408401528281036060840152615f068187614f60565b90508281036080840152615f1a8186614f60565b9150508260a083015297965050505050505056fe4661726d657220637265617465642061206e65772064757269616e2062617463684c6f676973746963732070726f76696465722072656769737465726564206120636f6d70616e794e6f206d696c6573746f6e6520686973746f727920666f756e6420666f722074a2646970667358221220faebe06a08bd0773c9e22445b8e8c0eaa9be1ee1caec25cfec890d9e7dd2101c64736f6c63430008130033",
  "linkReferences": {},
  "deployedLinkReferences": {}
}